:10000000029D25E4FDFCC3ED9FEC9E5015E4FBFA38
:100010000BBB00010ABA0BF8BBB8F50DBD00010C13
:1000200080E42202BBF9E59F0222B50271EAE49066
:10003000C875F0A3F07F14FE12C76D90C875EEF07E
:10004000A3EFF07F027E0012000390C875E0FEA3CC
:10005000E0FF2202D44753BEF7222202BA3143BE48
:02006000082274
:0600630002D44DC2802210
:10006B0002C03FEF75F046A42400FFE5F0345012B8
:10007B00385C7446F002A85002B3DD90AE93E06496
:10008B0001702790AF9AE07002A3E0701D12D45359
:10009B00EF701790AF9A04F0A374F4F090AE94E065
:1000AB00FF12D2FA90AE94E004F090AE94E0D394A9
:1000BB000A74809480400AE490AE93F090A7730486
:1000CB00F090A773E06401702190AF9AE07002A3E7
:1000DB00E0701790A773F090AE9404F07FF012AD20
:0B00EB00DF7BFF7AE87963124F4022B0
:1000F800FFFF4457494E543541CFC60041CFC70092
:1001080041CFB10042CFB4000042CFBA000042CF85
:10011800AD000044CFB60001D4C042CFAF0000C14B
:100128001042CFB2000042CFBC00006100CBAD004E
:10013800C1814001C0804101C0804100C1814001AE
:10014800C0804100C1814000C1814001C08041019F
:10015800C0804100C1814000C1814001C080410090
:10016800C1814001C0804101C0804100C18140017E
:10017800C0804100C1814000C1814001C080410070
:10018800C1814001C0804101C0804100C18140005F
:10019800C1814001C0804101C0804100C18140014E
:1001A800C0804100C1814000C1814001C08041013F
:1001B800C0804100C1814000C1814001C080410030
:1001C800C1814001C0804101C0804100C18140001F
:1001D800C1814001C0804101C0804100C18140010E
:1001E800C0804100C1814000C1814001C080410000
:1001F800C1814001C0804101C0804100C1814001EE
:10020800C0804100C1814000C1814001C0804101DE
:10021800C0804100C1814000C1814001C0804100CF
:10022800C1814001C0804101C0804100C18140615D
:1002380000CCAD00C0C101C30302C2C60607C70592
:10024800C5C404CC0C0DCD0FCFCE0E0ACACB0BC93A
:100258000908C8D81819D91BDBDA1A1EDEDF1FDD1A
:100268001D1CDC14D4D515D71716D6D21213D311EA
:10027800D1D010F03031F133F3F23236F6F737F5EA
:100288003534F43CFCFD3DFF3F3EFEFA3A3BFB397A
:10029800F9F83828E8E929EB2B2AEAEE2E2FEF2D7A
:1002A800EDEC2CE42425E527E7E62622E2E323E12A
:1002B8002120E0A06061A163A3A26266A6A767A54A
:1002C8006564A46CACAD6DAF6F6EAEAA6A6BAB69BA
:1002D800A9A86878B8B979BB7B7ABABE7E7FBF7D9A
:1002E800BDBC7CB47475B577B7B67672B2B373B16A
:1002F8007170B050909151935352929656579755AA
:100308009594549C5C5D9D5F9F9E5E5A9A9B5B99F9
:10031800595898884849894B8B8A4A4E8E8F4F8DF9
:100328004D4C8C44848545874746868242438341A9
:1003380081804041CFC80241940A004294040000E1
:100348004183EC00C10B41940D004294060000412A
:1003580083ED00C10C41940E0042940800004183D3
:10036800EE00C10D41940F0042940B00004183EF51
:1003780000C10EC10FC109C10A4383E9FFE9C142A7
:10038800A774000441AE8B0041AC180041AC2100B9
:1003980042AD71000041AC170042AD6F22B8611840
:1003A800A776010200000104B7BFBCE431000000D9
:1003B800000000000000000000CDA8B5C0312020DA
:1003C800202020202020202020CDA8B5C0322020A9
:1003D800202020202020202020CDA8B5C033202098
:1003E800202020202020202020CDA8B5C034202087
:1003F800202020202020202020CDA8B5C035202076
:10040800202020202020202020CDA8B5C036202064
:10041800202020202020202020CDA8B5C037202053
:10042800202020202020202020CDA8B5C038202042
:10043800202020202020202020CDA8B5C039202031
:10044800202020202020202020CDA8B5C031302019
:10045800202020202020202020CDA8B5C031312008
:10046800202020202020202020CDA8B5C0313220F7
:10047800202020202020202020CDA8B5C0313320E6
:10048800202020202020202020CDA8B5C0313420D5
:10049800202020202020202020CDA8B5C0313520C4
:1004A800202020202020202020CDA8B5C0313620B3
:1004B800202020202020202020006118AAB101023D
:1004C800000001040000000000000000000000001F
:1004D8000000000000CDA8B5C03120202020202039
:1004E8002020202020CDA8B5C03220202020202088
:1004F8002020202020CDA8B5C03320202020202077
:100508002020202020CDA8B5C03420202020202065
:100518002020202020CDA8B5C03520202020202054
:100528002020202020CDA8B5C03620202020202043
:100538002020202020CDA8B5C03720202020202032
:100548002020202020CDA8B5C03820202020202021
:100558002020202020CDA8B5C03920202020202010
:100568002020202020CDA8B5C031302020202020F8
:100578002020202020CDA8B5C031312020202020E7
:100588002020202020CDA8B5C031322020202020D6
:100598002020202020CDA8B5C031332020202020C5
:1005A8002020202020CDA8B5C031342020202020B4
:1005B8002020202020CDA8B5C031352020202020A3
:1005C8002020202020CDA8B5C03136202020202092
:1005D8002020202020006118AC2201020000010424
:1005E800B7BFBCE4310000000000000000000000BC
:1005F80000CDA8B5C0312020202020202020202098
:1006080020CDA8B5C0322020202020202020202066
:1006180020CDA8B5C0332020202020202020202055
:1006280020CDA8B5C0342020202020202020202044
:1006380020CDA8B5C0352020202020202020202033
:1006480020CDA8B5C0362020202020202020202022
:1006580020CDA8B5C0372020202020202020202011
:1006680020CDA8B5C0382020202020202020202000
:1006780020CDA8B5C03920202020202020202020EF
:1006880020CDA8B5C03130202020202020202020D7
:1006980020CDA8B5C03131202020202020202020C6
:1006A80020CDA8B5C03132202020202020202020B5
:1006B80020CDA8B5C03133202020202020202020A4
:1006C80020CDA8B5C0313420202020202020202093
:1006D80020CDA8B5C0313520202020202020202082
:1006E80020CDA8B5C0313620202020202020202071
:1006F80020006118AD73000000000000B7BFBCE423
:1007080031000000000000000000000000CDA8B586
:10071800C0312020202020202020202020CDA8B556
:10072800C0322020202020202020202020CDA8B545
:10073800C0332020202020202020202020CDA8B534
:10074800C0342020202020202020202020CDA8B523
:10075800C0352020202020202020202020CDA8B512
:10076800C0362020202020202020202020CDA8B501
:10077800C0372020202020202020202020CDA8B5F0
:10078800C0382020202020202020202020CDA8B5DF
:10079800C0392020202020202020202020CDA8B5CE
:1007A800C0313020202020202020202020CDA8B5B6
:1007B800C0313120202020202020202020CDA8B5A5
:1007C800C0313220202020202020202020CDA8B594
:1007D800C0313320202020202020202020CDA8B583
:1007E800C0313420202020202020202020CDA8B572
:1007F800C0313520202020202020202020CDA8B561
:10080800C031362020202020202020202000611800
:10081800A999000000000000B7BFBCE43100000047
:10082800000000000000000000CDA8B5C031202065
:10083800202020202020202020CDA8B5C032202034
:10084800202020202020202020CDA8B5C033202023
:10085800202020202020202020CDA8B5C034202012
:10086800202020202020202020CDA8B5C035202001
:10087800202020202020202020CDA8B5C0362020F0
:10088800202020202020202020CDA8B5C0372020DF
:10089800202020202020202020CDA8B5C0382020CE
:1008A800202020202020202020CDA8B5C0392020BD
:1008B800202020202020202020CDA8B5C0313020A5
:1008C800202020202020202020CDA8B5C031312094
:1008D800202020202020202020CDA8B5C031322083
:1008E800202020202020202020CDA8B5C031332072
:1008F800202020202020202020CDA8B5C031342061
:10090800202020202020202020CDA8B5C03135204F
:10091800202020202020202020CDA8B5C03136203E
:10092800202020202020202020004AA98F01020317
:100938000405060708090A42AD4D000042AC19003B
:100948000042AC1D000042AC1B000051AD3C200031
:10095800000000000000000000000000000000602F
:100968004EABC9C6D5CDA8C4A3BFE920202020001E
:10097800CAB1BFD8C4A3BFE92020202000B5F7B969
:10098800E2C4A3BFE92020202000BFC9BFD8B9E82E
:10099800C4A3BFE9202000CBABB2E3C6D5CDA8C421
:1009A800A3BFE900CBABB2E3CAB1BFD8C4A3BFE9C8
:1009B800006101A88ECDA8B5C031202020202020BC
:1009C8002020202020CDA8B5C032202020202020A3
:1009D8002020202020CDA8B5C03320202020202092
:1009E8002020202020CDA8B5C03420202020202081
:1009F8002020202020CDA8B5C03520202020202070
:100A08002020202020CDA8B5C0362020202020205E
:100A18002020202020CDA8B5C0372020202020204D
:100A28002020202020CDA8B5C0382020202020203C
:100A38002020202020CDA8B5C0392020202020202B
:100A48002020202020CDA8B5C03130202020202013
:100A58002020202020CDA8B5C03131202020202002
:100A68002020202020CDA8B5C031322020202020F1
:100A78002020202020CDA8B5C031332020202020E0
:100A88002020202020CDA8B5C031342020202020CF
:100A98002020202020CDA8B5C031352020202020BE
:100AA8002020202020CDA8B5C031362020202020AD
:100AB80020202020200041A7590041A75A0041A723
:100AC8005B0041A75C0F41A75D1941A75E0050A7D5
:100AD8005F121E061E00000000000000000000005B
:100AE800006020AD4F000000000000000000000082
:100AF80000000000000000000000000000000000EE
:100B0800000000000041A76F0041A7700041A771D5
:100B18000041A7720041A773006100CDAD00C181FB
:100B28004001C0804101C0804100C1814001C080B6
:100B38004100C1814000C1814001C0804101C080A5
:100B48004100C1814000C1814001C0804100C18194
:100B58004001C0804101C0804100C1814001C08086
:100B68004100C1814000C1814001C0804100C18174
:100B78004001C0804101C0804100C1814000C18165
:100B88004001C0804101C0804100C1814001C08056
:100B98004100C1814000C1814001C0804101C08045
:100BA8004100C1814000C1814001C0804100C18134
:100BB8004001C0804101C0804100C1814000C18125
:100BC8004001C0804101C0804100C1814001C08016
:100BD8004100C1814000C1814001C0804100C18104
:100BE8004001C0804101C0804100C1814001C080F6
:100BF8004100C1814000C1814001C0804101C080E5
:100C08004100C1814000C1814001C0804100C181D3
:100C18004001C0804101C0804100C181406100CED7
:100C2800AD00C0C101C30302C2C60607C705C5C4DB
:100C380004CC0C0DCD0FCFCE0E0ACACB0BC90908B8
:100C4800C8D81819D91BDBDA1A1EDEDF1FDD1D1CF8
:100C5800DC14D4D515D71716D6D21213D311D1D088
:100C680010F03031F133F3F23236F6F737F5353428
:100C7800F43CFCFD3DFF3F3EFEFA3A3BFB39F9F8F8
:100C88003828E8E929EB2B2AEAEE2E2FEF2DEDEC98
:100C98002CE42425E527E7E62622E2E323E12120C8
:100CA800E0A06061A163A3A26266A6A767A56564C8
:100CB800A46CACAD6DAF6F6EAEAA6A6BAB69A9A838
:100CC8006878B8B979BB7B7ABABE7E7FBF7DBDBC78
:100CD8007CB47475B577B7B67672B2B373B1717008
:100CE800B050909151935352929656579755959468
:100CF800549C5C5D9D5F9F9E5E5A9A9B5B99595878
:100D080098884849894B8B8A4A4E8E8F4F8D4D4C17
:100D18008C44848545874746868242438341818047
:100D28004048C0C3000000000000000041C0CB00E4
:100D380041C6CE0048C0110000000000000000605D
:100D48008CC0370000000000000000000000000018
:100D5800000000000000000000000000000000008B
:100D6800000000000000000000000000000000007B
:100D7800000000000000000000000000000000006B
:100D8800000000000000000000000000000000005B
:100D9800000000000000000000000000000000004B
:100DA800000000000000000000000000000000003B
:100DB800000000000000000000000000000000002B
:100DC80000000000000000000000000000000042D9
:100DD800C00F000041C6CD0042C00D000041C6CC86
:100DE8000041C0360041BFCB0041BFCC006040BFCE
:100DF800CD0100000000000000000000000000001D
:100E080000000000000000000000000000000000DA
:100E180000000000000000000000000000000000CA
:100E280000000000000000000000000000000000BA
:100E3800007300945900000000000000000000004A
:100E4800000000000000000000000000000000009A
:100E5800000000000000000000000000000000008A
:100E6800000000000000000000000000000000007A
:100E7800000000000000000000000000000000006A
:10213800000000000060269412000000000000006B
:102148000000000000000000000000000000000087
:102158000000000000000000000000000000004235
:102168009438000041943A004194100041941100C1
:1021780000E709F608DFFA8046E709F208DFFA8087
:102188003E88828C83E709F0A3DFFA8032E309F600
:1021980008DFFA8078E309F208DFFA807088828C19
:1021A80083E309F0A3DFFA806489828A83E0A3F6D7
:1021B80008DFFA805889828A83E0A3F208DFFA8070
:1021C8004C80D280FA80C680D4806980F2803380C7
:1021D8001080A680EA809A80A880DA80E280CA808F
:1021E8003389828A83ECFAE493A3C8C582C8CCC534
:1021F80083CCF0A3C8C582C8CCC583CCDFE9DEE7B1
:10220800800D89828A83E493A3F608DFF9ECFAA9A2
:10221800F0EDFB2289828A83ECFAE0A3C8C582C864
:10222800CCC583CCF0A3C8C582C8CCC583CCDFEAB3
:10223800DEE880DB89828A83E493A3F208DFF980F1
:10224800CC88F0EF60010E4E60C388F0ED2402B434
:10225800040050B9F582EB2402B4040050AF2323E4
:102268004582239021C973BB010689828A83E022B3
:102278005002E722BBFE02E32289828A83E493228A
:10228800BB010CE58229F582E5833AF583E022500B
:1022980006E92582F8E622BBFE06E92582F8E22255
:1022A800E58229F582E5833AF583E49322BB0106AA
:1022B80089828A83F0225002F722BBFE01F322F8BA
:1022C800BB010DE58229F582E5833AF583E8F02222
:1022D8005006E92582C8F622BBFE05E92582C8F228
:1022E80022EF8DF0A4A8F0CF8CF0A428CE8DF0A416
:1022F8002EFE22BC000BBE0029EF8DF084FFADF04E
:1023080022E4CCF875F008EF2FFFEE33FEEC33FC37
:10231800EE9DEC984005FCEE9DFE0FD5F0E9E4CE6D
:10232800FD22EDF8F5F0EE8420D21CFEADF075F03C
:1023380008EF2FFFED33FD4007985006D5F0F22245
:10234800C398FD0FD5F0EA22C2D5EC30E709B2D523
:10235800E4C39DFDE49CFCEE30E715B2D5E4C39FD1
:10236800FFE49EFE1222FBC3E49DFDE49CFC800377
:102378001222FB30D507C3E49FFFE49EFE22C5F07E
:10238800F8A3E028F0C5F0F8E582158270021583FD
:10239800E038F022A3F8E0C5F025F0F0E5821582D8
:1023A80070021583E0C838F0E822BB010A89828AE6
:1023B80083E0F5F0A3E022500687F009E71922BB75
:1023C800FE07E3F5F009E3192289828A83E493F58D
:1023D800F074019322BB0110E58229F582E5833A66
:1023E800F583E0F5F0A3E0225009E92582F886F0AC
:1023F80008E622BBFE0AE92582F8E2F5F008E222A7
:10240800E5832AF583E993F5F0A3E99322BB010A52
:1024180089828A83F0E5F0A3F0225006F709A7F035
:102428001922BBFE06F3E5F009F31922F8BB0111E6
:10243800E58229F582E5833AF583E8F0E5F0A3F033
:10244800225009E92582C8F608A6F022BBFE09E950
:102458002582C8F2E5F008F222EF2BFFEE3AFEEDF6
:1024680039FDEC38FC2275F008758200EF2FFFEE7D
:1024780033FECD33CDCC33CCC58233C5829BED9AA8
:10248800EC99E58298400CF582EE9BFEED9AFDEC06
:1024980099FC0FD5F0D6E4CEFBE4CDFAE4CCF9A84C
:1024A8008222B800C1B90059BA002DEC8BF084CF54
:1024B800CECDFCE5F0CBF97818EF2FFFEE33FEED2B
:1024C80033FDEC33FCEB33FB10D703994004EB9955
:1024D800FB0FD8E5E4F9FA227818EF2FFFEE33FE68
:1024E800ED33FDEC33FCC933C910D7059BE99A409D
:1024F80007EC9BFCE99AF90FD8E0E4C9FAE4CCFBB5
:102508002275F010EF2FFFEE33FEED33FDCC33CC08
:10251800C833C810D7079BEC9AE899400AED9BFD91
:10252800EC9AFCE899F80FD5F0DAE4CDFBE4CCFAA4
:10253800E4C8F922EB9FF5F0EA9E42F0E99D42F0EB
:10254800E89C45F022E8600FECC313FCED13FDEEA8
:1025580013FEEF13FFD8F122E86010ECA2E713FC9A
:10256800ED13FDEE13FEEF13FFD8F022E0FCA3E01D
:10257800FDA3E0FEA3E0FF22E0F8A3E0F9A3E0FA60
:10258800A3E0FB22ECF0A3EDF0A3EEF0A3EFF02222
:10259800A8828583F0D083D0821225AF1225AF128E
:1025A80025AF1225AFE473E493A3C583C5F0C583B3
:1025B800C8C582C8F0A3C583C5F0C583C8C582C88D
:1025C80022A42582F582E5F03583F58322E0FBA37A
:1025D800E0FAA3E0F922F8E0FBA3A3E0F925F0F084
:1025E800E582158270021583E0FA38F022EBF0A339
:1025F800EAF0A3E9F022BB010DE58229F582E58323
:102608003AF5830225D55007E92582F8022A16BB38
:10261800FE07E92582F8022A28E58229F582E58362
:102628003AF583022A3ABB0120E58229F582E5833F
:102638003AF583D0F0D0E0F8D0E0F9D0E0FAD0E075
:10264800FBE8C0E0C0F00225F55018E92582F8D073
:1026580083D082D0E0F9D0E0FAD0E0FBC082C0831A
:10266800022A1FBBFE18E92582F8D083D082D0E069
:10267800F9D0E0FAD0E0FBC082C083022A3122D030
:1026880083D082F8E4937012740193700DA3A3931E
:10269800F8740193F5828883E4737402936860EF99
:1026A800A3A3A380DFE3F5F009E208B5F06D606B42
:1026B80080F3E3F5F009E608B5F060605E80F38723
:1026C800F009E608B5F054605280F487F009E20892
:1026D800B5F048604680F488828C8387F009E0A3CF
:1026E800B5F038603680F488828C8387F009E493EB
:1026F800A3B5F027602580F388828C83E3F5F00981
:10270800E0A3B5F016601480F388828C83E3F5F0BB
:1027180009E493A3B5F004600280F20227D880850B
:1027280080E7808E80D2803C8015806C807E809B84
:1027380080B5808B80A1804F8070803A0227E48921
:10274800828A83ECFAE493F5F0A3C8C582C8CCC5A5
:1027580083CCE493A3C8C582C8CCC583CCB5F0703C
:10276800606E80E189828A83E493F5F0A3E208B57C
:10277800F05E605C80F289828A83E0F5F0A3E60867
:10278800B5F04D604B80F389828A83E0F5F0A3E2CF
:1027980008B5F03C603A80F389828A83E493F5F0C7
:1027A800A3E608B5F02A602880F2805389828A83DC
:1027B800ECFAE493F5F0A3C8C582C8CCC583CCE095
:1027C800A3C8C582C8CCC583CCB5F004600280E23A
:1027D8007FFFB5F0020F2240027F012289828A839F
:1027E800ECFAE0F5F0A3C8C582C8CCC583CCE0A359
:1027F800C8C582C8CCC583CCB5F0D560D380E38981
:10280800828A83ECFAE0F5F0A3C8C582C8CCC583F8
:10281800CCE493A3C8C582C8CCC583CCB5F0B1605D
:10282800AF80E288F0ED2402B4040050A3F582EBF7
:102838002402B40400509923234582239027267349
:10284800EF4E6012EF60010EEDBB010B89828A83A7
:10285800F0A3DFFCDEFA2289F05007F709DFFCA9B4
:10286800F022BBFEFCF309DFFCA9F022E709F60819
:10287800DFFA807BE9D39850F3E92FF9E82FF819AC
:10288800E718F6DFFA8068E709F208DFFA80608067
:10289800E388828C83E709F0A3DFFA8052E309F624
:1028A80008DFFA804AE9D398500EE92FF9E82FF8A3
:1028B80019E318F2DFFA8037E309F208DFFA802F0C
:1028C80088828C83E309F0A3DFFA802389828A83D4
:1028D800E0A3F608DFFA801789828A83E493A3F2DB
:1028E80008DFF9800A89828A83E0A3F208DFFA0206
:1028F800298680B180F980A580C680DC80F180734C
:102908008010808380E98087808780D980E180BCBF
:102918008073D3E998EA9C5039E92FF582EA3BF5B0
:1029280083E82FF8EC3BFC0582D5820215831582DB
:10293800E493C8C582C8CCC583CC0582D58202156C
:10294800831582F0C8C582C8CCC583CCDFD9DED751
:10295800802E89828A83ECFAE493A3C8C582C8CC06
:10296800C583CCF0A3C8C582C8CCC583CCDFE9DE5B
:10297800E7800D89828A83E493A3F608DFF9ECFAED
:10298800A9F0EDFB22D3E998EA9C5038E92FF582AB
:10299800EA3BF583E82FF8EC3BFC0582D58202156B
:1029A800831582E0C8C582C8CCC583CC0582D58290
:1029B8000215831582F0C8C582C8CCC583CCDFDA7E
:1029C800DED880BC89828A83ECFAE0A3C8C582C8B5
:1029D800CCC583CCF0A3C8C582C8CCC583CCDFEAFC
:1029E800DEE8809C809888F08E83EF60010E4E6050
:1029F8008DED2402B404005085F582EB2402B40462
:102A08000050E123234582AB83239028FA73E6FB29
:102A180008E6FA08E6F922EBF608EAF608E9F622EB
:102A2800E2FB08E2FA08E2F922EBF208EAF208E926
:102A3800F222E493FB740193FA740293F92290C88A
:102A4800671225F5786A7CC87ADB79A67FB51232D9
:102A5800FD781F7CC97ADC795B7F111232FD7830F2
:102A68007CC97ADC796C1232B178617CC97ADC79FC
:102A78009D1232B190C99212331612331C789B7C86
:102A8800C97ADC79CE7F281234F078C37CC97ADC25
:102A980079F67F0A12338FE490C9CD12331B78D1AF
:102AA8007CC97ADD79007F301234F078017CCA7AEB
:102AB800DD79307F2312338F78247CCA7ADD79530D
:102AC8007F2412343078487CCA7ADD79777E017F9A
:102AD8001812365F78607CCB7ADE798F123255789F
:102AE800707CCB7ADE799F7F141234301231AE12AB
:102AF800347A64016003022CD4900013122288FFF8
:102B0800C3940274809480400DEF64046008EF64FD
:102B1800056003022C059000191234679000171203
:102B280023DDFDACF0EC5EFEED5F90C9921236F14C
:102B38009000191223DDF4FFE5F0F45CFEEF5DFF71
:102B480090C994EEF0A3EFF0E4A3F090C996E012D8
:102B5800351C504C1236F88005C333CE33CED8F925
:102B680090C9921236958005CEC313CE13D8F94E6C
:102B7800602990C997E075F003A42430F974C93529
:102B8800F0FA7B01C002C0011232BC7403F0D0011C
:102B9800D00212AF8C90C997E004F012361A80ABBD
:102BA800E490C996F090C996E012351C4003022CB7
:102BB800D41236F88005C333CE33CED8F990C994F1
:102BC8001236958005CEC313CE13D8F94E602990DE
:102BD800C998E075F003A42461F974C935F0FA7B4B
:102BE80001C002C0011232BC7403F0D001D002123D
:102BF800AF8C90C998E004F012361A80A8E490C906
:102C080096F090C9961235894003022CD41231AE41
:102C180012370290C9961236218005C333CE33CEBF
:102C2800D8F91237088003123549D8FB4E700302D1
:102C38002CCE7BFF7AD5798E90CB871231AB900062
:102C4800131222886402700C1234537C007D0A121D
:102C580022E980061231AE12345390CB8AEEF0A3EB
:102C6800EFF07B017AC979C3124F3A7B017AC979AF
:102C7800C312D28490C9CDEFF0A31236A0C002C00F
:102C8800011232BC7403F0D001D00212AF8C90C98B
:102C9800CEE02403F01236A0C002C0017AC979C37D
:102CA80090CB871225F590C9CDE0FF1232D2EFF014
:102CB800D001D00212AF8C90C9CDE0FFA3E02FF075
:102CC80090C999E004F012361A022C0AE490C996C9
:102CD800F090C996E0FFC394077480948050511215
:102CE80031AE90000F122288FEA807088002C31395
:102CF800D8FC30E03690C99AE075F005A42424F990
:102D080074CA35F0FA7B01C002C00190C996E0751B
:102D1800F005A42401F974CA1232C97405F0D0016F
:102D2800D00212AF8C90C99AE004F012361A80A132
:102D38001231AE90001612228875F08CA4FFAEF006
:102D4800E4FCFD7B017ACA794890CB8BF0A3748CA4
:102D5800F012B6227B017ACA794E1232CC7410F086
:102D68007AC9791F12AF8C7BFF7AD5799490CB877B
:102D78001225F57AD5799690CB8A12362E1293B40D
:102D88001231AE9000101222886003022F4790C9BA
:102D980092E07002A3E0603F90C994E07002A3E063
:102DA80060357BFF7AD5799790CB871231AB123299
:102DB800181234397AC9796190CB8F1225F57ACAFD
:102DC800792490CB921231AB12344D90CB951232BC
:102DD8007E90CB9602305F90C992E07002A3E060CB
:102DE8003190C994E07002A3E070277BFF7AD5790F
:102DF800CD90CB871231AB123218123439123666A5
:102E08001231AB12344D90CB9212327E90CB93029A
:102E1800305F90C992E07002A3E0703690C994E0E8
:102E28007002A3E0602C7BFF7AD579FE90CB8712E5
:102E380031AB123218F07AC9796112343E12366613
:102E48001231AB12344D90CB9212327E90CB93025A
:102E5800305F1231AE123702602F7BFF7AD6792F9E
:102E680090CB871231AB123218F07B017AC9799B6B
:102E7800A31225F51236661231AB12344D90CB925F
:102E880012327E90CB9302305F1231AE12347A64E4
:102E98000270241234A96401700302307B1231AE2F
:102EA8001234A964027BFF70077AD6797D0230A6B6
:102EB8007AD6799C0230A61231AE12347A64037045
:102EC8005D12371270097BFF7AD679B80230811209
:102ED80031AE123561EF7803C333CE33CED8F97AE9
:102EE800CB79601233B27408F012BEAA7BFF7AD68F
:102EF80079D890CB871225F590CB8A1231A512325A
:102F0800751237187ACB7960A31225F57AC8796AD1
:102F1800124F3A90C9CFEEF0A3EFF00231327BFFA7
:102F28007AD679F990CB871231AB1232181231A3C5
:102F380012344D90CB8F12327E90CB9002305F903E
:102F4800C992E07002A3E0606F90C994E07002A398
:102F5800E060657BFF7AD7793190CB871231AB126D
:102F680032181234397AC9796190CB8F1231AB1289
:102F780023B290CB9212350F12341790CB94F012E3
:102F8800326690CB95F09000041223DDFF90CB962B
:102F980012351090000612228890CB98F090000706
:102FA80012228890CB991231A312344D90CB9D12E6
:102FB800327E90CB9E02305F90C992E07002A3E00F
:102FC800602F90C994E07002A3E070257BFF7AD748
:102FD800797990CB871231AB123218F07AC97930EF
:102FE80012315312344D90CB9A12327E90CB9B8083
:102FF8006690C992E07002A3E0702F90C994E070C7
:1030080002A3E060257BFF7AD779BC90CB87123189
:10301800AB123218F07AC9796112315312344D90DB
:10302800CB9A12327E90CB9B802D1231AE12370292
:1030380060307BFF7AD779FF90CB871231AB1232A1
:1030480018F07B017AC9799B12315512344D90CB17
:103058009A12327E90CB9BF0123631A31225F502DC
:10306800312B1231AE12347A640270401234A964E2
:103078000170157BFF7AD6795E1233E91231AB12F3
:10308800327512371802312B1231AE1234A964028C
:103098007BFF70067AD6797D80047AD6799C1233C4
:1030A800E91231AB12327512371880771231AE122D
:1030B800347A640370351237127BFF70127AD6792E
:1030C800B81233E91231AB12327590CB8E80177A71
:1030D800D879401233E91231AB12327590CB8EF0A9
:1030E80012371290CB8FF07B0180387BFF7AD8792A
:1030F8006390CB8712362E90CB8A1231AB90001496
:1031080012228890CB8DF090001512228890CB8ED9
:10311800F012315F12344D90CB9A12327E90CB9BD5
:10312800F07B017AC8796A124F3A1231AE1236E250
:1031380075F050A42480FFE5F03461FE7B017AC865
:10314800796A1232F67450F002A8507B01A3122556
:10315800F590C8671225D51223B2FF90CB8FE5F002
:10316800F0A3EFF090000212228890CB91F090002B
:103178000312228890CB92F09000041223DDFF9076
:10318800CB93E5F0F0A3EFF090000612228890CBE5
:1031980095F090000712228890CB96F0A37B017AD5
:1031A800CA79241225F590C8670225D575F080A440
:1031B800FFE5F04CFCEF4DFD90C884E04CFC90C856
:1031C80086E025E04CFC90C888E025E025E04CFC32
:1031D80090C88AE033333354F8221225D59000067C
:1031E8001223DDFFE5F090C8C0F0A3EFF07B017A71
:1031F800B379BA2290C85E1225D5900003122288AE
:1032080090C85B75F026A4FF1225D5E92FF9EA22AC
:1032180090001412228890CB8AF090001512228810
:1032280090CB8B2290C876E025E0FFE433FE90C86F
:1032380074E0FDEEFCEF4DFD90C878E090C87A751B
:10324800F004A4FFE5F04CFCEF4DFDE0227D017B8E
:10325800FF7E007F1002224990C85E1225D590009B
:10326800030222887D017BFF7F200222499000080B
:1032780012228890CB8DF09000090222887D017B74
:10328800FF7E007F0402224975F008A4FFE5F04C98
:10329800FCEF4DFD90C87CE075F01090C87EA4FF4F
:1032A800E5F04CFCEF4DFDE0227D017BFF7E007FC9
:1032B8003102224990C996E075F003A424D1F9742B
:1032C800C935F0FA90CB871225F590CB8AE4F0A3A4
:1032D800221225D590C86AE92404F9E43AFA0225AD
:1032E800F590C8611225D5E9240BF9E43AFA90CB98
:1032F80092E4F0A3227D017BFF7E00022249122581
:10330800D590C86DE92408F9E43AFA0225F5E4F005
:10331800A3F0A3F0A3F0A3F0A3F02290946875F0B3
:10332800261225C9E0225401FFED25E02466F58226
:10333800E434C8F583EFF090C864E004F02290C844
:1033480053E0FF131313541F2441F582E43494F51A
:10335800832290C86D1225D59000050222884CFC66
:1033680090C88CE0C454F04CFC90C88EE0C4335430
:10337800E0221225D5900001122288FD90C8BF7462
:1033880010F0A3E4F0A3227D017BFF7E0002224916
:10339800EF90946475F0261225C9E0224CFEED905A
:1033A800C870FF1225D5900006222420FFEE343382
:1033B800FE7B0190CB92E4F0A3221225D590C87031
:1033C800E9240BF9E43AFA0225F5EF14FF1225D5A2
:1033D800900003EF0222C77D017BFFFE7F080222D7
:1033E8004990CB871225F57B017ACA792490CB8A3C
:1033F8002290C8561225D590000D2275F04090C82D
:1034080082A4FFE5F04CFCEF4DFDE0221225D5909B
:10341800000202228890C8531225D590000422FF8A
:1034280075F0261225C9E0227D017BFF7E0002226D
:1034380049F07AC979307B01A30225F5EF75F026AA
:103448001225C9E022900008022288E9241EF9E426
:103458003AFA90C996E075F002A4F58285F08312D5
:1034680023DDFFAEF022FF1225D5EF9000020222E5
:10347800C7FA90000D0222884CFC90C890E0C43333
:103488003354C04CFC90C892E0C4333322741FF00C
:103498007403A3F07B017AB3799E2290C861122548
:1034A800D590001202228875F026A4FFE5F0C31318
:1034B800FEEF132440FFEE34E7FEE4FCFD22E49027
:1034C800C8C0F0A374C9F07D217C00221225D50262
:1034D800226F90C8611225D590000A122288FF90A9
:1034E800C864E0FEF8EF08227D017BFFFE02224956
:1034F800E4F0A3F07B012290C8671225D59000075D
:10350800221223DD90CB87FFE5F0F0A3EFF02290A5
:10351800C864E0FDC394107480948022FF1225D5FE
:1035280090000122FF1225D590000EEF0222C7E07D
:103538006401F0FD7C0022E0FFC3948074809480D5
:1035480022CEA2E713CE1322E0FEA3E0FF4E221202
:10355800228890CB87F07BFF2290001112228824CA
:10356800FFFFE434FFFE2290C86A1225D5E9241330
:10357800F9E43AFA22EF75F0261225C9E02290C83C
:1035880064E0C3940474809480221225F5900004AA
:10359800122288FD7C007F117E202278587CC87D0D
:1035A800017BFF12282BEF3395E04F2274FF90C860
:1035B800C0F0A3F022E4F0A3F07B012290C85602E9
:1035C80025D51225F590C8590225D5E0FD7C007E49
:1035D800007401A8070822E490943BF0A3F0A3220A
:1035E800A4FFE5F04CFEEF4D22FFEE5CFEEF5DFF21
:1035F800E0FDEFA80508227B017AC8796522FF1251
:1036080025D5EF0222B5EE8FF0022434E48FF002C4
:10361800243490C996E004F022FD7C00E0FB7E0093
:103628007401A80308221225F57B017AC9791F22A3
:103638001225F590C8530225D590C8610225D5906A
:10364800C8701225D5900008740122E0FEA3E0FF9F
:103658007B017AC87979227D017BFF0222497ACAE7
:10366800792490CB8F22E0FEA8077401082275F018
:10367800261225C9E022A42464F9749435F0FA7B53
:103688000122A4FFE5F04CFCEF4DFDE022FFE05ED7
:10369800FEA3E05FA8050822E0249BF9E434C9FAF8
:1036A8007B012275F026A4FFAEF090C85B227B0157
:1036B8007AC8795C7FCC7E10227B017AC879597FE1
:1036C800957E10227B017AC879567F967E10227BE0
:1036D800017AC879537F977E102290000E022288C3
:1036E8001225D5EE8FF0022415FFEEF0A3EFF0229D
:1036F800E0FD7E007401A805082290001D022288C2
:10370800FFEE5CFEEF5DA8030822900011022288FC
:1037180090CB8EF07B012290000B02228890C85635
:103728000225D51225F590C8670225D575F080A425
:10373800FFE5F04CFCEF4DFD90C87EE04CFC90C8D6
:1037480080E025E04CFC90C882E025E025E04CFCB8
:1037580090C884E033333354F8221222B590C8530A
:103768001225D59000010222889000081222882490
:10377800FFFFE434FFFE7C037D001222E9EF2440C2
:10378800FFEE3427FEE4FC90C86C12258C7403907D
:10379800C870F0A3E4F0227BFF90CB871225F59048
:1037A800C8611225D590000512228890CB8AF09026
:1037B800000612228890CB8BF07B01221223DDFFBA
:1037C800E5F090C8C0F0EFA3F07B017AB379BA2294
:1037D80090C870E025E0FFE433FE90C86EE0FDEE8F
:1037E800FCEF4DFD90C872E090C87475F004A4FF1A
:1037F800E5F04CFCEF4DFDE02224FFFFE434FFFE32
:103808001225D590000222FE90CB92E92404F9E417
:103818003AFAE4F0A3227D017BFF7E007F040222B6
:10382800491225F57E007F087D007B017AC079C3A7
:1038380002284875F008A4FFE5F04CFCEF4DFD9018
:10384800C876E075F01090C878A4FFE5F04CFCEF5E
:103858004DFDE0227AC07937FE7B0190CB92E4F0EF
:10386800A3221223DDFFAEF07C007D181222E9743A
:10387800CC2FF974C03EFA7B01227D017BFF7E00CC
:103888000222491223DD90C0CDAEF075F018122542
:10389800C9EE75F018A42583F583227E007F087D84
:1038A800001225D5E9241AF9E43AFA2290C968E009
:1038B80075F003A424A0F974C935F0FA90CB8712E7
:1038C80025F590CB8AE4F0A322EF75F020A424001C
:1038D800FFE5F03441FE7B0190CB92E4F0A3227522
:1038E800F022A4FFE5F0C313FEEF132400FFEE342B
:1038F80023FEE4227D017BFF7E007F3102224954B2
:1039080001FFED25E02464F582E434C8F583EFF087
:1039180090C862E004F02290C01DE075F018A4245D
:10392800CCF974C035F0FA7B01227C037D001222A9
:10393800E990CB8BEF2440FFEE3427FEE4FC7B01BB
:103948007AC079CC7403F0A3E4F022E4F0A3F0A3E6
:10395800F0A3F0A3F0224CFC90C886E0C454F04CCD
:10396800FC90C888E0C43354E02290C8611225D581
:1039780090000402228890C8561225D590000702AC
:1039880022887D017BFFFE0222497E007F187D0090
:103998001225D502284890C8621225D59000050244
:1039A8002288E0FFC39440748094802224FFFFE4BF
:1039B80034FFFE7C000222E924C3F58274C03EF580
:1039C80083E0FB7A00ED5407FD7E007401A805082A
:1039D80022E92410F9E43AFA90C968E075F002A4E3
:1039E800F58285F0831223DDFFAEF022FF90C864D4
:1039F8000225D575F04090C87CA4FFE5F04CFCEF9B
:103A08004DFDE022E0FEEF5407FFF8740108227D27
:103A1800017BFF7E0002224990C8611225D59000E3
:103A280003022288FF131313541F24C3F582E434BE
:103A3800C0F5832290C0CCEF75F0181225C9E0229A
:103A48007F727B017AC879567E10227F717B017A5A
:103A5800C879597E102290C85F1225D590000F02B0
:103A680022884CFC90C88AE0C4333354C04CFC9084
:103A7800C88CE0C43333227D017BFFFE022249FC5F
:103A8800FD90C86C12258C90C870E4F0A322FF90BA
:103A9800C8640225D590000BEE8FF002243424FF71
:103AA800FFE434FFFE22FDE435F0FC90C8B802259F
:103AB800D5131313541FFF90C85FE4F0A3EF2274CB
:103AC80002F07F807E002275F08CA4FFAEF0E4FC4B
:103AD800FD7B0190CB8BF0A32290C856E0FEA3E0BB
:103AE800FF4E227AC979331225F57AC879F1221264
:103AF80025D5EF9000010222C790C862E0FDC3946B
:103B080010748094802290C85B1225D5745190005F
:103B1800070222C790BFCBE075F018A42458F974A7
:103B2800C835F0FA7B012290C8560225D51225F532
:103B380090C8530225D57B017AC8795C7F2E7E1008
:103B48002275F008A42400FFE5F03412FE2290C884
:103B580062E0C3940474809480227D017BFFFE029E
:103B68002249FFEE5AFEEF5BA8050822E48FF00217
:103B780024347C007D051222FBEF2479FF90C036A7
:103B8800F0227F747B017AC879567E10227F767B7B
:103B9800017AC879597E1022A4FFE5F04CFEEF4D5A
:103BA800227B017AC0791E1225F57AC679CF227B4D
:103BB800017AC8796322EF24FFFDEE34FFFCFEEDA5
:103BC800780322CEA2E713CE1322FF131313541F38
:103BD800FD7C0090C859227D407F007E122290C84B
:103BE800530225D590CB8BF0A37411F022F07D0001
:103BF8007CE07FA522900008EF0222C7EF1222C7BF
:103C080090C86122EF1222C790C86122E0FEA3E0AB
:103C1800FF7B017AC8797322A3F07B017AB3799E7E
:103C280022F07B017AC879537F257E1B2290C85DDC
:103C38001225F57B407D00221225D5E92406F9E4FA
:103C48003AFA221225D5E92417F9E43AFA227B0137
:103C58007AC879567F1B7E1022A4FFE5F04CFCEF52
:103C68004DFDE022FD90C8BF7410F02290BFC974CA
:103C780003F0A374E8F022FFE05EFEA3E05FA8056E
:103C88000822E0246CF9E434C9FA7B01227B017A2A
:103C9800C879537F2D7E1022E4F0A3F0A3F0229080
:103CA80000020223DD34FFFE7C001222E9EE22909E
:103CB8000008022288FF90C862E0FEF8EF0822FFA1
:103CC800EEF0A3EFF02290000D0223DD90C968E02A
:103CD80004F02290C0367417F02290BFC9E4F0A314
:103CE80074C8F0227B017AC679CF227B017AC87921
:103CF800C2227B017AC8795C2224CCF58274BF3E4B
:103D0800F583224FFF90C8C0EEF0EFA3F07B017A55
:103D1800B379BA2290C85B1225D590000302228895
:103D280090B3E8A3E0FF90AE96F090802FE4F0A364
:103D3800EFF090B3EAA3E0FF90AE97F0908031E403
:103D4800F0A3EFF090B3ECA3E0FF90AE98F0908072
:103D580033E4F0A3EFF090B3EEA3E0FF90AE99F058
:103D6800908035E4F0A3EFF022F0A3F0A3F0A3F0E5
:103D7800A3F0A3F0A3F022A3F07C007D0DFF7E004A
:103D88001222E974C92FF974AB3EFA7B0190CB92E9
:103D9800E4F0A3221225D5900004122288FD7403B2
:103DA80090C8BFF0A3E4F0A3221225D59000041216
:103DB8002288FD90C8BF7410F02274FF90C8C0F02C
:103DC800A3F0227D017BFF7E007F04022249E0FDF3
:103DD8007C0090C8C0E4F0A374C9F022E0FFA3E01F
:103DE800CF90C8C0F0A3EFF022FDE433FC90C86583
:103DF800E075F008A42DFDE5F03CFC2290C862F0C7
:103E08007B017AAC7918A31225F590C85B0225D5F9
:103E1800A3E4F0A37416F07406A3F07B017AB379D7
:103E28009E227C007D8CAF03AE021222E9EE339510
:103E3800E0FDFC90C86C12258C90C870E4F0A322B9
:103E4800D390C85AE0941190C859E09400227D019B
:103E58007BFF7E0002224990C8561225D5900005A6
:103E68000222881222C77AC879647B0190CB92E437
:103E7800F0A3227D017BFFFE7F08022249EF75F047
:103E88000DA424C9F974AB35F0FA7B0190CB8712E5
:103E980025F590CB8AE4F0A322E0FF90C8C0E4F0B7
:103EA800A322E4F0A3F0A3F07B012290C8551225C9
:103EB800D590C858E0FD227D017BFFFE7F040222D9
:103EC80049EF7F0025E025E0FEE4FCFD90C86C1278
:103ED800258C740490C870F0A3E4F0FD7CE07FA505
:103EE80022E4F0A3F07B01221225D5E92406F9E4A7
:103EF8003AFA227D017BFF7E00022249E4F0A3F01A
:103F08007B012275F08CA4FFAEF0E4FCFD7B01F090
:103F1800A32290B3FAE0FEA3E0FFEE90AF9CF0A3DB
:103F2800EFF0227B0190CB8BF0A37402F0221225D4
:103F3800D590000402228890C859E0FEA3E022E44C
:103F4800F0A3F07B0122EEF0A3EFF0A3EDF0227DC9
:103F5800017BFFFE7F1002224990C8531225D5909D
:103F6800C857E0FDA3E022E075F008A42420FFE58F
:103F7800F03431FE2275F002A4244FF974AD35F007
:103F8800FA7B01E02430FFE43410FE221225D5E943
:103F98002417F9E43AFA2275F008A4FFC390000048
:103FA800E09FFF223CF583E0FAEAC413131354019F
:103FB80090C860F0EA547FA3F022E4F0A3F07B01FC
:103FC80022EEF0A3EFF07F057E0022F07F237B0135
:103FD8007AC879557E1B22900000E024FFFF9000EC
:103FE80000E034FFFEEF780322E090C8C0FFE4F061
:103FF800A3EFF022A3E0FF74962DF582E434AEF52A
:10400800832224FFFFE434FFFE7C007D8C1222E92A
:10401800EE3395E0FDFC22E0FEA3E0FF7B0122E009
:10402800FEA3E0FFA3E0227406F07F107E31227B1E
:104038000190C86EE4F0A37402F0227B017AAE7995
:104048009A222FFFE03400FE2290B7BDE0C394050A
:104058007480948022EF3395E090C8C0F022E0FF8E
:10406800C3941074809480227AC8795A7F0C7E1089
:10407800227B017AC87958F0A32204F07F007E10D1
:1040880022E02401FDE433FCEE7E002DFDEE3CFC35
:1040980022E0FEA3E0FF4E227B017AA77976223C3C
:1040A800F583A3E090C862F0E975F010A4227AC8FD
:1040B80079597F0C7E1022E4F0A3F0A374FFF07B03
:1040C8000122E0FDA3E090C87AF0227D017BFF7E0B
:1040D8000002224990C85D1225D502226F2FFFE009
:1040E8003400FE22E490AC1DF0A3F0FC7D0DFFFE31
:1040F800227420F0A37401F0FB7AB3799E2290C851
:104108005BE0940190C85AE094002290AF9CF0A321
:10411800F0908041F0A3F02233FE742F2FF58274C3
:10412800803EF5832290CB8BE4F0A3748CF022744C
:1041380004F07F167E002290C8551225D590AE8BCC
:10414800E0FD2290C858E0F925E0FDE433FC222583
:10415800E0244FF582E434ADF583227AC879597F9B
:104168000C7E10227AC879537F0A7E1022E0A3FFC2
:10417800E0FAA3E0FB22F07B017AC879557F2A7E1A
:104188001122A3F0E4A3F0A3F0227B017AC87953AB
:104198007F087E102290C8771225D590C87AE02231
:1041A8004FFFEEF0A3EFF0227B017AC87959741023
:1041B800FFFE227B017AC879587F1E7E11227B017F
:1041C8007AC879557F267E11227B017AC879557F76
:1041D8002C7E112290C85E0225D57B407A007D8C0A
:1041E800E4FFFE2204F07F067E1022ECF0A3EDF03F
:1041F800A3227B017AC8795522F5827583001222A1
:1042080088FD22C433333354802290C8530225D505
:104218007B017AC87968222400FFEC3EF0A3EFF016
:104228002290C8530225D590C870F0A3E4F07D20F1
:1042380022EFF07E007B012290C8611225F5786D8F
:104248007CC87AE179DF7F20123882123A20FF7E1B
:104258000060046401700D1239F590000D74017549
:10426800F051801AEF64044E6009EF64054E600354
:1042780002440E1239F590000D740175F090122465
:104288003490C8671237681239F4123BFD123A208D
:104298001239F4900004123C041239751239F49062
:1042A8000005123C041239A11239F4900006123CA0
:1042B800041237681239F4123AFA74011222B590CE
:1042C800C86BE02401FF90C86AE03400FE90C8641F
:1042D800123808123AA090C86CE0540F123B16909E
:1042E8000006122288122687430904432906433A06
:1042F8000843790A43A60C43C30E43DE100000446A
:10430800057B017AC8796D1238E07410F07F1CFEC5
:1043180012BEAA1237D875F00812460D75F008803B
:104328004A1245AF75F02012460D12383B75F02041
:10433800803912453175F080123BA01239F4900093
:1043480009123AA07B017AC8796D1238E07410F02E
:104358007F40FE12BEAA1237D812383B75F0209063
:10436800C87A1238511239FB75F080123BA002430B
:10437800FF12453175F08090C87E123A014CFC90CE
:10438800C880E025E012440F75F08090C87E123C8A
:10439800614CFC90C880E025E04CFEED8059124548
:1043A800AF75F02090C87A123C611239FB1237348D
:1043B80012440F1237344CFEED803C12466312371C
:1043C8003412395E1244A012373412395E4CFEEDB5
:1043D8001239F4123A9D12466312373412395E12BA
:1043E8003A6A3354801244A012373412395E123AB2
:1043F8006A3354804CFEED1239F4123A9D7BFF7AF1
:10440800DF7984124F40224CFEEDFF90C8641225DC
:10441800D5900009EE8FF01224347B017AC8796DAB
:1044280090CB92E4F0A37410F07F40FE12BEAA90E5
:10443800C870E025E0FFE433FE90C86EE0FDEEFCB6
:10444800EF4DFD90C872E075F004A4FFE5F04CFC58
:10445800EF4DFD90C874E075F008A4FFE5F04CFC42
:10446800EF4DFD90C876E075F010A4FFE5F04CFC28
:10447800EF4DFD90C878E075F020A4FFE5F04CFC06
:10448800EF4DFD90C87AE075F040A4FFE5F04CFCD4
:10449800EF4DFD90C87CE0224CFEEDFF90C8641201
:1044A80025D5900009EE8FF01224347B017AC87963
:1044B8006D90CB92E4F0A37410F07F40FE12BEAA78
:1044C80090C870E025E0FFE433FE90C86EE0FDEE92
:1044D800FCEF4DFD90C872E075F004A4FFE5F04CC8
:1044E800FCEF4DFD90C874E075F008A4FFE5F04CB2
:1044F800FCEF4DFD90C876E075F010A4FFE5F04C98
:10450800FCEF4DFD90C878E075F020A4FFE5F04C75
:10451800FCEF4DFD90C87AE075F040A4FFE5F04C43
:10452800FCEF4DFD90C87CE0227B017AC8796D9044
:10453800CB92E4F0A37410F07F1CFE12BEAA90C8C0
:1045480070E025E0FFE433FE90C86EE0FDEEFCEF7E
:104558004DFD90C872E075F004A4FFE5F04CFCEF47
:104568004DFD90C874E075F008A4FFE5F04CFCEF31
:104578004DFD90C876E075F010A4FFE5F04CFCEF17
:104588004DFD90C878E075F020A4FFE5F04CFCEFF5
:104598004DFD90C87AE075F040A4FFE5F04CFCEFC3
:1045A8004DFD90C87CE0227B017AC8796D90CB9252
:1045B800E4F0A37410F07F1CFE12BEAA90C870E04D
:1045C80025E0FFE433FE90C86EE0FDEEFCEF4DFD04
:1045D80090C872E075F004A4FFE5F04CFCEF4DFDC7
:1045E80090C874E075F008A4FFE5F04CFCEF4DFDB1
:1045F80090C876E075F010A4FFE5F04CFCEF4DFD97
:1046080090C878E022A4FFE5F04CFEEF4DFF90C87B
:10461800641225D5900009EE8FF01224347B017ABC
:10462800C8796D90CB92E4F0A37410F07F40FE122D
:10463800BEAA90C870E025E0FFE433FE90C86EE0A3
:10464800FDEEFCEF4DFD90C872E075F004A4FFE5A7
:10465800F04CFCEF4DFD90C874E0227B017AC879DC
:104668006D90CB92E4F0A37410F07F1CFE12BEAAEA
:1046780090C870E025E0FFE433FE90C86EE0FDEEE0
:10468800FCEF4DFD90C872E075F004A4FFE5F04C16
:10469800FCEF4DFD90C874E075F008A4FFE5F04C00
:1046A800FCEF4DFD90C876E075F010A4FFE5F04CE6
:1046B800FCEF4DFD90C878E075F020A4FFE5F04CC4
:1046C800FCEF4DFD90C87AE075F040A4FFE5F04C92
:1046D800FCEF4DFD90C87CE02290C86D1225F5785E
:1046E800737CC87ADB797A7E0012326C90C86D12BE
:1046F8003263FF7E0060046401700812364775F06B
:10470800518015EF64044E6009EF64054E600302A2
:10471800488112364775F09012243490C86D1232D1
:104728006390C87012360690C86D12342012228821
:1047380090C870123524EF1222C790C86D12335DED
:1047480090C87012346E90C86D123525122288FFF9
:1047580090C8701233D5123417122687477D044744
:104768009D0647AE0847EE0A481C0C48390E4851CA
:1047780010000048787B017AC879731233BB741033
:10478800F07F9AFE12BEAA12322C75F008124A80E7
:1047980075F008804B124A2275F020124A801232B6
:1047A8009075F020803A1249A475F0801235E8FF20
:1047B80090C87012342012360E7B017AC8797312B1
:1047C80033BB7410F07FAAFE12BEAA12322C12322A
:1047D8009075F02090C8801232A612340375F080CC
:1047E8001235E80248721249A475F08090C8841204
:1047F80034094CFC90C886E025E012488275F080A8
:1048080090C88412368A4CFC90C886E025E01233A2
:10481800A412360E124A2275F02090C88012368AE9
:104828001234031231B41248821231B44CFEED80B6
:1048380039124AD61231B41233661249131231B4FE
:104848001233661233A412360E124AD61231B4123B
:1048580033661234803354801249131231B4123340
:10486800661234803354804CFEED1233A712360E94
:104878007BFF7AD57973124F40224CFEEDFF90C82A
:10488800701225D5900004EE8FF01224347B017A43
:10489800C8797390CB92E4F0A37410F07FAAFE124B
:1048A800BEAA90C876E025E0FFE433FE90C874E025
:1048B800FDEEFCEF4DFD90C878E075F004A4FFE52F
:1048C800F04CFCEF4DFD90C87AE075F008A4FFE5C8
:1048D800F04CFCEF4DFD90C87CE075F010A4FFE5AE
:1048E800F04CFCEF4DFD90C87EE075F020A4FFE58C
:1048F800F04CFCEF4DFD90C880E075F040A4FFE55A
:10490800F04CFCEF4DFD90C882E0224CFEEDFF908C
:10491800C8701225D5900004EE8FF01224347B0164
:104928007AC8797390CB92E4F0A37410F07FAAFE52
:1049380012BEAA90C876E025E0FFE433FE90C87462
:10494800E0FDEEFCEF4DFD90C878E075F004A4FFA3
:10495800E5F04CFCEF4DFD90C87AE075F008A4FF37
:10496800E5F04CFCEF4DFD90C87CE075F010A4FF1D
:10497800E5F04CFCEF4DFD90C87EE075F020A4FFFB
:10498800E5F04CFCEF4DFD90C880E075F040A4FFC9
:10499800E5F04CFCEF4DFD90C882E0227B017AC81F
:1049A800797390CB92E4F0A37410F07F9AFE12BE54
:1049B800AA90C876E025E0FFE433FE90C874E0FDD5
:1049C800EEFCEF4DFD90C878E075F004A4FFE5F02B
:1049D8004CFCEF4DFD90C87AE075F008A4FFE5F0B7
:1049E8004CFCEF4DFD90C87CE075F010A4FFE5F09D
:1049F8004CFCEF4DFD90C87EE075F020A4FFE5F07B
:104A08004CFCEF4DFD90C880E075F040A4FFE5F048
:104A18004CFCEF4DFD90C882E0227B017AC8797387
:104A280090CB92E4F0A37410F07F9AFE12BEAA9085
:104A3800C876E025E0FFE433FE90C874E0FDEEFCA4
:104A4800EF4DFD90C878E075F004A4FFE5F04CFC4C
:104A5800EF4DFD90C87AE075F008A4FFE5F04CFC36
:104A6800EF4DFD90C87CE075F010A4FFE5F04CFC1C
:104A7800EF4DFD90C87EE022A4FFE5F04CFEEF4D1F
:104A8800FF90C8701225D5900004EE8FF0122434E0
:104A98007B017AC8797390CB92E4F0A37410F07F0D
:104AA800AAFE12BEAA90C876E025E0FFE433FE9085
:104AB800C874E0FDEEFCEF4DFD90C878E075F00499
:104AC800A4FFE5F04CFCEF4DFD90C87AE0227B0195
:104AD8007AC8797390CB92E4F0A37410F07F9AFEB1
:104AE80012BEAA90C876E025E0FFE433FE90C874B1
:104AF800E0FDEEFCEF4DFD90C878E075F004A4FFF2
:104B0800E5F04CFCEF4DFD90C87AE075F008A4FF85
:104B1800E5F04CFCEF4DFD90C87CE075F010A4FF6B
:104B2800E5F04CFCEF4DFD90C87EE075F020A4FF49
:104B3800E5F04CFCEF4DFD90C880E075F040A4FF17
:104B4800E5F04CFCEF4DFD90C882E02290C8611260
:104B580025F578647CC87AE2796B7F8D123A1778EC
:104B6800F17CC87AE279F87F11123A1778027CC989
:104B78007AE379091238FC78337CC97AE3793A12F6
:104B880038FCE490C964123954123957786C7CC9DE
:104B98007AE3796B7F28123A7F78947CC97D017B10
:104BA800FF7AE379937E007F0A122249E490C99E36
:104BB800F0A3F078A07CC97AE3799D7F30123B623C
:104BC80078D07CC97D017BFF7AE379CD7E017F189F
:104BD800122249123972FFC3940274809480400DE6
:104BE800EF64046008EF64056003024CDE90000B7C
:104BF8001239ED9000091223DDFDACF0EC5EFEEDFC
:104C08005F90C964123CC790000B1223DDF4FFE5E6
:104C1800F0F45CFEEF5DFF90C966EEF0A3EFF0E400
:104C2800A3F090C968E0123B06504DE01239D080DD
:104C380005C333CE33CED8F990C964123C7F8005C2
:104C4800CEC313CE13D8F94E602990C969E075F028
:104C580003A42402F974C935F0FA7B01C002C0012B
:104C68001238B47403F0D001D00212AF8C90C96925
:104C7800E004F0123CD480AAE490C968F090C968B6
:104C8800E0123B064003024DBCE01239D08005C358
:104C980033CE33CED8F990C966123C7F8005CEC397
:104CA80013CE13D8F94E602990C96AE075F003A4B1
:104CB8002433F974C935F0FA7B01C002C0011238F7
:104CC800B47403F0D001D00212AF8C90C96AE0042A
:104CD800F0123CD480A7E490C968F090C968123BF0
:104CE800594003024DBC90C861123A61FD7C0090A6
:104CF800C968E0FB7E007401A803088005C333CEB1
:104D080033CED8F9FFEE5CFEEF5DA80308800312EE
:104D18003BCBD8FB4E7003024DB67BFF7AE0790996
:104D280090CB871225F51239726402700C1239D9AA
:104D38007C007D0A1222E9800990C8611225D512EB
:104D480039D990CB8AEEF0A3EFF07B017AC9799438
:104D5800124F3A7B017AC9799412D28490C99EEF96
:104D6800F0A3123C8AC002C0011238B47403F0D018
:104D780001D00212AF8C90C99FE02403F0123C8A44
:104D8800C002C0017AC9799490CB871225F590C9E1
:104D98009EE0FF1238CAEFF0D001D00212AF8C901B
:104DA800C99EE0FFA3E02FF090C96BE004F0123C2D
:104DB800D4024CE390C8611237687AC979D0123AA4
:104DC800CF748CF012B6227B017AC979D61238C416
:104DD8007410F07AC879F112AF8C7BFF7AE0790F02
:104DE80090CB871225F57AE0791190CB8A1225F5B8
:104DF8007B017AC879F11293B490C964E07002A378
:104E0800E0602490C966E07002A3E0601A7AE07955
:104E18001212379F7AC97902A31225F590CB8F1207
:104E28003AEB90CB92807890C964E07002A3E0607E
:104E38001E90C966E07002A3E070147AE07933121C
:104E4800379F7AC97902A3123AEF90CB8F8050909E
:104E5800C964E07002A3E0701C90C966E07002A308
:104E6800E060127BFF7AE0794F1237A1A3123AEB88
:104E780090CB8F802A90C861123A617BFF60147AC8
:104E8800E0796B1237A17AC9796CA3123AEF90CB0B
:104E98008F800C7AE079851237A17AC879F1A3124C
:104EA80025F57AC87964124F3A90C8611238081209
:104EB80039ED7C007D461222E9EF24BAFFEE344F2B
:104EC8007AC87964123860742BF002A850E5082477
:104ED80087F582E434CBF583E005082290CB843053
:104EE800070390CB87E475F0011225DE02226F20BC
:104EF80000E97F2ED2008018EF540F2490D434405C
:104F0800D4FF30040BEF24BFB41A0050032461FF10
:104F1800E50960021509050CE50C7002050B300760
:104F28000E90CB84E475F0011225DEEF0222B50263
:104F3800D3797403D2078003E4C207F50890CB84C1
:104F48001225F5E4F509F50BF50CE50960077F2056
:104F5800124F1880F5750AFFC201C200C202C203CF
:104F6800C205C206C208124EE4FF700D3007057F65
:104F780000124F29AF0CAE0B22B4255FC2D5C20474
:104F8800124EE4FF24D0B40A00501A75F00A7809CA
:104F980030D50508B6FF0106C6A426F620D504704C
:104FA80002D20380D924CFB41A00EF5004C2E5D24C
:104FB8000402512AD20180C6D20080C0D20280BC2D
:104FC800D2D580BAD20580B47F20124F18200207AC
:104FD8007401B5090040F1124ED5FF124F18024F67
:104FE80052D208D2068095124ED5FB124ED5FA122F
:104FF8004ED5F94A4B700679FB7A517BFF20022E79
:10500800E509602A7E008E82758300122288600678
:105018000EEE650A70F0C2D5EBC0E0EAC0E0E9C068
:10502800E0EE125171D0E0F9D0E0FAD0E0FB1222A4
:105038006FFF60AAEBC0E0EAC0E0E9C0E0124F18D9
:10504800D0E02401F9D0E03400FAD0E0FBE50A040E
:1050580060DCD50AD980877BFF7A51796DD20280CE
:105068009C791080027908C206C2088008D2D579D6
:105078000A8004790AC2D5E50A047002F50AE4FA3E
:10508800FDFEFF124ED5FC7B08200113124ED5FD04
:105098007B1030000A124ED5FE124ED5FF7B20EC55
:1050A8003382D592D55013C3E43000069FFFE49EA7
:1050B800FEE42001039DFDE49CFCE4CBF8C201EC76
:1050C800700CCFCECDCCE824F8F870F38017C3EF7E
:1050D80033FFEE33FEED33FDEC33FCEB33FB99404D
:1050E80002FB0FD8E9EB300105F8D0E0C448B20163
:1050F800C0E00AEC4D4E4F78207B0070C2EAB50A3A
:105108000040BCC0E0125173D0F0D0E0200104C4CC
:10511800C0E0C4B201C0F0124F01D0F0D5F0EB02EC
:105128004F521226874FEF535069584FC04C4FBC0F
:1051380042506D4F5075445075494FD543507B557B
:10514800505F46505F45505F47521B504FC42D4F2C
:10515800C82E4FEB2B4FCC234FE92052042A4F8403
:105168004800004FE33F3F3F00790AA2D5200314CF
:10517800300509B910020404B9080104A2D52006B3
:10518800025001042002689202B509005034C0E0C0
:105198007F203003197F30A20272067205500F1269
:1051A80051CAC202C206C205C2087F30800F30054C
:1051B80003E9C0E0124F18300503D0E0F9D0E0B59C
:1051C80009CC3005177F30B9100C124F187F5830B2
:1051D80004077F788003B90803124F183002057F4F
:1051E8002D024F187F202008F87F2B2006F32292EB
:1051F8000280CF286E756C6C2900D201124ED53012
:1052080001F8C201780930D50108F6024F842D5003
:10521800434958124ED52403B405004001E4905286
:105228001693124F09743A124F09D20375090402F2
:10523800506990C85B1225F590C85EEDF0E490C8FF
:1052480060123D7378667CC87AE97937123F5790C7
:10525800C85FE014601514601E14601B24037021DD
:1052680090C8637420F0A314F0801690C86374206B
:10527800F0A37431F0800A90C863741BF0A3741013
:10528800F090C863E0FEA3E0FF12C76DEF7D00FC5D
:10529800C005C0041254C2D0E04EFED0E090C866EB
:1052A80012547AEF7D00FCC005C0041254C2D0E04D
:1052B8004EFED0E090C86812547AEF7D00FCC0051D
:1052C800C0041254D3D0E04EFED0E090C86A125405
:1052D80092EF7D00FCC005C0041254D3D0E04EFE0E
:1052E800D0E090C86C125492EF7D00FCC005C00459
:1052F8001254E4D0E04EFED0E090C86E1254AAEFEB
:105308007D00FCC005C0041254E4D0E04EFED0E09D
:1053180090C8701254AAEF7D00FCC005C004125456
:10532800F5D0E04EFED0E090C8721241A81254F5B4
:10533800EF7D00FCC005C00490C863E475F001125D
:105348002386AFF0FE12C76DD0E04EFED0E090C8C5
:10535800741241A890C85B123D1F640590C8607024
:10536800117434F090C8627482F090C86174B5F01A
:10537800800F7430F090C8627462F090C8617491C4
:10538800F090C85E1240CA12BDAE123D0D90C860C2
:10539800E0FD7C0012D0FEE490C865F090C85B1276
:1053A8003E62FF90C865E0FEC39F400302545590DB
:1053B800C860E02401FDE433FCEE123DF9123D150E
:1053C80090C866123DE41255062402123DF1123DC2
:1053D8001590C868123DE41255062403123DF112D7
:1053E8003D1590C86A123DE412550E2404123DF191
:1053F800123D1590C86C123DE412550E2405123D5D
:10540800F1123D1590C86E123DE41255162406128D
:105418003DF1123D1590C870123DE412551624074F
:10542800123DF1123D1590C872123DE412D0FE9063
:10543800C860E02408123DF1123D1590C874123D71
:10544800E412D0FE90C865E004F00253A4123D15A2
:1054580090C861123DD612D0FE90C85B123DB19043
:10546800C860123FF190C862E090C8C2123E2202A2
:10547800C93C4FFFEEF0A3EFF090C863E475F0016C
:10548800122386AFF0FE12C76D224FFFEEF0A3EF96
:10549800F090C863E475F001122386AFF0FE12C7DE
:1054A8006D224FFFEEF0A3EFF090C863E475F001B2
:1054B800122386AFF0FE12C76D2290C863E475F020
:1054C80001122386AFF0FE12C76D2290C863E475FF
:1054D800F001122386AFF0FE12C76D2290C863E474
:1054E80075F001122386AFF0FE12C76D2290C863D3
:1054F800E475F001122386AFF0FE12C76D2212D0B8
:10550800FE90C860E02212D0FE90C860E02212D05F
:10551800FE90C860E02290C85B1225F57411FFFE6A
:1055280012C76DEF7807C333CE33CED8F9FFEE44F8
:1055380088FEC007C0067F107E1112C76DEF78067F
:10554800C333CE33CED8F9FDD0E04EFED0E04DFFC8
:10555800C007C0067F0E7E111257D7D0E04CFCD092
:10556800E04DFDC005C0047F417E2012C76DD0E02C
:105578004EFED0E0123D0B7D177C0012D0FE7F421C
:105588007E2012C76D123D0D7D187C0012D0FE7F63
:10559800437E2012C76D123D0D7D197C0012D0FE8E
:1055A8007F447E2012C76D123D0D7D1A7C0012D0FB
:1055B800FE7F457E2012C76D123D0D7D1B7C0012BB
:1055C800D0FE123D15123DDA7D1C7C0012D0FE7F04
:1055D800477E2012C76DEF7F00FEC007C0060F7E12
:1055E8001712C76DEF12420BFCD0E04CFED0E0FF63
:1055F800C007C0067F007E1712C76DEF7807C33358
:10560800CE33CED8F9FDD0E04EFCD0E04DFDC0053C
:10561800C0047F467E2012C76DD0E04EFED0E01257
:105628003D0B7D1D7C0012D0FE7FFE1257B47F001B
:10563800C4333354C0FEC007C0067FFF1257B412EC
:10564800420BFCD0E04CFED0E0FFC007C0067FFD57
:105658001257BBC43354E0FCD0E04CFED0E0FFC08E
:1056680007C0067FFC1257BBC454F0FCD0E04CFEC8
:10567800D0E0FFC007C0067FFB1257C23333335454
:10568800F8FCD0E04CFED0E0FFC007C0067FFA125D
:1056980057C225E025E0FCD0E04CFED0E0FFC00773
:1056A800C0067FF91257C925E0FCD0E04CFED0E0D7
:1056B800FFC007C0067FF81257C9FCD0E04CFED0E7
:1056C800E0FFC007C0067FF71257D07807C333CE74
:1056D80033CED8F9FDD0E04EFED0E04DFFC007C074
:1056E800067FF61257D07806C333CE33CED8F9FDED
:1056F800D0E04EFED0E04DFFC007C0067FF5125740
:10570800E97805C333CE33CED8F9FDD0E04EFED0CC
:10571800E04DFFC007C0067FF47E101257D7D0E0D7
:105728004CFED0E04DFFC007C0067FF31257E97862
:1057380003C333CE33CED8F9FDD0E04EFED0E04DD2
:10574800FFC007C0067FF27E1012C76DEF7802C354
:1057580033CE33CED8F9FDD0E04EFED0E04DFFC0B9
:1057680007C0067FF17E1012C76DEF25E0FDEE330E
:10577800FCD0E04CFCD0E04DFDC005C0047FF07EBD
:105788001012C76DD0E04EFED0E0123D0B7D1E7C9E
:105798000012D0FE90C85B123F36FD7410123DA86F
:1057A8007417F0A37408123E2202C93C7E1012C777
:1057B8006DEF227E1012C76DEF227E1012C76DEFBB
:1057C800227E1012C76DEF227E1012C76DEF2212D3
:1057D800C76DEFC4F8540FC868FDEEC454F048FC18
:1057E800227E1012C76DEF22E490C853F078547CE3
:1057F800C87ADE79D31233DF785C7CC87ADE79DB4D
:1058080012328578607CC87D017BFF7ADE79DF7E85
:10581800007F03122249E490C863F07B017AC879BB
:105828005412D35290C854E0FF90C85CE4F0A3EF40
:10583800F090C855E090C85EF090C856E090C85FF8
:10584800F090C857E0FFD39400748094804005EF2F
:1058580014FF80027F0690C863EFF090C858E0906C
:10586800C860F090C859E090C861F090C85AE0FF4D
:1058780090C862F0909410E06F7003025A8A90C842
:1058880062E0909410F0E490C853F090C853123539
:105898003F4003025A8A1233987003025A8190C813
:1058A80053E09094691234456003025945EF12336E
:1058B8002390C8631236218005C333CE33CED8F97E
:1058C8001237088003123549D8FB64014E60030281
:1058D8005A8190C853E0909461123427FE90C860B2
:1058E800E06E6003025A81909462123444FF90C8BB
:1058F80061E06F6003025A81A3E06003025A8112DB
:1059080033461235D38005C333CE33CED8F990C889
:10591800531235F18003123549D8FB4E6003025A01
:10592800817BFF7ADA79BD124F40123346C083C0BB
:105938008212366E8002C333D8FC025A7B90C85359
:10594800E0909459123427FCA3E0FD90C85CE0FA7B
:10595800A3E0FBD3ED9BEC9A4003025A8190945B41
:1059680012357DFF90C85EE0FEEFD39E4003025AD9
:105978008190C853E0FF90945C12357EFD90C85F1B
:10598800E0FCEDD39C4003025A8190945D12357D72
:10599800FAA3E0FB90C85CE0F8A3E0F582C3EB95BE
:1059A80082EA985003025A8190C853E090945F129B
:1059B8003676C39E5003025A8175F026EF909460A4
:1059C8001225C9E0C39C5003025A8190C853E0FDD8
:1059D800123323FB7A0090C863E0FC7E007401A8B0
:1059E80004088005C333CE33CED8F9FFEE5AFEEF54
:1059F8005BA804088003123549D8FB64014E70790E
:105A080075F026ED9094611225C9E0FF90C860E01A
:105A18006F706690C853E0FD909462123676FF90DE
:105A2800C861E06F7053A3E0704F90C853E0FF1354
:105A38001313541FFC123350E0FB7A001235D78041
:105A480005C333CE33CED8F9FFEE5AFEEF5BA80577
:105A5800088003123549D8FB4E701E90C853E0FFEA
:105A680074412C123352C083C08212366E8002C336
:105A780033D8FC4ED082D083F090C853E004F002B3
:105A880058932290C8531225F590C85C12395312C6
:105A98003B3E12D43190C85CE07004A3E06401601E
:105AA80003025B4512397E64316003025B4590C88E
:105AB80059123768FF90C8561225D5123BFD12D2ED
:105AC800C190C856123808123B74125C19125CF067
:105AD800123765123A2CC083C082123A0C8002C376
:105AE80033D8FC4ED082D083F0123765123BD212E5
:105AF80038A9E92DF9EC3AFAC003C002C001122214
:105B08006F123A0D8002C333D8FC4ED001D002D0B8
:105B180003123762125D01123765123AB9F090C864
:105B2800561238081239EDC39405EE940040061257
:105B38003B7A025C13123CDBE0FF025C1390C85C0A
:105B4800E07004A3E06402701412397E6431700DB1
:105B5800123B3E12C175E490C0CB025C0D90C85C4C
:105B6800E07004A3E06401707812397E64517071AA
:105B7800123765123A2CC083C082123A0C8002C3D5
:105B880033D8FC4ED082D083F0123765123BD21244
:105B980038A9E92DF9EC3AFAC003C002C001122273
:105BA8006F123A0D8002C333D8FC4ED001D002D018
:105BB80003123762125D01125C19125CF01237652C
:105BC800123AB9F090C8561238081239EDC3940544
:105BD800EE94004005123B7A8005123CDBE0FF8022
:105BE8002A90C85CE07004A3E06402702312397E36
:105BF8006451701C123B3E12C175E490C0CBF01288
:105C08003765123AB9F090C036E0FF7E0012BC53F7
:105C18002290C8561225D59000021223DDFFAEF05F
:105C28007C007D181222E974CC2FF974C03EFA7BEF
:105C38000190C8641225F590C8591225D590C867F7
:105C48001225F590C8561225D59000021223DDFFC3
:105C580090C86AE5F0F0A3EFF09000071222889050
:105C6800C86CF090C8531225D512424090C85612FD
:105C780025D59000021223DDFFAEF07C007D1812BE
:105C880022E974CC2FF974C03EFA7B0190C86412E3
:105C980025F590C8591225D590C8671225F590C8E2
:105CA800561225D59000021223DDFF90C86AE5F050
:105CB800F0A3EFF090000712228890C86CF090C80B
:105CC800531225D512708890C8561225D590000217
:105CD8001223DDFFAEF07C007D181222E974CC2F70
:105CE800F974C03EFA7B0122124B547B017AC879C1
:105CF8005C7F2E7E1012C175222400FFE43412FE50
:105D08007D017C0012C7A92212CA5978F37CC67D8E
:105D1800017BFF7AEB799D7E017F18122249780B6F
:105D28007CC87AEC79B57F2212CA50782D7CC87A63
:105D3800EC79D77F2612CA5012C73112CF90E4905F
:105D4800C857F0FF7E4BFDFC12CFF27B017AB37986
:105D58009E12C6B412A4AF12CD0312CA5912CA4871
:105D6800FFC39440EE94004003025E377C007D8CB4
:105D78001222E97AC679F312CA6B748CF012B62231
:105D880012CA48FF7C007D221222E9EEC313FEEFFF
:105D9800132400FFEE3423FE7AC8790B12CA6B7401
:105DA80011F012B62290C6F3E06401704A12CA4894
:105DB8007803C333CE33CED8F92420FFEE3431FE36
:105DC8007B017AC679F990CB92E4F0A37408F012BB
:105DD800A8507B017AC679F390C6F1A3E0FD12843E
:105DE800B67B017AAE799A90C6F7E0FD90C6F4E0EA
:105DF80090C862F012C85B90C80BE06401702A1268
:105E0800CA487805C333CE33CED8F92400FFEE3420
:105E180041125F7A12CA487803C333CE33CED8F919
:105E28002420FFEE3433125F7A12CA61025D657B6B
:105E3800017AAE799A7F147E0012BB457B017A9471
:105E4800795990CB8B7409F0A37480F07F407EE77A
:105E58007D007C0012B62212CA5912CA48FFC394A8
:105E680080EE9400503590946475F026EF1225C9A1
:105E7800EE75F026A42583F583E06401701890C6BA
:105E8800F1A37C007D261222E974592FF974943EFF
:105E9800FA7B01122A4612CA6180BF7DFF7C007F0F
:105EA800017E1012C7A97B017AAB79C990CB92E425
:105EB800F0A37406F07F107E3112A8507BFF7AEBB6
:105EC8007987124F4012CB1612A30C12A94E125703
:105ED800F0D390CFB3E0946490CFB2E09400400D3B
:105EE800E4F0A3F090CFC6E004F012993890CFC642
:105EF800E0D39402748094804024E4F0A3E004F09A
:105F080012CA7512D1B412CA7512BF4E1290061277
:105F18007C8312CBD3129C8212BA8D12B49F90CF7D
:105F2800C7E0D39402748094804005E4F012D070E6
:105F380012CA7512D1CC12A6CA7B017AC679CF12C1
:105F4800972A7B017AC679CF128DC712CC2E12AC54
:105F58001F12859A12ABAC12D0C612D0E212CEE84C
:105F680012B18C12875F12A1EE1200861289E2022A
:105F78005ECDFE7B017AC8790F90CB92E4F0A374D2
:105F880008F012A8502290C8561225F5E490C85976
:105F9800123D7178607CC87AE97993123E7B786803
:105FA8007CC87AE9799B7F081240D3E490C859F0FD
:105FB80090C859E0FDFF7E00C3940474809480501B
:105FC80062EF25E0FFEE124120E0FE123FFCE0FD0B
:105FD800EF6D7001EE60447BFF7AE67914124F4052
:105FE80090C859E0FD25E0FFE4124120123FFCEF84
:105FF800F090C856123D1F640290C859700AE0FD1F
:106008002400FFE434118008E0FD2413FFE4341079
:10601800FE123FFFE0FD7C0012C7A990C859E004BA
:10602800F0808D12002EEF64114E600C12002EEFDE
:1060380064124E60030261F2124218123E74124159
:106048003712BEAA90C868E0700302610D124218A8
:106058007F087E0012BB4590C86CE0FEA3E07C0080
:1060680090C85C12421F90C86AE0FEA3E090C85E28
:1060780012421F90C869E06403701390A770E07023
:106088000D04F0E4A3F07BFF7AE67934803890C8F9
:1060980069E06402701690A770E06401700E7403E2
:1060A800F0E4A3F07BFF7AE6794B801A90C869E0A8
:1060B8006402701590A770E0700FA3E0700B04F0F5
:1060C8007BFF7AE67962124F40E490C868123D730C
:1060D80012421890CB92F0A312413712A8507BFFBE
:1060E8007AE6797790C85EE0FFA3E090CB87CFF09F
:1060F800A3EFF090C85CE0FFA3E090CB89CFF0A3BA
:10610800EFF0124F40123D15123DDA7D1B7C001254
:10611800D0FE90C856123D1F64027B017AC8796090
:1061280090CB92700BF0A37404F07F007E11800A6C
:10613800E4F0A37404F07F137E1012BEAA123D157A
:10614800123DC27D167C0012D0FE123D1590C8612A
:10615800123EA1EFF07D177C0012D0FE123D159083
:10616800C863123EA1EFF07D187C0012D0FE123DEC
:106178001590C865123EA1EFF07D197C0012D0FE83
:10618800123D1590C867123EA1EFF07D1A7C0012EF
:10619800D0FE123D2890C85CE0FEA3E0FFD3940631
:1061A800EE94014027EF9426EE9402501F90A770BA
:1061B800E064036006A3E0640170117BFF7AE6796E
:1061C800A0124F4090A76F740112418B90A76FE007
:1061D8006401701DF090C856123DB1123E1812C9E4
:1061E8003C7BFF7AE679AE024F40E490A770F0A3BB
:1061F800F02290C8551225F5E490C858123D7390C6
:10620800CB9212407904F07F097E1012BEAA90C882
:1062180058E07004A3E06401704390C858F0A3F0FC
:1062280090CB9212407904F07F097E1012A8507B1F
:10623800FF7AE5795C124F401241E212C2A190AE9A
:106248008BEFF07B017AAB79C9123D9512402F1282
:10625800A8507D047C007F007E1012C7A97F057EB0
:10626800001200037AC8795A123E721241EC12BE2B
:10627800AA90C85AE0FEA3E0FF64044E6033EF64BE
:10628800064E602DEF64084E6027EF640A4E6021C9
:10629800EF640C4E601BEF640E4E6015EF64104EF9
:1062A800600FEF64144E6009EF64244E60030263CC
:1062B8009CE41263BE123D951241EC12A8501240A4
:1062C800437F147E0012BB457B017AC8795C123E7D
:1062D8007404F07F007E2012BEAA12404390C85C6E
:1062E800A3E0FD12CCDAEF60177F1F12ADDF7BFF52
:1062F8007AE5796E124F407BFF7AE57986024F4046
:1063080012413F90AC1DA3E090C862123FF512A75E
:106318004E90C855123F36FD90AE8BE090C862F0A3
:1063280012404312C85B90AE8BE075F08CA4FFAEB0
:10633800F0E4FCFD90C8551225D590C86E12413086
:1063480012BD0290AE8B123F6F90C855123EF012EC
:106358003D957408F012A85012413F1284B67BFF95
:106368007AE579A9124F4090AE8BE0FF1240554074
:106378000EEF75F005842457FF90CFB1F080089098
:10638800CFB17402F0E0FF7E0012BC53E490AC1D64
:10639800F0A3F02290C85AE07003A3E0F47016123C
:1063A80063BE123D951241EC12A85090CFB1E0FFA8
:1063B8007E0012BC532290C85AF0A3F07F01FE124F
:1063C80000037B017AC8795A2290C8561225F5E451
:1063D80090C859F0A3F0A3F0785C7CC87D017BFFDE
:1063E8007AE97947FE7F3C12224978987CC87AE995
:1063F80079837F10123E561241B012D43190AF9C6F
:10640800E0FEA3E0FF908041E06E7003A3E06F60C0
:10641800597BFF7AE579F2124F40908041E0FFA363
:10642800E0CF123F23E490C85BF090C85BE0FD1218
:1064380040685036908041E0FEA3E0A8050880053A
:10644800CEC313CE13D8F95401FFED124157E4F02F
:10645800A3EFF0ED90C85B123F7D123D9504F0125A
:10646800A85090C85BE004F080C0123F3FFF4E7018
:106478000302659BEF25E0FFEE33FE744E2FF58295
:1064880074AD3EF583E06401F07B017AAD794F7F0E
:10649800207E0012BB4590C859E0FCA3E0FD242FE4
:1064A800FFEC3410FEC006C007ED25E0FFEC33FE1C
:1064B800744D2FF974AD123D9104F0D007D0061237
:1064C800A85090C856123D1F600464017069123EBE
:1064D800656404700E123D15123F3F245BF582740B
:1064E800C88070123E5F6406700E123D15123F3F61
:1064F8002467F58274C8805B123E5F6408700E12D0
:106508003D15123F3F2473F58274C88046123E5FE2
:10651800640A700E123D15123F3F247FF58274C83D
:106528008031123E5F640C7038123D15123F3F24D3
:106538008BF58274C8801C90C856123D1FFF6404F6
:106548006005EF6405701A123D15123F3F2497F558
:106558008274C83EF583123EA1EFF0E4FDFC12D030
:10656800FE123D15123DDA7D017C0012D0FE90C866
:1065780056123DB1E4A3F0A3F0A37402123E221216
:10658800C93C123F1A908041EEF0A3EFF01241B0DF
:1065980012C1752290C8CB1225F5E490C8CEF0A39D
:1065A800F090C8D3F0A3F0A3F0A3F0FFFEA3F0A3EC
:1065B800F012B60890000312228890C8D7F0900015
:1065C8000B1225FE90C8D01225F512B60890000EC1
:1065D8001223DD90C8D512B5F390001012B5EDA3C3
:1065E800E0FF12B5CBEF1222B590C8D512B5C29014
:1065F8000001EF1222C790C8D312B5C3900002EF72
:106608001222C790C8D312B5C290000312B5FB90EE
:10661800C8D6E02FFF90C8D5E03EFE12B60890001D
:10662800091223DDFDD3EF9DEE95F07F0050027F28
:106638000190C8D8EFF0E490C8CEF0A3F090000124
:1066480012228824FA601624F66072240D60030270
:10665800673F90C8D8E0700302673F805512B608BC
:106668009000091223DDFF90C8D5E0FCA3E0FDC32C
:106678009FEC95F0400302673FED25E0FFEC33FE09
:1066880090C8D01225D58F828E8312B5ED90C8D3CD
:10669800E0FCA3E0FDEC12B5C4900004EF1222C7A1
:1066A800AF0512B5C590000512B5FB12B608EE127B
:1066B800B60E90C8CEE4F0A37406F0807A90C8D8DD
:1066C800E0607412B5FF25E0FD12B5C5900004ED39
:1066D8001222C7EF25E0FFEE33FEEF2407FFE43E6A
:1066E80090C8CEF0A3EFF090C8D7E0704A12B5C5B5
:1066F800E92405F9E43AFAC003C002C00190C8D6FB
:10670800E025E0FF90C8D5E033FE90C8D01225D52B
:10671800E92FF9EA3EFA90C8DC1225F590C8D3E0D3
:10672800FFA3E090C8DFCFF0A3EFF0E4A3F0D0011F
:10673800D002D00312AABF90C8CE74FF75F0FE1223
:10674800238690C8CEE0FEA3E0FF22E490C855F06F
:10675800A3F07F211268F67004A3E06401600302CD
:106768006822123D15123DC27D167C0012D0FE1221
:106778003D15123EA37464F07D177C0012D0FE1202
:106788003D15123EA37464F07D187C0012D0FE12F1
:106798003D15123EA37464F07D197C0012D0FE12E0
:1067A8003D15123EA37464F07D1A7C0012D0FE12CF
:1067B8003D15123DDA7D1B7C0012D0FE123D15E41A
:1067C800123DC47D1CFC12D0FE123D15E4123DC4DE
:1067D8007D1DFC12D0FE123D15E4123DC47D1EFC49
:1067E80012D0FE123D15123DC27D1F7C0012D0FE54
:1067F800123D15123DC27D207C0012D0FE123D15BF
:10680800123DDA7D217C0012D0FE123E23123DBBE0
:106818001268DF7F217E1B12C1757F221268F67015
:1068280004A3E0640160030268DE123D15123DC254
:106838007D167C0012D0FE123D15E4123DC47D1772
:10684800FC12D0FE123D15E4123DC47D18FC12D096
:10685800FE123D15E4123DC47D19FC12D0FE123D16
:1068680015E4123DC47D1AFC12D0FE123D15123DEE
:10687800DA7D1B7C0012D0FE123D15E4123DC47D6A
:106888001CFC12D0FE123D15E4123DC47D1DFC1205
:10689800D0FE123D15E4123DC47D1EFC12D0FE123E
:1068A8003D15123DC27D1F7C0012D0FE123D15E43D
:1068B800123DC47D20FC12D0FE123D15123DDA7D3A
:1068C800217C0012D0FE123E23123DBB1268DF7FEE
:1068D800227E1B12C17522A3E4F0A37416F0A374E0
:1068E8000DF0E4FD12C93C7B017AC87955227B0181
:1068F8007AC879557E1B12D43190C855E02290C9C8
:106908005BEFF0A31225F5E490C962F0300A0302A8
:10691800699FF090C962E0C3940774809480500521
:10692800126B2580EE90C95C126AC4E92407F9E469
:106938003AFAC003C002C001126BA9D001D002D03C
:1069480003126A9D25E024049000021222C790C910
:106958005B126AE97004D2808008EF64054E700209
:10696800D281E490C962F0126AB590C962126B5282
:10697800500812BCAB126B4880ED90C95B126AE9F3
:106988007006200DFDC28022EF64054E6003026A86
:106998009C200EFDC28122E490C963126BF590C958
:1069A80062F090C962E0C394097480948050051223
:1069B8006B2580EE90C95C1225D5126BCEC003C042
:1069C80002C001126AB5126BECD001D002D00312DA
:1069D800BF9F126AAD126B94126AD690C965F0A374
:1069E800EFF090C963E06E7003A3E06F6003026A82
:1069F8009C90C95C126AC4E92407F9E43AFAC00316
:106A0800C002C001126BA9D001D002D003126A9D46
:106A180025E02406900002126BCBC003C002C0011F
:106A2800126AB5126BECD001D002D00312BF9F12CC
:106A38006AAD126C13EF1222C790C963E0FF126AA5
:106A4800BB126C13A3EF1222C790C95B126AE970DC
:106A580004D2808008EF64054E7002D281E490C9A8
:106A680062F0126AB52403FFE433FE90C962126B28
:106A780058500812BCAB126B4880E790C95B126A89
:106A8800E97006200DFDC28022EF64054E700520D6
:106A98000EFDC2812212BEAA90C95C1225D59000B3
:106AA800061222882290C963EEF0A3EFF090C95C29
:106AB8001225D590000202228890C95C1225D59033
:106AC8000004122288FE9000051222887C0024000F
:106AD800FFEC3EFE227D017BFF7E0012224990C919
:106AE8005BE0FF7E0064042290C8531225D590C84D
:106AF8005BE090C85A2403FFE034008F82F58302DC
:106B080022884FFF9000001225D5900000E475F010
:106B18000112239C85F082F583EF0222C790C95F9A
:106B28001225D590C962E0FFF5827583001222888C
:106B3800FE90C95C1225D58F82758300EE1222C79C
:106B480090C962E004F0229000002403FFE433FEC1
:106B5800E0C39FEE6480F874809822A201920A90A4
:106B6800C859E0FF90C8531225D590C85AE022E4CE
:106B780075F001022386E4FDFC1225807F007EC0AB
:106B88007D890C1224AAAC06AD07EC22FD7C00F529
:106B9800828C83A3A3122288FE8D828C83A3022277
:106BA8008890C95C1225D5900006122288FD90CBEA
:106BB80092ECF0A3EDF0227B0190C8561225F590D7
:106BC800C859221222C7E92403F9E43AFA229000AC
:106BD800001225D5900000E0227401F0C3EF94FF65
:106BE800EE94072224FEFDE434FFFC22E4F0A3F037
:106BF800A3F0A3F0227D017BFFFE022249F583E08A
:106C0800FD12BCBD90C95FE004F022F582758300D7
:106C1800A322FF9000001225D5900002EF22FEEC7F
:106C280034FF90CB92F0A3CEF02290C85B1225F5EA
:106C38007BFF7AE77901124F4090C85B123F36FD1F
:106C48007C007F007E2012C7A9123D1CFD90AC1D60
:106C5800E4F0A3EDF075F00DA424C9F974AB35F098
:106C6800123D9212402F12A85090C85B123E62FD4E
:106C78007C007F007E1012C7A990C85B123EF012FC
:106C88003D957408F07F00126DA5123F94123D9552
:106C98007480F07F08126DA5123E621226876CBFC1
:106CA800046CF8066D1F086D410A6D5B0C6D7D0E56
:106CB8006D901000006DA4123D22FF64046005EF82
:106CC800640570047F0A8037123D1C6004640170FB
:106CD800047F05802A123D1C640270047F3F800CEB
:106CE800123D1C64036003026DA47F40FE026DA187
:106CF800123D1CFF64046005EF640570077F0B7E7E
:106D080000026DA1123D1C600764016003026DA4BE
:106D18007F067E00026DA1123D1CFF64046005EF32
:106D2800640570067F0C7E00806F123D1C60046451
:106D38000170697F077E008060123D1CFF6404605B
:106D480005EF640570077F0D7E0012BC537F087E37
:106D5800008046123D1CFF64046005EF6405700660
:106D68007F0E7E008033123D1C60046401702D7F0D
:106D7800097E008024123D1CFF64046005EF640551
