:10000000029E3FE4FDFCC3ED9FEC9E5015E4FBFA1D
:100010000BBB00010ABA0BF8BBB8F50DBD00010C13
:1000200080E42202BDC5E59F0222A90273AFE490DD
:10003000C85DF0A3F07F14FE12C9EE90C85DEEF02B
:10004000A3EFF07F027E0012000390C85DE0FEA3E4
:10005000E0FF2202D6F253BEF7222202BBA243BE29
:02006000082274
:0600630002D6F8C2802263
:10006B0002C308EF75F046A42400FFE5F0345012EC
:10007B0032687446F002A8E702B5AC783A7CC87ACD
:10008B00ED797D123DD4E490C83E123EB57AC87925
:10009B003E7F0B7E1012D6DC90C83EE07004A3E0CE
:1000AB006401704690C840F090C840E0FFC3943D97
:1000BB0074809480500E123EDA12B85190C840E012
:1000CB0004F080E47B017AC8793E7F0A7E1012C669
:1000DB00D390C83E1240947AC8793A90CB79F0A36A
:0B00EB007402F07F047E0012A8E722E0
:1000F800FFFF4457494E543541CFAD0041CFAE00C4
:1001080041CFAF0041CF980042CF9B000042CFA122
:10011800000042CF94000044CF9D0001D4C042CFDC
:10012800960000C11042CF99000042CFA3000061A1
:1001380000CB9400C1814001C0804101C0804100D2
:10014800C1814001C0804100C1814000C18140019E
:10015800C0804101C0804100C1814000C18140018F
:10016800C0804100C1814001C0804101C080410080
:10017800C1814001C0804100C1814000C18140016E
:10018800C0804100C1814001C0804101C080410060
:10019800C1814000C1814001C0804101C08041004F
:1001A800C1814001C0804100C1814000C18140013E
:1001B800C0804101C0804100C1814000C18140012F
:1001C800C0804100C1814001C0804101C080410020
:1001D800C1814000C1814001C0804101C08041000F
:1001E800C1814001C0804100C1814000C1814001FE
:1001F800C0804100C1814001C0804101C0804100F0
:10020800C1814001C0804100C1814000C1814001DD
:10021800C0804101C0804100C1814000C1814001CE
:10022800C0804100C1814001C0804101C0804100BF
:10023800C181406100CC9400C0C101C30302C2C6A1
:100248000607C705C5C404CC0C0DCD0FCFCE0E0ACA
:10025800CACB0BC90908C8D81819D91BDBDA1A1E6A
:10026800DEDF1FDD1D1CDC14D4D515D71716D6D23A
:100278001213D311D1D010F03031F133F3F23236FA
:10028800F6F737F53534F43CFCFD3DFF3F3EFEFA0A
:100298003A3BFB39F9F83828E8E929EB2B2AEAEE4A
:1002A8002E2FEF2DEDEC2CE42425E527E7E626227A
:1002B800E2E323E12120E0A06061A163A3A26266DA
:1002C800A6A767A56564A46CACAD6DAF6F6EAEAA4A
:1002D8006A6BAB69A9A86878B8B979BB7B7ABABEEA
:1002E8007E7FBF7DBDBC7CB47475B577B7B67672BA
:1002F800B2B373B17170B0509091519353529296BA
:10030800565797559594549C5C5D9D5F9F9E5E5A89
:100318009A9B5B99595898884849894B8B8A4A4EC9
:100328008E8F4F8D4D4C8C448485458747468682F9
:100338004243834181804041CFB00241940A004248
:10034800940400004183EC00C10B41940D004294D9
:100358000600004183ED00C10C41940E0042940850
:1003680000004183EE00C10D41940F0042940B0040
:10037800004183EF00C10EC10FC109C10A4383E9DF
:10038800FFEF6C42A775000441AE9E0041AC180017
:1003980041A7740041AC210042AD84000041AC1774
:1003A8000042AC33000042AD8222B86118A7770141
:1003B8000200000104B7BFBCE431000000000000E7
:1003C800000000000000CDA8B5C03120202020206A
:1003D800202020202020CDA8B5C032202020202099
:1003E800202020202020CDA8B5C033202020202088
:1003F800202020202020CDA8B5C034202020202077
:10040800202020202020CDA8B5C035202020202065
:10041800202020202020CDA8B5C036202020202054
:10042800202020202020CDA8B5C037202020202043
:10043800202020202020CDA8B5C038202020202032
:10044800202020202020CDA8B5C039202020202021
:10045800202020202020CDA8B5C031302020202009
:10046800202020202020CDA8B5C0313120202020F8
:10047800202020202020CDA8B5C0313220202020E7
:10048800202020202020CDA8B5C0313320202020D6
:10049800202020202020CDA8B5C0313420202020C5
:1004A800202020202020CDA8B5C0313520202020B4
:1004B800202020202020CDA8B5C0313620202020A3
:1004C800202020202020006118AAB101020000018C
:1004D8000400000000000000000000000000000010
:1004E8000000CDA8B5C031202020202020202020C9
:1004F8002020CDA8B5C03220202020202020202078
:100508002020CDA8B5C03320202020202020202066
:100518002020CDA8B5C03420202020202020202055
:100528002020CDA8B5C03520202020202020202044
:100538002020CDA8B5C03620202020202020202033
:100548002020CDA8B5C03720202020202020202022
:100558002020CDA8B5C03820202020202020202011
:100568002020CDA8B5C03920202020202020202000
:100578002020CDA8B5C031302020202020202020E8
:100588002020CDA8B5C031312020202020202020D7
:100598002020CDA8B5C031322020202020202020C6
:1005A8002020CDA8B5C031332020202020202020B5
:1005B8002020CDA8B5C031342020202020202020A4
:1005C8002020CDA8B5C03135202020202020202093
:1005D8002020CDA8B5C03136202020202020202082
:1005E8002020006118AC35010200000104B7BFBC2F
:1005F800E431000000000000000000000000CDA869
:10060800B5C0312020202020202020202020CDA867
:10061800B5C0322020202020202020202020CDA856
:10062800B5C0332020202020202020202020CDA845
:10063800B5C0342020202020202020202020CDA834
:10064800B5C0352020202020202020202020CDA823
:10065800B5C0362020202020202020202020CDA812
:10066800B5C0372020202020202020202020CDA801
:10067800B5C0382020202020202020202020CDA8F0
:10068800B5C0392020202020202020202020CDA8DF
:10069800B5C0313020202020202020202020CDA8C7
:1006A800B5C0313120202020202020202020CDA8B6
:1006B800B5C0313220202020202020202020CDA8A5
:1006C800B5C0313320202020202020202020CDA894
:1006D800B5C0313420202020202020202020CDA883
:1006E800B5C0313520202020202020202020CDA872
:1006F800B5C0313620202020202020202020006175
:1007080018AD86000000000000B7BFBCE43100004F
:1007180000000000000000000000CDA8B5C0312096
:1007280020202020202020202020CDA8B5C0322045
:1007380020202020202020202020CDA8B5C0332034
:1007480020202020202020202020CDA8B5C0342023
:1007580020202020202020202020CDA8B5C0352012
:1007680020202020202020202020CDA8B5C0362001
:1007780020202020202020202020CDA8B5C03720F0
:1007880020202020202020202020CDA8B5C03820DF
:1007980020202020202020202020CDA8B5C03920CE
:1007A80020202020202020202020CDA8B5C03130B6
:1007B80020202020202020202020CDA8B5C03131A5
:1007C80020202020202020202020CDA8B5C0313294
:1007D80020202020202020202020CDA8B5C0313383
:1007E80020202020202020202020CDA8B5C0313472
:1007F80020202020202020202020CDA8B5C0313561
:1008080020202020202020202020CDA8B5C031364F
:1008180020202020202020202020006118A99900D5
:100828000000000000B7BFBCE43100000000000079
:10083800000000000000CDA8B5C0312020202020F5
:10084800202020202020CDA8B5C032202020202024
:10085800202020202020CDA8B5C033202020202013
:10086800202020202020CDA8B5C034202020202002
:10087800202020202020CDA8B5C0352020202020F1
:10088800202020202020CDA8B5C0362020202020E0
:10089800202020202020CDA8B5C0372020202020CF
:1008A800202020202020CDA8B5C0382020202020BE
:1008B800202020202020CDA8B5C0392020202020AD
:1008C800202020202020CDA8B5C031302020202095
:1008D800202020202020CDA8B5C031312020202084
:1008E800202020202020CDA8B5C031322020202073
:1008F800202020202020CDA8B5C031332020202062
:10090800202020202020CDA8B5C031342020202050
:10091800202020202020CDA8B5C03135202020203F
:10092800202020202020CDA8B5C03136202020202E
:10093800202020202020004AA98F01020304050658
:100948000708090A42AD60000042AC19000042AC39
:100958001D000042AC1B000051AD4FB7BFBCE431D5
:1009680000000000000000000000000051AC220060
:10097800000000000000000000000000000000006F
:10098800604EABC9C6D5CDA8C4A3BFE9202020209E
:1009980000CAB1BFD8C4A3BFE92020202000B5F702
:1009A800B9E2C4A3BFE92020202000BFC9BFD8B93D
:1009B800E8C4A3BFE9202000CBABB2E3C6D5CDA8DD
:1009C800C4A3BFE900CBABB2E3CAB1BFD8C4A3BFCD
:1009D800E9006100A88FCDA8B5C031000000000073
:1009E800000000000000CDA8B5C0320000000000E3
:1009F800000000000000CDA8B5C0330000000000D2
:100A0800000000000000CDA8B5C0340000000000C0
:100A1800000000000000CDA8B5C0350000000000AF
:100A2800000000000000CDA8B5C03600000000009E
:100A3800000000000000CDA8B5C03700000000008D
:100A4800000000000000CDA8B5C03800000000007C
:100A5800000000000000CDA8B5C03900000000006B
:100A6800000000000000CDA8B5C031300000000033
:100A7800000000000000CDA8B5C031310000000022
:100A8800000000000000CDA8B5C031320000000011
:100A9800000000000000CDA8B5C031330000000000
:100AA800000000000000CDA8B5C0313400000000EF
:100AB800000000000000CDA8B5C0313500000000DE
:100AC800000000000000CDA8B5C0313600000000CD
:100AD80000000000000041A7590041A75A0041A7A3
:100AE8005B0041A75C0F41A75D1941A75E0050A7B5
:100AF8005F121E061E00000000000000000000003B
:100B0800006020AD6200000000000000000000004E
:100B180000000000000000000000000000000000CD
:100B2800000000000041A76F0041A7700041A771B5
:100B38000041A7720041A773006100CD9400C181F4
:100B48004001C0804101C0804100C1814001C08096
:100B58004100C1814000C1814001C0804101C08085
:100B68004100C1814000C1814001C0804100C18174
:100B78004001C0804101C0804100C1814001C08066
:100B88004100C1814000C1814001C0804100C18154
:100B98004001C0804101C0804100C1814000C18145
:100BA8004001C0804101C0804100C1814001C08036
:100BB8004100C1814000C1814001C0804101C08025
:100BC8004100C1814000C1814001C0804100C18114
:100BD8004001C0804101C0804100C1814000C18105
:100BE8004001C0804101C0804100C1814001C080F6
:100BF8004100C1814000C1814001C0804100C181E4
:100C08004001C0804101C0804100C1814001C080D5
:100C18004100C1814000C1814001C0804101C080C4
:100C28004100C1814000C1814001C0804100C181B3
:100C38004001C0804101C0804100C181406100CEB7
:100C48009400C0C101C30302C2C60607C705C5C4D4
:100C580004CC0C0DCD0FCFCE0E0ACACB0BC9090898
:100C6800C8D81819D91BDBDA1A1EDEDF1FDD1D1CD8
:100C7800DC14D4D515D71716D6D21213D311D1D068
:100C880010F03031F133F3F23236F6F737F5353408
:100C9800F43CFCFD3DFF3F3EFEFA3A3BFB39F9F8D8
:100CA8003828E8E929EB2B2AEAEE2E2FEF2DEDEC78
:100CB8002CE42425E527E7E62622E2E323E12120A8
:100CC800E0A06061A163A3A26266A6A767A56564A8
:100CD800A46CACAD6DAF6F6EAEAA6A6BAB69A9A818
:100CE8006878B8B979BB7B7ABABE7E7FBF7DBDBC58
:100CF8007CB47475B577B7B67672B2B373B17170E8
:100D0800B050909151935352929656579755959447
:100D1800549C5C5D9D5F9F9E5E5A9A9B5B99595857
:100D280098884849894B8B8A4A4E8E8F4F8D4D4CF7
:100D38008C44848545874746868242438341818027
:100D48004051C6A5B3A1BEB03100000000000000AC
:100D5800000000000048C0990000000000000000EA
:100D680041C0A10041C6A40048BFE6000000000041
:100D7800000000608CC00D000000000000000000B2
:100D8800000000000000000000000000000000005B
:100D9800000000000000000000000000000000004B
:100DA800000000000000000000000000000000003B
:100DB800000000000000000000000000000000002B
:100DC800000000000000000000000000000000001B
:100DD800000000000000000000000000000000000B
:100DE80000000000000000000000000000000000FB
:100DF80000000000000000000000000000000000EB
:100E080000000042BFE4000041C6A30042BFE20068
:100E18000041C6A20041C00C0041BFEE0041BFE046
:100E28000041BFE100730094590000000000000079
:100E380000000000000000000000000000000000AA
:100E4800000000000000000000000000000000009A
:100E5800000000000000000000000000000000008A
:100E6800000000000000000000000000000000007A
:10212800000000000000000000602694120000007B
:102138000000000000000000000000000000000097
:102148000000000000000000000000000000000087
:10215800000000429438000041943A004194100075
:102168004194110000E709F608DFFA8046E709F212
:1021780008DFFA803E88828C83E709F0A3DFFA80C3
:1021880032E309F608DFFA8078E309F208DFFA801B
:102198007088828C83E309F0A3DFFA806489828ADD
:1021A80083E0A3F608DFFA805889828A83E0A3F2E5
:1021B80008DFFA804C80D280FA80C680D48069809B
:1021C800F28033801080A680EA809A80A880DA8026
:1021D800E280CA803389828A83ECFAE493A3C8C573
:1021E80082C8CCC583CCF0A3C8C582C8CCC583CC73
:1021F800DFE9DEE7800D89828A83E493A3F608DFAE
:10220800F9ECFAA9F0EDFB2289828A83ECFAE0A3C3
:10221800C8C582C8CCC583CCF0A3C8C582C8CCC504
:1022280083CCDFEADEE880DB89828A83E493A3F249
:1022380008DFF980CC88F0EF60010E4E60C388F0AB
:10224800ED2402B4040050B9F582EB2402B4040072
:1022580050AF23234582239021BD73BB0106898299
:102268008A83E0225002E722BBFE02E32289828AA7
:1022780083E49322BB010CE58229F582E5833AF5D4
:1022880083E0225006E92582F8E622BBFE06E9250E
:1022980082F8E222E58229F582E5833AF583E49320
:1022A80022BB010689828A83F0225002F722BBFEF4
:1022B80001F322F8BB010DE58229F582E5833AF5A1
:1022C80083E8F0225006E92582C8F622BBFE05E91C
:1022D8002582C8F222EF8DF0A4A8F0CF8CF0A428B4
:1022E800CE8DF0A42EFE22BC000BBE0029EF8DF08F
:1022F80084FFADF022E4CCF875F008EF2FFFEE3341
:10230800FEEC33FCEE9DEC984005FCEE9DFE0FD5EF
:10231800F0E9E4CEFD22EDF8F5F0EE8420D21CFEC3
:10232800ADF075F008EF2FFFED33FD40079850062C
:10233800D5F0F222C398FD0FD5F0EA22C2D5EC30D1
:10234800E709B2D5E4C39DFDE49CFCEE30E715B285
:10235800D5E4C39FFFE49EFE1222EFC3E49DFDE493
:102368009CFC80031222EF30D507C3E49FFFE49E54
:10237800FE22C5F0F8A3E028F0C5F0F8E582158242
:1023880070021583E038F022A3F8E0C5F025F0F0DC
:10239800E582158270021583E0C838F0E822BB0197
:1023A8000A89828A83E0F5F0A3E022500687F009C3
:1023B800E71922BBFE07E3F5F009E3192289828AAF
:1023C80083E493F5F074019322BB0110E58229F5AB
:1023D80082E5833AF583E0F5F0A3E0225009E92588
:1023E80082F886F008E622BBFE0AE92582F8E2F5C3
:1023F800F008E222E5832AF583E993F5F0A3E9934F
:1024080022BB010A89828A83F0E5F0A3F0225006F4
:10241800F709A7F01922BBFE06F3E5F009F3192224
:10242800F8BB0111E58229F582E5833AF583E8F0E6
:10243800E5F0A3F0225009E92582C8F608A6F022A3
:10244800BBFE09E92582C8F2E5F008F222EF2BFF6E
:10245800EE3AFEED39FDEC38FC2275F00875820085
:10246800EF2FFFEE33FECD33CDCC33CCC58233C551
:10247800829BED9AEC99E58298400CF582EE9BFEE2
:10248800ED9AFDEC99FC0FD5F0D6E4CEFBE4CDFA3D
:10249800E4CCF9A88222B800C1B90059BA002DECE1
:1024A8008BF084CFCECDFCE5F0CBF97818EF2FFF79
:1024B800EE33FEED33FDEC33FCEB33FB10D7039921
:1024C8004004EB99FB0FD8E5E4F9FA227818EF2FCE
:1024D800FFEE33FEED33FDEC33FCC933C910D705ED
:1024E8009BE99A4007EC9BFCE99AF90FD8E0E4C90C
:1024F800FAE4CCFB2275F010EF2FFFEE33FEED333C
:10250800FDCC33CCC833C810D7079BEC9AE8994068
:102518000AED9BFDEC9AFCE899F80FD5F0DAE4CDCA
:10252800FBE4CCFAE4C8F922EB9FF5F0EA9E42F00E
:10253800E99D42F0E89C45F022E8600FECC313FCEB
:10254800ED13FDEE13FEEF13FFD8F122E86010EC57
:10255800A2E713FCED13FDEE13FEEF13FFD8F022F4
:10256800E0FCA3E0FDA3E0FEA3E0FF22E0F8A3E087
:10257800F9A3E0FAA3E0FB22ECF0A3EDF0A3EEF060
:10258800A3EFF022A8828583F0D083D0821225A3FE
:102598001225A31225A31225A3E473E493A3C583EC
:1025A800C5F0C583C8C582C8F0A3C583C5F0C58377
:1025B800C8C582C822A42582F582E5F03583F58353
:1025C80022E0FBA3E0FAA3E0F922F8E0FBA3A3E0F2
:1025D800F925F0F0E582158270021583E0FA38F0EB
:1025E80022EBF0A3EAF0A3E9F022BB010DE5822972
:1025F800F582E5833AF5830225C95007E92582F873
:10260800022A0ABBFE07E92582F8022A1CE582296C
:10261800F582E5833AF583022A2EBB0120E582295B
:10262800F582E5833AF583D0F0D0E0F8D0E0F9D030
:10263800E0FAD0E0FBE8C0E0C0F00225E95018E974
:102648002582F8D083D082D0E0F9D0E0FAD0E0FB40
:10265800C082C083022A13BBFE18E92582F8D08302
:10266800D082D0E0F9D0E0FAD0E0FBC082C083028B
:102678002A2522D083D082F8E493701274019370D3
:102688000DA3A393F8740193F5828883E47374020D
:10269800936860EFA3A3A380DFE3F5F009E208B530
:1026A800F06D606B80F3E3F5F009E608B5F0606063
:1026B8005E80F387F009E608B5F054605280F4872D
:1026C800F009E208B5F048604680F488828C838778
:1026D800F009E0A3B5F038603680F488828C8387EF
:1026E800F009E493A3B5F027602580F388828C83F2
:1026F800E3F5F009E0A3B5F016601480F388828C46
:1027080083E3F5F009E493A3B5F004600280F202D4
:1027180027CC808580E7808E80D2803C8015806CB5
:10272800807E809B80B5808B80A1804F8070803AAE
:102738000227D889828A83ECFAE493F5F0A3C8C506
:1027480082C8CCC583CCE493A3C8C582C8CCC58352
:10275800CCB5F070606E80E189828A83E493F5F0ED
:10276800A3E208B5F05E605C80F289828A83E0F5B6
:10277800F0A3E608B5F04D604B80F389828A83E0C8
:10278800F5F0A3E208B5F03C603A80F389828A83C9
:10279800E493F5F0A3E608B5F02A602880F28053A8
:1027A80089828A83ECFAE493F5F0A3C8C582C8CC81
:1027B800C583CCE0A3C8C582C8CCC583CCB5F0041A
:1027C800600280E27FFFB5F0020F2240027F012203
:1027D80089828A83ECFAE0F5F0A3C8C582C8CCC523
:1027E80083CCE0A3C8C582C8CCC583CCB5F0D5607E
:1027F800D380E389828A83ECFAE0F5F0A3C8C58226
:10280800C8CCC583CCE493A3C8C582C8CCC583CC47
:10281800B5F0B160AF80E288F0ED2402B404005056
:10282800A3F582EB2402B4040050992323458223A4
:1028380090271A73EF4E6012EF60010EEDBB010B8B
:1028480089828A83F0A3DFFCDEFA2289F05007F739
:1028580009DFFCA9F022BBFEFCF309DFFCA9F0228A
:10286800E709F608DFFA807BE9D39850F3E92FF9F6
:10287800E82FF819E718F6DFFA8068E709F208DFA9
:10288800FA806080E388828C83E709F0A3DFFA800E
:1028980052E309F608DFFA804AE9D398500EE92F87
:1028A800F9E82FF819E318F2DFFA8037E309F2089C
:1028B800DFFA802F88828C83E309F0A3DFFA802374
:1028C80089828A83E0A3F608DFFA801789828A83DF
:1028D800E493A3F208DFF9800A89828A83E0A3F2ED
:1028E80008DFFA02297A80B180F980A580C680DCE9
:1028F80080F180738010808380E98087808780D909
:1029080080E180BC8073D3E998EA9C5039E92FF5BF
:1029180082EA3BF583E82FF8EC3BFC0582D582027E
:1029280015831582E493C8C582C8CCC583CC0582BB
:10293800D5820215831582F0C8C582C8CCC583CC60
:10294800DFD9DED7802E89828A83ECFAE493A3C884
:10295800C582C8CCC583CCF0A3C8C582C8CCC58302
:10296800CCDFE9DEE7800D89828A83E493A3F60849
:10297800DFF9ECFAA9F0EDFB22D3E998EA9C50388C
:10298800E92FF582EA3BF583E82FF8EC3BFC05825A
:10299800D5820215831582E0C8C582C8CCC583CC10
:1029A8000582D5820215831582F0C8C582C8CCC5B8
:1029B80083CCDFDADED880BC89828A83ECFAE0A394
:1029C800C8C582C8CCC583CCF0A3C8C582C8CCC54D
:1029D80083CCDFEADEE8809C809888F08E83EF6005
:1029E800010E4E608DED2402B404005085F582EB93
:1029F8002402B4040050E123234582AB83239028AA
:102A0800EE73E6FB08E6FA08E6F922EBF608EAF6C2
:102A180008E9F622E2FB08E2FA08E2F922EBF208FA
:102A2800EAF208E9F222E493FB740193FA74029340
:102A3800F92290C84E1225E978517CC87ADE79AB24
:102A48007FB51238E878067CC97ADF79607F111281
:102A580038E878177CC97ADF797112389C78487C15
:102A6800C97ADF79A212389C90C979123983123950
:102A78008978827CC97ADF79D37F28123AF378AAD9
:102A88007CC97ADF79FB7F0A12396DE490C9B412E8
:102A9800398878B87CC97AE079057F30123AF378BA
:102AA800E87CC97AE079357F2312396D780B7CCAC6
:102AB8007AE079587F24123A0B782F7CCA7AE07929
:102AC8007C7E017F18123C3778477CCB7AE1799479
:102AD80012383C78577CCB7AE179A47F14123A0BF0
:102AE8001237A5123A6364016003022CC8900013E0
:102AF80012227CFFC3940274809480400DEF64041A
:102B08006008EF64056003022BF9900019123A423D
:102B18009000171223D1FDACF0EC5EFEED5F90C97A
:102B280079123CC99000191223D1F4FFE5F0F45C46
:102B3800FEEF5DFF90C97BEEF0A3EFF0E4A3F09009
:102B4800C97DE0123B0A504C123CD08005C333CEFD
:102B580033CED8F990C979123C6D8005CEC313CE17
:102B680013D8F94E602990C97EE075F003A42417A4
:102B7800F974C935F0FA7B01C002C0011238A77494
:102B880003F0D001D00212AFC090C97EE004F01269
:102B98003BFE80ABE490C97DF090C97DE0123B0A12
:102BA8004003022CC8123CD08005C333CE33CED8A4
:102BB800F990C97B123C6D8005CEC313CE13D8F9AA
:102BC8004E602990C97FE075F003A42448F974C9C0
:102BD80035F0FA7B01C002C0011238A77403F0D0A7
:102BE80001D00212AFC090C97FE004F0123BFE8012
:102BF800A8E490C97DF090C97D123B6A4003022C7D
:102C0800C81237A5123CDA90C97D123C058005C36D
:102C180033CE33CED8F9123CE08003123B2DD8FBDB
:102C28004E7003022CC27BFF7AD8794590CB6E1286
:102C380037A290001312227C6402700C123A2E7C88
:102C4800007D0A1222DD80061237A5123A2E90CB9B
:102C580071EEF0A3EFF07B017AC979AA124F587B85
:102C6800017AC979AA12D52090C9B4EFF0A3123C11
:102C780078C002C0011238A77403F0D001D0021244
:102C8800AFC090C9B5E02403F0123C78C002C0017F
:102C98007AC979AA90CB6E1225E990C9B4E0FF12DF
:102CA80038BDEFF0D001D00212AFC090C9B4E0FF38
:102CB800A3E02FF090C980E004F0123BFE022BFE47
:102CC800E490C97DF090C97DE0FFC39407748094B7
:102CD8008050511237A590000F12227CFEA80708D9
:102CE8008002C313D8FC30E03690C981E075F00546
:102CF800A4240BF974CA35F0FA7B01C002C0019014
:102D0800C97DE075F005A424E8F974C91238B474D3
:102D180005F0D001D00212AFC090C981E004F012D2
:102D28003BFE80A11237A590001612227C75F08C0C
:102D3800A4FFAEF0E4FCFD7B017ACA792F90CB7238
:102D4800F0A3748CF012B7F17B017ACA7935123886
:102D5800B77410F07AC9790612AFC07BFF7AD879B8
:102D68004B90CB6E1225E97AD8794D90CB7112250C
:102D7800E97B017AC9790612961B1237A5900010D3
:102D880012227C6003022F3E90C979E07002A3E012
:102D9800603F90C97BE07002A3E060357BFF7AD882
:102DA800794E90CB6E1237A21237FF123A147AC9B5
:102DB800794890CB761225E97ACA790B90CB7912AB
:102DC80037A2123A2890CB7C12389590CB7D0231ED
:102DD8002E90C979E07002A3E0603190C97BE07061
:102DE80002A3E070277BFF7AD8798490CB6E1237E4
:102DF800A21237FF123A14123C3E1237A2123A2896
:102E080090CB7912389590CB7A02312E90C979E01F
:102E18007002A3E0703690C97BE07002A3E0602CDA
:102E28007BFF7AD879B590CB6E1237A21237FFF0B4
:102E38007AC97948123A19123C3E1237A2123A2836
:102E480090CB7912389590CB7A02312E1237A51291
:102E58003CDA602C7BFF7AD879E690CB6E1237A2E9
:102E68001237FFF07AC97982123CEA123C3E1237D7
:102E7800A2123A2890CB7912389590CB7A02312E4B
:102E88001237A5123A6364027024123AA2640170E0
:102E98000302306C1237A5123AA264027BFF700756
:102EA8007AD9793402308A7AD9795302308A12373A
:102EB800A5123A636403705D123CF070097BFF7AD7
:102EC800D9796F02308A1237A5123B42EF7803C3D3
:102ED80033CE33CED8F97ACB79471239AA7408F0B1
:102EE80012C1237BFF7AD9798F90CB6E1225E99096
:102EF800CB7112379C12388C90CB75F07ACB79470E
:102F0800123CEA7AC87951124F5890C9B6EEF0A32C
:102F1800EFF00231407BFF7AD979B090CB6E12374F
:102F2800A21237FF12379A123A2890CB76123895A8
:102F380090CB7702312E90C979E07002A3E0606FE0
:102F480090C97BE07002A3E060657BFF7AD979E2E3
:102F580090CB6E1237A21237FF123A147AC9794809
:102F680090CB761237A21223A690CB79123A4F1241
:102F780039F290CB7BF01237DF90CB7CF0900004D5
:102F88001223D1FF90CB7D123A5090000612227C7A
:102F980090CB7FF090000712227C90CB8012379A5A
:102FA800123A2890CB8412389590CB8502312E9016
:102FB800C979E07002A3E0603090C97BE07002A399
:102FC800E070267BFF7ADA792A90CB6E1237A2124C
:102FD80037FFF07AC9791712374A123A2890CB810D
:102FE80012389590CB8202312E90C979E07002A3F5
:102FF800E0703090C97BE07002A3E060267BFF7A26
:10300800DA796D90CB6E1237A21237FFF07AC97950
:103018004812374A123A2890CB8112389590CB82C1
:1030280002312E1237A5123CDA60287BFF7ADA7952
:10303800B090CB6E1237A21237FFF07B017AC979B4
:103048008212374C123A2890CB8112389590CB8255
:1030580002312E1237A5123A6364027033123AA273
:10306800640170087BFF7AD9791580161237A5128A
:103078003AA264027BFF70067AD9793480047AD93F
:103088007953123A691237A212388C90CB75803A6C
:103098001237A5123A6364037035123CF07BFF7057
:1030A800127AD9796F123A691237A212388C90CBFA
:1030B8007580177ADA79F1123A691237A212388CC8
:1030C80090CB75F0123CF090CB76F07B0180627B60
:1030D800FF7ADB791490CB6E1237A21237FFF01209
:1030E80023A6FF90CB73123A501239F290CB75F0A9
:1030F8001237DF90CB76F09000041223D1FF90CBEB
:1031080077123A5090000612227C90CB79F090000A
:103118000712227C90CB7A12379A123A2890CB7EEB
:1031280012389590CB7FF07B017AC97906A31225D6
:10313800E97AC87951124F581237A5123CBA75F07E
:1031480050A42480FFE5F03461FE7B017AC87951F0
:103158001238E17450F002A8E775F080A4FFE5F09A
:103168004CFCEF4DFD90C865E04CFC90C867E0252D
:10317800E04CFC90C869E025E025E04CFC90C86B69
:10318800E033333354F8221222A990C83A1225C9E1
:1031980090000102227C90000812227C24FFFFE4A8
:1031A80034FFFE7C037D001222DDEF2440FFEE3465
:1031B80027FEE4FC90C853122580740390C857F08A
:1031C800A3E4F0227BFF90CB6E1225E990C8481249
:1031D80025C990000512227C90CB71F09000061250
:1031E800227C90CB72F07B01221223D1FFE5F09074
:1031F800C8A7F0EFA3F07B017AB379CE2290C85725
:10320800E025E0FFE433FE90C855E0FDEEFCEF4D0D
:10321800FD90C859E090C85B75F004A4FFE5F04C38
:10322800FCEF4DFDE02224FFFFE434FFFE1225C928
:1032380090000222FE90CB79E92404F9E43AFAE4FA
:10324800F0A3227D017BFF7E007F0402223D122530
:10325800E97E007F087D007B017AC0799902283CCD
:103268007AC0790DFE7B0190CB79E4F0A32275F04A
:1032780008A4FFE5F04CFCEF4DFD90C85DE075F04B
:103288001090C85FA4FFE5F04CFCEF4DFDE0221262
:1032980023D1FFAEF07C007D181222DD74A22FF935
:1032A80074C03EFA7B01227D017BFF7E0002223D35
:1032B8001223D190C0A3AEF075F0181225BDEE759B
:1032C800F018A42583F583227E007F087D0012254F
:1032D800C9E9241AF9E43AFA2290C94FE075F003D3
:1032E800A42487F974C935F0FA90CB6E1225E990B9
:1032F800CB71E4F0A322EF75F020A42400FFE5F0E1
:103308003441FE7B0190CB79E4F0A32275F022A42E
:10331800FFE5F0C313FEEF132400FFEE3423FEE4B1
:10332800227D017BFF7E007F3102223D5401FFEDAB
:1033380025E0244BF582E434C8F583EFF090C849C2
:10334800E004F02290BFF3E075F018A424A2F97409
:10335800C035F0FA7B01227C037D001222DD90CB80
:1033680072EF2440FFEE3427FEE4FC7B017AC0793B
:10337800A27403F0A3E4F022E4F0A3F0A3F0A3F016
:10338800A3F0224CFC90C86DE0C454F04CFC90C8EB
:103398006FE0C43354E02290C8481225C990000455
:1033A80002227C90C83D1225C990000702227C7D2C
:1033B800017BFFFE02223D7E007F187D001225C999
:1033C80002283C90C8491225C990000502227C2495
:1033D800FFFFE434FFFE7C000222DD2499F58274AD
:1033E800C03EF583E0FB7A00ED5407FD7E007401D2
:1033F800A8050822E92410F9E43AFA90C94FE075C3
:10340800F002A4F58285F0831223D1FFAEF022FFEB
:1034180090C84B0225C975F04090C863A4FFE5F039
:103428004CFCEF4DFDE022E0FEEF5407FFF874017D
:1034380008227D017BFF7E0002223D90C8481225AC
:10344800C990000302227CFF131313541F2499F51B
:1034580082E434C0F5832290C0A2EF75F0181225DB
:10346800BDE0227F727B017AC8793D7E10227F7190
:103478007B017AC879407E102290C8461225C990EF
:10348800000F02227CE0FFC3944074809480224C99
:10349800FC90C871E0C4333354C04CFC90C873E04E
:1034A800C43333227D017BFFFE02223DFCFD90C820
:1034B8005312258090C857E4F0A322FF90C84B020E
:1034C80025C990000BEE8FF002242824FFFFE43476
:1034D800FFFE22FDE435F0FC90C89F0225C91313B6
:1034E80013541FFF90C846E4F0A3EF227402F07F44
:1034F800807E002275F08CA4FFAEF0E4FCFD7B0119
:1035080090CB72F0A32290C83DE0FEA3E0FF4E22CC
:103518007AC9791A1225E97AC879D8221225C9EF09
:103528009000010222BB90C849E0FDC3941074804A
:1035380094802290C8421225C97451900007022233
:10354800BB90BFE0E075F018A4243FF974C835F0CB
:10355800FA7B012290C83D0225C91225E990C83A94
:103568000225C97B017AC879437F2E7E102275F027
:1035780008A42400FFE5F03412FE2290C849E0C3F5
:10358800940474809480227D017BFFFE02223DFF1B
:10359800EE5AFEEF5BA8050822E48FF00224287C8F
:1035A800007D051222EFEF2479FF90C00CF0227FF6
:1035B800747B017AC8793D7E10227F767B017AC8B8
:1035C80079407E1022A4FFE5F04CFEEF4D227B01EE
:1035D8007ABF79F41225E97AC679B6227B017AC8CE
:1035E800794A22EF24FFFDEE34FFFCFEED7803223A
:1035F800CEA2E713CE1322FF131313541FFD7C0032
:1036080090C840227D407F007E122290C83A022551
:10361800C97408F07F897E402290CB72F0A37411A0
:10362800F022F07D007CE07FA522900008EF0222C6
:10363800BBEF1222BB90C84822EF1222BB90C848A9
:1036480022E0FEA3E0FF7B017AC8795A22A3F07B2F
:10365800017AB379B222F07B017AC8793A7F257E64
:103668001B22E0FF90C8A7E4F0A32290C8441225CB
:10367800E97B407D00221225C9E92406F9E43AFADB
:10368800221225C9E92417F9E43AFA227B017AC8FB
:10369800793D7F1B7E1022A4FFE5F04CFCEF4DFD29
:1036A800E022FD90C8A67410F02290BFDE7403F0EB
:1036B800A374E8F022FFE05EFEA3E05FA8050822FD
:1036C800E02453F9E434C9FA7B0122EF24FFFFEE2A
:1036D80034FFFE7C00227B017AC8793A7F2D7E1068
:1036E80022E4F0A3F0A3F022E0FFC39424748094B2
:1036F80080229000020223D190000802227CFF90D1
:10370800C849E0FEF8EF0822FFEEF0A3EFF02290A0
:10371800000D0223D190C94FE004F02290C00C7430
:1037280017F02290BFDEE4F0A374C8F0227B017A80
:10373800C679B6227B017AC879A9227B017AC87931
:1037480043227B01A31225E990C84E1225C91223F2
:10375800A6FF90CB76E5F0F0A3EFF09000021222DE
:103768007C90CB78F090000312227C90CB79F0907B
:1037780000041223D1FF90CB7AE5F0F0A3EFF0908C
:10378800000612227C90CB7CF090000712227C90DD
:10379800CB7DF0A37B017ACA790B1225E990C84E3C
:1037A8000225C975F080A4FFE5F04CFCEF4DFD90B3
:1037B800C86BE04CFC90C86DE025E04CFC90C86FED
:1037C800E025E025E04CFC90C871E033333354F831
:1037D8002290C8451225C990000302227C1225C9EF
:1037E8009000061223D1FFE5F090C8A7F0A3EFF0F0
:1037F8007B017AB379CE2290001412227C90CB718F
:10380800F090001512227C90CB722290C85DE025C2
:10381800E0FFE433FE90C85BE0FDEEFCEF4DFD9069
:10382800C85FE090C86175F004A4FFE5F04CFCEFB8
:103838004DFDE0227D017BFF7E007F1002223D903E
:10384800C84275F026A4FF1225C9E92FF9EA227D9E
:10385800017BFF7F2002223D7D017BFF7E007F04EC
:1038680002223D75F008A4FFE5F04CFCEF4DFD90F9
:10387800C863E075F01090C865A4FFE5F04CFCEF54
:103888004DFDE02290000812227C90CB74F090004D
:103898000902227C7D017BFF7E007F3102223D9060
:1038A800C97DE075F003A424B8F974C935F0FA901D
:1038B800CB6E1225E990CB71E4F0A3221225C990B2
:1038C800C851E92404F9E43AFA0225E990C84812F3
:1038D80025C9E9240BF9E43AFA90CB79E4F0A3225C
:1038E8007D017BFF7E0002223D1225C990C854E964
:1038F8002408F9E43AFA0225E990946875F026124A
:1039080025BDE0225401FFED25E0244DF582E43485
:10391800C8F583EFF090C84BE004F02290C83AE075
:10392800FF131313541F2441F582E43494F58322C2
:1039380090C8541225C990000502227C4CFC90C8FE
:1039480073E0C454F04CFC90C875E0C43354E022D2
:103958001225C990000112227CFD90C8A67410F0AF
:10396800A3E4F0A3227D017BFF7E0002223DEF1439
:10397800FF1225C9900003EF0222BBE4F0A3F0A3D5
:10398800F0A3F0A3F0A3F022EF90946475F0261250
:1039980025BDE0224CFEED90C857FF1225C99000C6
:1039A80006222420FFEE3433FE7B0190CB79E4F02D
:1039B800A3221225C990C857E9240BF9E43AFA0260
:1039C80025E97D017BFFFE7F0802223D90C83D125C
:1039D80025C990000D2275F04090C869A4FFE5F054
:1039E8004CFCEF4DFDE0221225C990000202227C1A
:1039F80090C83A1225C990000422FF75F0261225B6
:103A0800BDE0227D017BFF7E0002223DF07AC9796C
:103A1800177B01A30225E9EF75F0261225BDE022E8
:103A280090000802227CE9241EF9E43AFA90C97D44
:103A3800E075F002A4F58285F0831223D1FFAEF081
:103A4800221223D190CB6EFFE5F0F0A3EFF022FF16
:103A58001225C9EF9000020222BBFA90000D022243
:103A68007C90CB6E1225E97B017ACA790B90CB71D9
:103A7800224CFC90C877E0C4333354C04CFC90C847
:103A880079E0C4333322741FF07403A3F07B017A06
:103A9800B379B22290C8481225C990001202227C3C
:103AA80012227C90CB6EF07BFF2275F026A4FFE5F6
:103AB800F0C313FEEF132440FFEE34E7FEE4FCFDF1
:103AC80022E490C8A7F0A374C9F07D217C002212DB
:103AD80025C902226390C8481225C990000A1222FB
:103AE8007CFF90C84BE0FEF8EF08227D017BFFFECB
:103AF80002223D90C84E1225C99000072290C84B5B
:103B0800E0FDC394107480948022FF1225C99000B0
:103B18000122FF1225C990000EEF0222BBE06401CA
:103B2800F0FD7C0022CEA2E713CE1322E4F0A3F02E
:103B38007B0122E0FEA3E0FF4E2290001112227CBE
:103B480024FFFFE434FFFE2290C8511225C9E9245E
:103B580013F9E43AFA22EF75F0261225BDE0229017
:103B6800C84BE0C3940474809480221225E9900025
:103B78000412227CFD7C007F117E2022783F7CC8C5
:103B88007D017BFF12281FEF3395E04F2274FF90D1
:103B9800C8A7F0A3F02290C83D0225C91225E990D4
:103BA800C8400225C9E0FD7C007E007401A8070812
:103BB80022E490943BF0A3F0A322A4FFE5F04CFE8E
:103BC800EF4D22FFEE5CFEEF5DFFE0FDEFA805087C
:103BD80022E0FFC3948074809480227B017AC879A4
:103BE8004C22FF1225C9EF0222A9EE8FF0022428E9
:103BF800E48FF002242890C97DE004F022FD7C00C7
:103C0800E0FB7E007401A8030822E4F0A3F07B0126
:103C18002290C8480225C990C8571225C9900008A3
:103C2800740122E0FEA3E0FF7B017AC87960227D5F
:103C3800017BFF02223D7ACA790B90CB7622E0FE07
:103C4800A8077401082275F0261225BDE022A424D5
:103C580064F9749435F0FA7B0122A4FFE5F04CFC7A
:103C6800EF4DFDE022FFE05EFEA3E05FA80508221D
:103C7800E02482F9E434C9FA7B012275F026A4FF16
:103C8800AEF090C842227B017AC879407F877E10C7
:103C9800227B017AC879407F957E10227B017AC801
:103CA800793D7F967E10227B017AC8793A7F977E8C
:103CB800102290000E02227C1225C9EE8FF00224F9
:103CC80009FFEEF0A3EFF022E0FD7E007401A805E5
:103CD800082290001D02227CFFEE5CFEEF5DA80327
:103CE80008227B01A30225E990001102227C9000A2
:103CF8000B02227C90C83D0225C91225E990C83ADA
:103D08000225C91225E990C84E0225C94FFF90C85F
:103D1800A7EEF0EFA3F07B017AB379CE2290C842E8
:103D28001225C990000302227C90B3FCA3E0FF9007
:103D3800AEA9F090802FE4F0A3EFF090B3FEA3E0DB
:103D4800FF90AEAAF0908031E4F0A3EFF090B400B9
:103D5800A3E0FF90AEABF0908033E4F0A3EFF090D7
:103D6800B402A3E0FF90AEACF0908035E4F0A3EF8E
:103D7800F022A3F07C007D0DFF7E001222DD74C9C5
:103D88002FF974AB3EFA7B0190CB79E4F0A322F0D3
:103D9800A3F0A3F0A3F0A3F0A3F0A3F0221225C987
:103DA80090000412227CFD740390C8A6F0A3E4F0EE
:103DB800A3221225C990000412227CFD90C8A67483
:103DC80010F02274FF90C8A7F0A3F0227D017BFFBA
:103DD8007E007F0402223DE0FD7C0090C8A7E4F04D
:103DE800A374C9F022E0FFA3E0CF90C8A7F0A3EF27
:103DF800F022FDE433FC90C853E075F008A42DFDD3
:103E0800E5F03CFC2290C849F07B017AAC7918A314
:103E18001225E990C8420225C9A3E4F0A37416F05C
:103E28007406A3F07B017AB379B2227C007D8CAF53
:103E380003AE021222DDEE3395E0FDFC90C853126A
:103E4800258090C857E4F0A322D390C841E094118C
:103E580090C840E094002290C83D1225C990000502
:103E680002227C7D017BFF7E007F0802223D122218
:103E7800BB7AC879477B0190CB79E4F0A3227D0116
:103E88007BFF7E0002223DEF75F00DA424C9F97472
:103E9800AB35F0FA7B0190CB6E1225E990CB71E43B
:103EA800F0A322E0FF90C8A7E4F0A322E4F0A3F077
:103EB800A3F07B01227D017BFFFE7F0402223D905F
:103EC800C8431225C990C846E0FD22E4F0A3F07B60
:103ED8000122EF7F0025E025E0FEE4FCFD90C853B9
:103EE800122580740490C857F0A3E4F0FD7CE07FAD
:103EF800A5221225C9E92406F9E43AFA22E4F0A336
:103F0800F07B01227D017BFFFE7F0802223D75F0D8
:103F18008CA4FFAEF0E4FCFD7B01F0A322E4F0A347
:103F2800F07B012290B40EE0FEA3E0FFEE90AFB06C
:103F3800F0A3EFF0227B0190CB72F0A37402F02281
:103F48001225C990000402227CE4F0A3F07B012230
:103F5800EEF0A3EFF0A3EDF02290C840E0FEA3E05E
:103F68002290C83A1225C990C83EE0FDA3E0227508
:103F7800F002A42462F974AD35F0FA7B01E0243034
:103F8800FFE43410FE221225C9E92417F9E43AFAAD
:103F9800227D017BFF7E0002223D7B017AAE79AD56
:103FA8002275F008A4FFC3900000E09FFF22EEF006
:103FB800A3EFF07F057E0022F07F237B017AC8798A
:103FC8003C7E1B22900000E024FFFF900000E034BC
:103FD800FFFEEF780322E090C8A7FFE4F0A3EFF01C
:103FE80022A3E0FF74A92DF582E434AEF5832224E0
:103FF800FFFFE434FFFE7C007D8C1222DDEE33955A
:10400800E0FDFC22E0FEA3E0FF7B0122E0FEA3E04E
:10401800FFA3E0227406F07F107E31227B0190C856
:1040280055E4F0A37402F0222FFFE03400FE229042
:10403800B7D2E0C3940574809480227BFFE0FFA38D
:10404800E0CF90CB6EF0A3EFF022EF3395E090C86D
:10405800A7F022E0FFC3941074809480227AC87974
:10406800417F0C7E102204F07F007E1022E0FEA328
:10407800E0FF4E227BFFE090CB6EF022E02401FDB2
:10408800E433FCEE7E002DFDEE3CFC22E4F0A3F0D0
:104098007B01227B017AA77977227B017AC8793F55
:1040A8007F097E102275F008E0A42420FFE5F022A5
:1040B8007AC879407F0C7E1022E4F0A3F0A374FF45
:1040C800F07B01227D017BFFFE02223DE0FDA3E0A3
:1040D80090C868F02290C8441225C90222632FFFB5
:1040E800E03400FE22E490AC1DF0A3F0FC7D0DFF4F
:1040F800FE227420F0A37401F0FB7AB379B2229007
:10410800C842E0940190C841E094002290AFB0F01A
:10411800A3F0908041F0A3F02233FE742F2FF58294
:1041280074803EF5832290CB72E4F0A3748CF02265
:104138007404F07F167E00227408F07F007E30221F
:1041480090C83C1225C990AE9EE0FD2225E024626D
:10415800F582E434ADF583227AC879407F0C7E106D
:10416800227AC8793A7F0A7E1022E0A3FFE0FAA3F8
:10417800E0FB22F07B017AC8793C7F2A7E1122A3DA
:10418800F0E4A3F0A3F0227B017AC8793A7F087E95
:10419800102290C85F1225C990C862E02274912D40
:1041A800F58274813CF58322C4131313540190C81B
:1041B80047F02274412BF58274813AF583224FFF30
:1041C800EEF0A3EFF0227B017AC879407410FFFE6D
:1041D800227B017AC8793F7F1E7E11227B017AC833
:1041E800793C7F267E11227B017AC8793C7F2C7E20
:1041F800112290C8410225C904F07F067E1022ECE6
:10420800F0A3EDF0A3227B017AC8793C22F58275F0
:10421800830012227CFD22C433333354802290C899
:104228003A0225C97B017AC8794F222400FFEC3E67
:10423800F0A3EFF02290C83A0225C97B307A007DBE
:104248008CE4FFFE2290C857F0A3E4F07D2022EF13
:10425800F07E007B012290C8481225E978547CC87A
:104268007AE579007F201232AF123443FF7E006076
:10427800046401700D12341890000D740175F0512A
:10428800801AEF64044E6009EF64054E600302442F
:104298002C12341890000D740175F0901224289097
:1042A800C84E123195123417123632123443123472
:1042B800179000041236391233A2123417900005F1
:1042C8001236391233CE12341790000612363912CC
:1042D800319512341712352774011222A990C85249
:1042E800E02401FF90C851E03400FE90C84B123220
:1042F800351234CD90C853E0540F12354390000660
:1043080012227C12267B432704434706435808435E
:10431800970A43C40C43E10E43FC10000044237B7E
:10432800017AC8795412330D7410F07F1CFE12C143
:104338002312320575F00812462B75F008804A12D0
:1043480045CD75F02012462B12327675F020803953
:1043580012454F75F0801235CD12341790000912AE
:1043680034CD7B017AC8795412330D7410F07F4034
:10437800FE12C12312320512327675F02090C86100
:1043880012328C12341E75F0801235CD02441D1283
:10439800454F75F08090C8651234244CFC90C8676E
:1043A800E025E012442D75F08090C86512369F4CC8
:1043B800FC90C867E025E04CFEED80591245CD75AC
:1043C800F02090C86112369F12341E1231611244D7
:1043D8002D1231614CFEED803C1246811231611282
:1043E800338B1244BE12316112338B4CFEED123402
:1043F800171234CA12468112316112338B12349764
:104408003354801244BE12316112338B1234973305
:1044180054804CFEED1234171234CA7BFF7AE279CD
:1044280089124F5E224CFEEDFF90C84B1225C990B1
:104438000009EE8FF01224287B017AC8795490CBBA
:1044480079E4F0A37410F07F40FE12C12390C8579E
:10445800E025E0FFE433FE90C855E0FDEEFCEF4DAB
:10446800FD90C859E075F004A4FFE5F04CFCEF4D51
:10447800FD90C85BE075F008A4FFE5F04CFCEF4D3B
:10448800FD90C85DE075F010A4FFE5F04CFCEF4D21
:10449800FD90C85FE075F020A4FFE5F04CFCEF4DFF
:1044A800FD90C861E075F040A4FFE5F04CFCEF4DCD
:1044B800FD90C863E0224CFEEDFF90C84B1225C961
:1044C800900009EE8FF01224287B017AC879549065
:1044D800CB79E4F0A37410F07F40FE12C12390C89A
:1044E80057E025E0FFE433FE90C855E0FDEEFCEF11
:1044F8004DFD90C859E075F004A4FFE5F04CFCEFC1
:104508004DFD90C85BE075F008A4FFE5F04CFCEFAA
:104518004DFD90C85DE075F010A4FFE5F04CFCEF90
:104528004DFD90C85FE075F020A4FFE5F04CFCEF6E
:104538004DFD90C861E075F040A4FFE5F04CFCEF3C
:104548004DFD90C863E0227B017AC8795490CB79FD
:10455800E4F0A37410F07F1CFE12C12390C857E04A
:1045680025E0FFE433FE90C855E0FDEEFCEF4DFD7D
:1045780090C859E075F004A4FFE5F04CFCEF4DFD40
:1045880090C85BE075F008A4FFE5F04CFCEF4DFD2A
:1045980090C85DE075F010A4FFE5F04CFCEF4DFD10
:1045A80090C85FE075F020A4FFE5F04CFCEF4DFDEE
:1045B80090C861E075F040A4FFE5F04CFCEF4DFDBC
:1045C80090C863E0227B017AC8795490CB79E4F0F3
:1045D800A37410F07F1CFE12C12390C857E025E099
:1045E800FFE433FE90C855E0FDEEFCEF4DFD90C8AA
:1045F80059E075F004A4FFE5F04CFCEF4DFD90C8C0
:104608005BE075F008A4FFE5F04CFCEF4DFD90C8A9
:104618005DE075F010A4FFE5F04CFCEF4DFD90C88F
:104628005FE022A4FFE5F04CFEEF4DFF90C84B126F
:1046380025C9900009EE8FF01224287B017AC879E9
:104648005490CB79E4F0A37410F07F40FE12C1239C
:1046580090C857E025E0FFE433FE90C855E0FDEE32
:10466800FCEF4DFD90C859E075F004A4FFE5F04C4F
:10467800FCEF4DFD90C85BE0227B017AC87954902D
:10468800CB79E4F0A37410F07F1CFE12C12390C80C
:1046980057E025E0FFE433FE90C855E0FDEEFCEF5F
:1046A8004DFD90C859E075F004A4FFE5F04CFCEF0F
:1046B8004DFD90C85BE075F008A4FFE5F04CFCEFF9
:1046C8004DFD90C85DE075F010A4FFE5F04CFCEFDF
:1046D8004DFD90C85FE075F020A4FFE5F04CFCEFBD
:1046E8004DFD90C861E075F040A4FFE5F04CFCEF8B
:1046F8004DFD90C863E02290C8541225E9785A7C91
:10470800C87ADE797F7E0012385790C8541237DC99
:10471800FF7E00600464017008123C1F75F0518030
:1047280015EF64044E6009EF64054E600302489F6C
:10473800123C1F75F09012242890C8541237DC9050
:10474800C857123BEA90C8541239FB12227C90C811
:1047580057123B12EF1222BB90C85412393B90C833
:1047680057123A5790C854123B1312227CFF90C834
:10477800571239791239F212267B479B0447BB0638
:1047880047CC08480C0A483A0C48570E486F1000A6
:104798000048967B017AC8795A1239B37410F07FB1
:1047A8009AFE12C12312381375F008124A9E75F04A
:1047B80008804B124A4075F020124A9E12386B75D9
:1047C800F020803A1249C275F080123BC2FF90C8AF
:1047D800571239FB123BF27B017AC8795A1239B366
:1047E8007410F07FAAFE12C12312381312386B75A9
:1047F800F02090C8671238811239DE75F080123BBC
:10480800C20248901249C275F08090C86B1239E410
:104818004CFC90C86DE025E01248A075F08090C867
:104828006B123C624CFC90C86DE025E012399C127A
:104838003BF2124A4075F02090C867123C62123968
:10484800DE1237AB1248A01237AB4CFEED8039129E
:104858004AF41237AB1239441249311237AB1239C4
:104868004412399C123BF2124AF41237AB12394403
:10487800123A793354801249311237AB1239441243
:104888003A793354804CFEED12399F123BF27BFF8C
:104898007AD8792A124F5E224CFEEDFF90C8571243
:1048A80025C9900004EE8FF01224287B017AC8797C
:1048B8005A90CB79E4F0A37410F07FAAFE12C123BA
:1048C80090C85DE025E0FFE433FE90C85BE0FDEEB4
:1048D800FCEF4DFD90C85FE075F004A4FFE5F04CD7
:1048E800FCEF4DFD90C861E075F008A4FFE5F04CC1
:1048F800FCEF4DFD90C863E075F010A4FFE5F04CA7
:10490800FCEF4DFD90C865E075F020A4FFE5F04C84
:10491800FCEF4DFD90C867E075F040A4FFE5F04C52
:10492800FCEF4DFD90C869E0224CFEEDFF90C857A2
:104938001225C9900004EE8FF01224287B017AC852
:10494800795A90CB79E4F0A37410F07FAAFE12C1D3
:104958002390C85DE025E0FFE433FE90C85BE0FDEE
:10496800EEFCEF4DFD90C85FE075F004A4FFE5F0A4
:104978004CFCEF4DFD90C861E075F008A4FFE5F030
:104988004CFCEF4DFD90C863E075F010A4FFE5F016
:104998004CFCEF4DFD90C865E075F020A4FFE5F0F4
:1049A8004CFCEF4DFD90C867E075F040A4FFE5F0C2
:1049B8004CFCEF4DFD90C869E0227B017AC8795A1A
:1049C80090CB79E4F0A37410F07F9AFE12C1239083
:1049D800C85DE025E0FFE433FE90C85BE0FDEEFC37
:1049E800EF4DFD90C85FE075F004A4FFE5F04CFCC6
:1049F800EF4DFD90C861E075F008A4FFE5F04CFCB0
:104A0800EF4DFD90C863E075F010A4FFE5F04CFC95
:104A1800EF4DFD90C865E075F020A4FFE5F04CFC73
:104A2800EF4DFD90C867E075F040A4FFE5F04CFC41
:104A3800EF4DFD90C869E0227B017AC8795A90CB86
:104A480079E4F0A37410F07F9AFE12C12390C85D38
:104A5800E025E0FFE433FE90C85BE0FDEEFCEF4D9F
:104A6800FD90C85FE075F004A4FFE5F04CFCEF4D45
:104A7800FD90C861E075F008A4FFE5F04CFCEF4D2F
:104A8800FD90C863E075F010A4FFE5F04CFCEF4D15
:104A9800FD90C865E022A4FFE5F04CFEEF4DFF90C5
:104AA800C8571225C9900004EE8FF01224287B0104
:104AB8007AC8795A90CB79E4F0A37410F07FAAFEF3
:104AC80012C12390C85DE025E0FFE433FE90C85B87
:104AD800E0FDEEFCEF4DFD90C85FE075F004A4FF2B
:104AE800E5F04CFCEF4DFD90C861E0227B017AC8EF
:104AF800795A90CB79E4F0A37410F07F9AFE12C132
:104B08002390C85DE025E0FFE433FE90C85BE0FD3C
:104B1800EEFCEF4DFD90C85FE075F004A4FFE5F0F2
:104B28004CFCEF4DFD90C861E075F008A4FFE5F07E
:104B38004CFCEF4DFD90C863E075F010A4FFE5F064
:104B48004CFCEF4DFD90C865E075F020A4FFE5F042
:104B58004CFCEF4DFD90C867E075F040A4FFE5F010
:104B68004CFCEF4DFD90C869E02290C8481225E939
:104B7800784B7CC87AE5798C7F8D12343A78D87C6A
:104B8800C87AE679197F1112343A78E97CC87AE64E
:104B9800792A123329781A7CC97AE6795B12332983
:104BA800E490C94B12338112338478537CC97AE676
:104BB800798C7F281234AC787B7CC97D017BFF7AA5
:104BC800E679B47E007F0A12223DE490C985F0A3FD
:104BD800F078877CC97AE679BE7F3012358F78B74E
:104BE8007CC97D017BFF7AE679EE7E017F1812226F
:104BF8003D12339FFFC3940274809480400DEF648C
:104C0800046008EF64056003024CFC90000B12344A
:104C1800109000091223D1FDACF0EC5EFEED5F9020
:104C2800C94B12371090000B1223D1F4FFE5F0F4B2
:104C38005CFEEF5DFF90C94DEEF0A3EFF0E4A3F04A
:104C480090C94FE0123533504DE01233F38005C35D
:104C580033CE33CED8F990C94B1236BD8005CEC3BA
:104C680013CE13D8F94E602990C950E075F003A40B
:104C780024E9F974C835F0FA7B01C002C001123288
:104C8800E17403F0D001D00212AFC090C950E00423
:104C9800F012371D80AAE490C94FF090C94FE01276
:104CA80035334003024DDAE01233F38005C333CEC7
:104CB80033CED8F990C94D1236BD8005CEC313CE78
:104CC80013D8F94E602990C951E075F003A4241A4D
:104CD800F974C935F0FA7B01C002C0011232E174DF
:104CE80003F0D001D00212AFC090C951E004F01215
:104CF800371D80A7E490C94FF090C94F1235864000
:104D080003024DDA90C848123484FD7C0090C94FE4
:104D1800E0FB7E007401A803088005C333CE33CEC0
:104D2800D8F9FFEE5CFEEF5DA8030880031235F8A2
:104D3800D8FB4E7003024DD47BFF7AE3790E90CBFB
:104D48006E1225E912339F6402700C1233FC7C004A
:104D58007D0A1222DD800990C8481225C91233FC49
:104D680090CB71EEF0A3EFF07B017AC9797B124FFB
:104D7800587B017AC9797B12D52090C985EFF0A3B9
:104D88001236C8C002C0011232E17403F0D001D05B
:104D98000212AFC090C986E02403F01236C8C002E0
:104DA800C0017AC9797B90CB6E1225E990C985E05C
:104DB800FF1232F7EFF0D001D00212AFC090C985D0
:104DC800E0FFA3E02FF090C952E004F012371D0273
:104DD8004D0190C8481231957AC979B71234FC74DC
:104DE8008CF012B7F17B017AC979BD1232F17410D7
:104DF800F07AC879D812AFC07BFF7AE3791490CBE8
:104E08006E1225E97AE3791690CB711225E97B01B8
:104E18007AC879D812961B90C94BE07002A3E0605B
:104E28002490C94DE07002A3E0601A7AE379171262
:104E380031CC7AC879E9A31225E990CB76123518D6
:104E480090CB79807890C94BE07002A3E0601E9007
:104E5800C94DE07002A3E070147AE379381231CCBE
:104E68007AC879E9A312351C90CB76805090C94B4B
:104E7800E07002A3E0701C90C94DE07002A3E060EE
:104E8800127BFF7AE379541231CEA312351890CBF6
:104E980076802A90C8481234847BFF60147AE379BC
:104EA800701231CE7AC97953A312351C90CB768013
:104EB8000C7AE3798A1231CE7AC879D8A31225E917
:104EC8007AC8794B124F5890C848123235123410AC
:104ED8007C007D461222DDEF24BAFFEE344F7AC8FB
:104EE800794B12326C742BF002A8E7E508246EF5B2
:104EF80082E434CBF583E005082290CB6B300703BE
:104F080090CB6EE475F0011225D20222632000E9ED
:104F18007F2ED2008018EF540F2490D43440D4FF51
:104F280030040BEF24BFB41A0050032461FFE509D5
:104F380060021509050CE50C7002050B30070E9090
:104F4800CB6BE475F0011225D2EF0222A902D62418
:104F58007403D2078003E4C207F50890CB6B1225CF
:104F6800E9E4F509F50BF50CE50960077F20124F18
:104F78003680F5750AFFC201C200C202C203C2052B
:104F8800C206C208124F02FF700D3007057F0012DB
:104F98004F47AF0CAE0B22B4255FC2D5C204124FE7
:104FA80002FF24D0B40A00501A75F00A780930D5E7
:104FB8000508B6FF0106C6A426F620D5047002D25D
:104FC8000380D924CFB41A00EF5004C2E5D20402FA
:104FD8005148D20180C6D20080C0D20280BCD2D54E
:104FE80080BAD20580B47F20124F362002077401A0
:104FF800B5090040F1124EF3FF124F36024F70D23E
:1050080008D2068095124EF3FB124EF3FA124EF3B5
:10501800F94A4B700679197A527BFF20022EE5096E
:10502800602A7E008E8275830012227C60060EEE56
:10503800650A70F0C2D5EBC0E0EAC0E0E9C0E0EE76
:1050480012518FD0E0F9D0E0FAD0E0FB122263FFD2
:1050580060AAEBC0E0EAC0E0E9C0E0124F36D0E059
:105068002401F9D0E03400FAD0E0FBE50A0460DC62
:10507800D50AD980877BFF7A51798BD202809C79B7
:105088001080027908C206C2088008D2D5790A8041
:1050980004790AC2D5E50A047002F50AE4FAFDFEAD
:1050A800FF124EF3FC7B08200113124EF3FD7B1018
:1050B80030000A124EF3FE124EF3FF7B20EC3382CF
:1050C800D592D55013C3E43000069FFFE49EFEE45A
:1050D8002001039DFDE49CFCE4CBF8C201EC700CBC
:1050E800CFCECDCCE824F8F870F38017C3EF33FFA8
:1050F800EE33FEED33FDEC33FCEB33FB994002FB62
:105108000FD8E9EB300105F8D0E0C448B201C0E09F
:105118000AEC4D4E4F78207B0070C2EAB50A004079
:10512800BCC0E0125191D0F0D0E0200104C4C0E02E
:10513800C4B201C0F0124F1FD0F0D5F0EB024F708F
:1051480012267B500D535087584FDE4C4FDA425091
:105158008B4F5093445093494FF343509955507D8A
:1051680046507D45507D475239504FE22D4FE62E2F
:1051780050092B4FEA2350072052222A4FA24800F9
:105188000050013F3F3F00790AA2D52003143005A3
:1051980009B910020404B9080104A2D52006025076
:1051A80001042002689202B509005034C0E07F2053
:1051B8003003197F30A20272067205500F1251E8AF
:1051C800C202C206C205C2087F30800F300503E95B
:1051D800C0E0124F36300503D0E0F9D0E0B509CC75
:1051E8003005177F30B9100C124F367F583004073E
:1051F8007F788003B90803124F363002057F2D02ED
:105208004F367F202008F87F2B2006F32292028059
:10521800CF286E756C6C2900D201124EF33001F85C
:10522800C201780930D50108F6024FA22D50434932
:1052380058124EF32403B405004001E4905234930D
:10524800124F27743A124F27D20375090402508768
:1052580090C8491225E990C84CEDF0E490C84E1268
:105268003D9978547CC87AED79117F101240CC9022
:10527800C84DE014601514601E14601B24037021CF
:1052880090C8517420F0A314F0801690C85174206F
:10529800F0A37431F0800A90C851741BF0A3741005
:1052A800F01254CDEF7D00FCC005C0041254CDD0DF
:1052B800E04EFED0E090C854125485EF7D00FCC04B
:1052C80005C0041254DED0E04EFED0E090C856125D
:1052D8005485EF7D00FCC005C0041254DED0E04EBA
:1052E800FED0E090C85812549DEF7D00FCC005C068
:1052F800041254EFD0E04EFED0E090C85A12549DEC
:10530800EF7D00FCC005C0041254EFD0E04EFED083
:10531800E090C85C1254B5EF7D00FCC005C00412D3
:105328005500D0E04EFED0E090C85E1254B5EF7D37
:1053380000FCC005C004125500D0E04EFED0E0903D
:10534800C8601241C6125521EF7D00FCC005C0049B
:10535800125521D0E04EFED0E090C8621241C690AE
:10536800C849123D28640590C84E70117434F090F5
:10537800C8507482F090C84F74B5F0800F7430F044
:1053880090C8507462F090C84F7491F090C84C1255
:1053980040D412BFD2123D1690C84EE0FD7C0012D8
:1053A800D396E490C853F090C849123E62FF90C863
:1053B80053E0FEC39F400302546090C84EE02401AE
:1053C800FDE433FCEE123E02123D1E90C854123D1D
:1053D800ED1255112402123DFA123D1E90C85612C4
:1053E8003DED1255112403123DFA123D1E90C85886
:1053F800123DED1255192404123DFA123D1E90C8B3
:105408005A123DED1255192405123DFA123D1E900F
:10541800C85C123DED1255322406123DFA123D1EAB
:1054280090C85E123DED1255322407123DFA123D26
:105438001E90C860123DED12D39690C84EE0240825
:10544800123DFA123D1E90C862123DED12D396909D
:10545800C853E004F00253AF123D1E90C84F123DEE
:10546800DF12D39690C849123DBA90C84E123FDE5B
:1054780090C850E090C8A9123E2B02CBF84FFFEE1F
:10548800F0A3EFF090C851E475F001122390AFF04B
:10549800FE12C9EE224FFFEEF0A3EFF090C851E4E0
:1054A80075F001122390AFF0FE12C9EE224FFFEE05
:1054B800F0A3EFF090C851E475F001122390AFF01B
:1054C800FE12C9EE2290C851E475F001122390AF84
:1054D800F0FE12C9EE2290C851E475F00112239033
:1054E800AFF0FE12C9EE2290C851E475F001122304
:1054F80090AFF0FE12C9EE2290C851E475F0011287
:105508002390AFF0FE12C9EE2212D39690C84EE057
:105518002212D39690C84EE02290C851E475F0014B
:10552800122390AFF0FE12C9EE2212D39690C84E05
:10553800E02290C8491225E97411FFFE12C9EEEF66
:105548007807C333CE33CED8F9FFEE4488FEC007C0
:10555800C0067F107E1112C9EEEF7806C333CE3332
:10556800CED8F9FDD0E04EFED0E04DFFC007C00612
:105578007F0E7E111257F3D0E04CFCD0E04DFDC0F9
:1055880005C0047F417E2012C9EED0E04EFED0E077
:10559800123D147D177C0012D3967F427E2012C9DB
:1055A800EE123D167D187C0012D3967F437E2012A2
:1055B800C9EE123D167D197C0012D3967F447E20D9
:1055C80012C9EE123D167D1A7C0012D3967F457ED5
:1055D8002012C9EE123D167D1B7C0012D396123D97
:1055E8001E123DE37D1C7C0012D3967F477E20125D
:1055F800C9EEEF7F00FEC007C0060F7E1712C9EE86
:10560800EF12421FFCD0E04CFED0E0FFC007C006FE
:105618007F007E1712C9EEEF7807C333CE33CED89A
:10562800F9FDD0E04EFCD0E04DFDC005C0047F463A
:105638007E2012C9EED0E04EFED0E0123D147D1D52
:105648007C0012D3967FFE1257D07F00C4333354A8
:10565800C0FEC007C0067FFF1257D012421FFCD001
:10566800E04CFED0E0FFC007C0067FFD1257D7C44C
:105678003354E0FCD0E04CFED0E0FFC007C0067F0A
:10568800FC1257D7C454F0FCD0E04CFED0E0FFC069
:1056980007C0067FFB1257DE33333354F8FCD0E0E3
:1056A8004CFED0E0FFC007C0067FFA1257DE25E0A7
:1056B80025E0FCD0E04CFED0E0FFC007C0067FF933
:1056C8001257E525E0FCD0E04CFED0E0FFC007C053
:1056D800067FF81257E5FCD0E04CFED0E0FFC0078B
:1056E800C0067FF71257EC7807C333CE33CED8F90C
:1056F800FDD0E04EFED0E04DFFC007C0067FF61299
:1057080057EC7806C333CE33CED8F9FDD0E04EFE41
:10571800D0E04DFFC007C0067FF51258057805C3D5
:1057280033CE33CED8F9FDD0E04EFED0E04DFFC0E9
:1057380007C0067FF47E101257F3D0E04CFED0E08D
:105748004DFFC007C0067FF31258057803C333CE58
:1057580033CED8F9FDD0E04EFED0E04DFFC007C0F3
:10576800067FF27E1012C9EEEF7802C333CE33CE35
:10577800D8F9FDD0E04EFED0E04DFFC007C0067F4F
:10578800F17E1012C9EEEF25E0FDEE33FCD0E04CBF
:10579800FCD0E04DFDC005C0047FF07E1012C9EEBC
:1057A800D0E04EFED0E0123D147D1E7C0012D39650
:1057B80090C849123F48FD7410123DB17417F0A308
:1057C8007408123E2B02CBF87E1012C9EEEF227E2F
:1057D8001012C9EEEF227E1012C9EEEF227E1012CF
:1057E800C9EEEF227E1012C9EEEF2212C9EEEFC405
:1057F800F8540FC868FDEEC454F048FC227E10121D
:10580800C9EEEF2212CD4D78DA7CC67D017BFF7A96
:10581800EE790C7E017F1812223D78F27CC77AEF70
:1058280079247F2212CD4478147CC87AEF79467F98
:105838002612CD4412C9B212D205E490C83EF0FF38
:105848007E4BFDFC12D2887B017AB379B212C9353E
:1058580012A54112CF9D12CD4D12CD3CFFC39430FD
:10586800EE940040030259337C007D8C1222DD7ACD
:10587800C679DA12CD5F748CF012B7F112CD3CFF05
:105888007C007D221222DDEEC313FEEF132400FFFD
:10589800EE3423FE7AC779F212CD5F7411F012B795
:1058A800F190C6DAE06401704A12CD3C7803C33344
:1058B800CE33CED8F92420FFEE3431FE7B017AC6F0
:1058C80079E090CB79E4F0A37408F012A8E77B01A3
:1058D8007AC679DA90C6D8A3E0FD12890C7B017AE2
:1058E800AE79AD90C6DEE0FD90C6DBE090C845F02D
:1058F80012CB1790C7F2E06401702A12CD3C7805EC
:10590800C333CE33CED8F92400FFEE3441125AB057
:1059180012CD3C7803C333CE33CED8F92420FFEE22
:105928003433125AB012CD550258617B017AAE79E0
:10593800AD7F147E0012BD117B017A94795990CB0A
:10594800727409F0A37480F07F407EE77D007C00CC
:1059580012B7F112CD4D12CD3CFFC39480EE9400E6
:10596800505590946475F026EF1225BDEE75F0261B
:10597800A42583F583E06401702090C6D8A37C0039
:105988007D261222DD74592FF974943EFA7B011298
:105998002A3A7BFF7AED799B80067BFF7AED79C8FE
:1059A80090C6D8E0FFA3E090CB6ECFF0A3EFF01243
:1059B8004F5E12CD55809F7DFF7C007F017E1012C7
:1059C800CA2A7B017AAB79C990CB79E4F0A3740633
:1059D800F07F107E3112A8E77BFF7AED79F6124F3F
:1059E8005E12B29012CE0A12A39E12AA63125AC471
:1059F800D390CF9AE0940A90CF99E09400400AE4BB
:105A0800F0A3F090CFAEE004F090CFAEE0D3940ACC
:105A1800748094804014E4F090CFADE004F01291CB
:105A2800B512D35E12D37A12D15D90CFADE0D39484
:105A380002748094804026E4F090CFAFE004F01226
:105A4800CD6912D46612CD6912C2681290F6127D21
:105A58003212CC9C12BE7712BBFE12B66E90CFAF3C
:105A6800E0D39402748094804005E4F012D32412A9
:105A7800CD6912D47E12A7E57B017AC679B6129A4F
:105A8800447B017AC679B6128F7612CEF412ACB97D
:105A980012866612008612B35B12882B12A280123D
:105AA800AD2C128AC00259ECFE7B017AC779F690B8
:105AB800CB79E4F0A37408F012A8E722E490C83A7E
:105AC800F0783B7CC87AE179D81239CA78437CC827
:105AD8007AE179E012386078477CC87D017BFF7AEB
:105AE800E179E47E007F0312223DE490C84AF07B0E
:105AF800017AC8793B12D5FD90C83BE0FF90C843B6
:105B0800E4F0A3EFF090C83CE090C845F090C83DA1
:105B1800E090C846F090C83EE0FFD39400748094AB
:105B2800804005EF14FF80027F0690C84AEFF0908E
:105B3800C83FE090C847F090C840E090C848F0904F
:105B4800C841E0FF90C849F0909410E06F700302DC
:105B58005D5E90C849E0909410F0E490C83AF090E7
:105B6800C83A123BD94003025D5E123990700302B5
:105B78005D5590C83AE0909469123A206003025C3F
:105B880019EF12390190C84A123C058005C333CE7B
:105B980033CED8F9123CE08003123B2DD8FB6401C8
:105BA8004E6003025D5590C83AE0909461123A0243
:105BB800FE90C847E06E6003025D55909462123A09
:105BC8001FFF90C848E06F6003025D55A3E06003C3
:105BD800025D55123924123BAD8005C333CE33CE56
:105BE800D8F990C83A123BCB8003123B2DD8FB4E14
:105BF8006003025D557BFF7ADD79C2124F5E123970
:105C080024C083C082123C468002C333D8FC025DA4
:105C18004F90C83AE0909459123A02FCA3E0FD90E4
:105C2800C843E0FAA3E0FBD3ED9BEC9A4003025D86
:105C38005590945B123B5EFF90C845E0FEEFD39E03
:105C48004003025D5590C83AE0FF90945C123B5FB8
:105C5800FD90C846E0FCEDD39C4003025D5590944E
:105C68005D123B5EFAA3E0FB90C843E0F8A3E0F5C1
:105C780082C3EB9582EA985003025D5590C83AE0DA
:105C880090945F123C4EC39E5003025D5575F026FA
:105C9800EF9094601225BDE0C39C5003025D5590BF
:105CA800C83AE0FD123901FB7A0090C84AE0FC7E50
:105CB800007401A804088005C333CE33CED8F9FF99
:105CC800EE5AFEEF5BA804088003123B2DD8FB6454
:105CD800014E707975F026ED9094611225BDE0FFB4
:105CE80090C847E06F706690C83AE0FD90946212E1
:105CF8003C4EFF90C848E06F7053A3E0704F90C8C7
:105D08003AE0FF131313541FFC12392EE0FB7A00FC
:105D1800123BB18005C333CE33CED8F9FFEE5AFE1D
:105D2800EF5BA805088003123B2DD8FB4E701E9030
:105D3800C83AE0FF74412C123930C083C082123C4B
:105D4800468002C333D8FC4ED082D083F090C83A44
:105D5800E004F0025B672290C83A1225E990C84334
:105D680012338012356B12D6DC90C843E07004A35E
:105D7800E064016003025E191233AB643160030210
:105D88005E1990C840123195FF90C83D1225C9127E
:105D9800363212D55D90C83D1232351235A1125EE9
:105DA800ED125FC412319212344FC083C082123494
:105DB8002F8002C333D8FC4ED082D083F0123192A8
:105DC8001235FF1232D6E92DF9EC3AFAC003C002B7
:105DD800C0011222631234308002C333D8FC4ED083
:105DE80001D002D00312318F125FD51231921234D2
:105DF800E6F090C83D123235123410C39405EE9483
:105E08000040061235A7025EE7123724E0FF025E63
:105E1800E790C843E07004A3E0640270141233AB47
:105E28006431700D12356B12C6D3E490C0A1025EC6
:105E3800E190C843E07004A3E0640170781233ABCA
:105E48006451707112319212344FC083C08212347F
:105E58002F8002C333D8FC4ED082D083F012319207
:105E68001235FF1232D6E92DF9EC3AFAC003C00216
:105E7800C0011222631234308002C333D8FC4ED0E2
:105E880001D002D00312318F125FD5125EED125F7E
:105E9800C41231921234E6F090C83D1232351234F1
:105EA80010C39405EE940040051235A780051237FB
:105EB80024E0FF802A90C843E07004A3E0640270E5
:105EC800231233AB6451701C12356B12C6D3E490A5
:105ED800C0A1F01231921234E6F090C00CE0FF7EBF
:105EE8000012BE1F2290C83D1225C990000212233D
:105EF800D1FFAEF07C007D181222DD74A22FF97458
:105F0800C03EFA7B0190C84B1225E990C840122583
:105F1800C990C84E1225E990C83D1225C9900002C3
:105F28001223D1FF90C851E5F0F0A3EFF0900007DD
:105F380012227C90C853F090C83A1225C912425ECA
:105F480090C83D1225C99000021223D1FFAEF07C03
:105F5800007D181222DD74A22FF974C03EFA7B016D
:105F680090C84B1225E990C8401225C990C84E1216
:105F780025E990C83D1225C99000021223D1FF904F
:105F8800C851E5F0F0A3EFF090000712227C90C80A
:105F980053F090C83A1225C912724D90C83D122587
:105FA800C99000021223D1FFAEF07C007D181222A6
:105FB800DD74A22FF974C03EFA7B0122124B727B6A
:105FC800017AC879437F2E7E1012C6D3222400FF9F
:105FD800E43412FE7D017C0012CA2A2290C83D12C8
:105FE80025E9E490C840123D9778477CC87AED7956
:105FF8006D123F0C784F7CC87AED7975123E6BE4D0
:1060080090C840F090C840E0FDFF7E00C39404743F
:106018008094805062EF25E0FFEE124121E0FE12ED
:106028003FE9E0FDEF6D7001EE60447BFF7AE979AE
:10603800B6124F5E90C840E0FD25E0FFE412412112
:10604800123FE9EFF090C83D123D28640290C84025
:10605800700AE0FD2400FFE434118008E0FD2413F9
:10606800FFE43410FE123FECE0FD7C0012CA2A90D7
:10607800C840E004F0808D12002EEF64114E600CD1
:1060880012002EEF64124E600302623B12422C1281
:106098003E7F12413812C12390C84FE0700302615D
:1060A8005612422C7F087E0012BD1190C853E0FEA4
:1060B800A3E07C0090C84312423390C851E0FEA38D
:1060C800E090C84512423390C850E06403701390C2
:1060D800A770E0700D04F0E4A3F07BFF7AE979D6AD
:1060E800803890C850E06402701690A770E0640190
:1060F800700E7403F0E4A3F07BFF7AE979ED801A5F
:1061080090C850E06402701590A770E0700FA3E08B
:10611800700B04F07BFF7AEA7904124F5EE490C8B2
:106128004F123D9912422C90CB79F0A312413812AC
:10613800A8E77AEA791990C84512404390C843E025
:10614800FFA3E090CB70CFF0A3EFF0124F5E123DAB
:106158001E123DE37D1B7C0012D39690C83D123D74
:106168002864027B017AC8794790CB79700BF0A339
:106178007404F07F007E11800AE4F0A37404F07FB9
:10618800137E1012C123123D1E123DCB7D167C00DA
:1061980012D396123D1E90C848123EABEFF07D1701
:1061A8007C0012D396123D1E90C84A123EABEFF007
:1061B8007D187C0012D396123D1E90C84C123EAB3F
:1061C800EFF07D197C0012D396123D1E90C84E1236
:1061D8003EABEFF07D1A7C0012D396123D3190C889
:1061E80043E0FEA3E0FFD39406EE94014027EF942A
:1061F80026EE9402501F90A770E064036006A3E0A7
:10620800640170117BFF7AEA7942124F5E90A76FA2
:10621800740112418890A76FE06401701DF090C866
:106228003D123DBA123E2112CBF87BFF7AEA795033
:10623800024F5EE490A770F0A3F02290C83D1225AB
:10624800E9E490C840F0A3F0A3F078437CC87D014E
:106258007BFF7AED7921FE7F3C12223D787F7CC856
:106268007AED795D7F10123E861241CE12D6DC900F
:10627800AFB0E0FEA3E0FF908041E06E7003A3E0C2
:106288006F60597BFF7AE97994124F5E908041E004
:10629800FFA3E0CF123F35E490C842F090C842E037
:1062A800FD12405D5036908041E0FEA3E0A805084D
:1062B8008005CEC313CE13D8F95401FFED12415413
:1062C800E4F0A3EFF0ED90C842123F77123D90043E
:1062D800F012A8E790C842E004F080C090C840E0FF
:1062E8007002A3E0700302641F12D6FEEF6003027F
:1062F800641F90C841E025E0FF90C840E033FE7479
:10630800612FF58274AD3EF583E06401F07B017A7C
:10631800AD79627F207E0012BD1190C840E0FCA3D9
:10632800E0FD242FFFEC3410FEC006C007ED25E089
:10633800FFEC33FE74602FF974AD123D8C04F0D07D
:1063480007D00612A8E790C83D123D2860046401F2
:106358007069123E656404700E123D1E123F61247E
:1063680042F58274C88070123E5F6406700E123D5A
:106378001E123F61244EF58274C8805B123E5F6432
:1063880008700E123D1E123F61245AF58274C880AF
:1063980046123E5F640A700E123D1E123F6124666B
:1063A800F58274C88031123E5F640C7038123D1E4D
:1063B800123F612472F58274C8801C90C83D123D5A
:1063C80028FF64046005EF6405701A123D1E123F31
:1063D80061247EF58274C83EF583123EABEFF0E48B
:1063E800FDFC12D396123D1E123DE37D017C001286
:1063F800D39690C83D123DBAE4A3F0A3F0A374026B
:10640800123E2B12CBF8123F2C908041EEF0A3EFF6
:10641800F01241CE12C6D32290C8B21225E9E490F8
:10642800C8B5F0A3F090C8BAF0A3F0A3F0A3F0FFAA
:10643800FEA3F0A3F012B7D790000312227C90C8F5
:10644800BEF090000B1225F290C8B71225E912B7DA
:10645800D790000E1223D190C8BC12B7C29000107A
:1064680012B7BCA3E0FF12B79AEF1222A990C8BCDA
:1064780012B791900001EF1222BB90C8BA12B792DE
:10648800900002EF1222BB90C8BA12B79190000395
:1064980012B7CA90C8BDE02FFF90C8BCE03EFE12FC
:1064A800B7D79000091223D1FDD3EF9DEE95F07F69
:1064B8000050027F0190C8BFEFF0E490C8B5F0A388
:1064C800F090000112227C24FA601624F6607224EF
:1064D8000D60030265C390C8BFE070030265C38006
:1064E8005512B7D79000091223D1FF90C8BCE0FC21
:1064F800A3E0FDC39FEC95F040030265C3ED25E0E2
:10650800FFEC33FE90C8B71225C98F828E8312B76D
:10651800BC90C8BAE0FCA3E0FDEC12B7939000046D
:10652800EF1222BBAF0512B79490000512B7CA123A
:10653800B7D7EE12B7DD90C8B5E4F0A37406F080C3
:106548007A90C8BFE0607412B7CE25E0FD12B79408
:10655800900004ED1222BBEF25E0FFEE33FEEF249E
:1065680007FFE43E90C8B5F0A3EFF090C8BEE07016
:106578004A12B794E92405F9E43AFAC003C002C004
:106588000190C8BDE025E0FF90C8BCE033FE90C88C
:10659800B71225C9E92FF9EA3EFA90C8C31225E9CE
:1065A80090C8BAE0FFA3E090C8C6CFF0A3EFF0E42C
:1065B800A3F0D001D002D00312AB5790C8B574FF36
:1065C80075F0FE12237A90C8B5E0FEA3E0FF22E43E
:1065D80090C83CF0A3F07F2112677A7004A3E064AE
:1065E8000160030266A6123D1E123DCB7D167C009B
:1065F80012D396123D1E123EAD7464F07D177C00D6
:1066080012D396123D1E123EAD7464F07D187C00C4
:1066180012D396123D1E123EAD7464F07D197C00B3
:1066280012D396123D1E123EAD7464F07D1A7C00A2
:1066380012D396123D1E123DE37D1B7C0012D396A9
:10664800123D1EE4123DCD7D1CFC12D396123D1E58
:10665800E4123DCD7D1DFC12D396123D1EE4123D81
:10666800CD7D1EFC12D396123D1E123DCB7D1F7CA4
:106678000012D396123D1E123DCB7D207C0012D312
:1066880096123D1E123DE37D217C0012D396123EE8
:106698002C123DC41267637F217E1B12C6D37F2252
:1066A80012677A7004A3E064016003026762123D16
:1066B8001E123DCB7D167C0012D396123D1EE412AD
:1066C8003DCD7D17FC12D396123D1EE4123DCD7DC3
:1066D80018FC12D396123D1EE4123DCD7D19FC1212
:1066E800D396123D1EE4123DCD7D1AFC12D39612AC
:1066F8003D1E123DE37D1B7C0012D396123D1EE425
:10670800123DCD7D1CFC12D396123D1EE4123DCDE8
:106718007D1DFC12D396123D1EE4123DCD7D1EFC5C
:1067280012D396123D1E123DCB7D1F7C0012D396CC
:10673800123D1EE4123DCD7D20FC12D396123D1E63
:10674800123DE37D217C0012D396123E2C123DC4EB
:106758001267637F227E1B12C6D322A3E4F0A374C0
:1067680016F0A3740DF0E4FD12CBF87B017AC8791A
:106778003C227B017AC8793C7E1B12D6DC90C83C4F
:10678800E02290C942EFF0A31225E9E490C949F04C
:10679800300A03026823F090C949E0C39407748063
:1067A80094805005126B5080EE90C943126AEFE94D
:1067B8002407F9E43AFAC003C002C001126BD4D02E
:1067C80001D002D00312692125E0240490000212AE
:1067D80022BB90C942126B147004D2808008EF6407
:1067E800054E7002D281E490C949F0126AE090C95E
:1067F80049126B7D500812BECF126B7380ED90C9A1
:1068080042126B147006200DFDC28022EF64054E03
:106818006003026920200EFDC28122E490C94A1259
:106828006C2090C949F090C949E0C39409748094D8
:10683800805005126B5080EE90C9431225C9126B27
:10684800F9C003C002C001126AE0126C17D001D06F
:1068580002D00312C218126AD8126BBF126B0190D1
:10686800C94CF0A3EFF090C94AE06E7003A3E06F43
:10687800600302692090C943126AEFE92407F9E42A
:106888003AFAC003C002C001126BD4D001D002D0C2
:106898000312692125E02406900002126BF6C0035A
:1068A800C002C001126AE0126C17D001D002D003F6
:1068B80012C218126AD8126C3EEF1222BB90C94A53
:1068C800E0FF126AE6126C3EA3EF1222BB90C942A7
:1068D800126B147004D2808008EF64054E7002D2E7
:1068E80081E490C949F0126AE02403FFE433FE9082
:1068F800C949126B83500812BECF126B7380E790A0
:10690800C942126B147006200DFDC28022EF640587
:106918004E7005200EFDC2812212C12390C9431278
:1069280025C990000612227C2290C83C1225E990C5
:10693800C83FEDF0E4A3123D97123D9A784C7CC80D
:106948007AED79007F111240CC12002EEF64384E98
:106958006003026ACD90AFADE064016003026ACDC6
:1069680012D704EF64036003026ACD7B017A807951
:10697800637F50FE12BD11E490AFADF012D70A7BD1
:10698800FF7AE97901124F5E90C83C123D286405F0
:10699800703612403750317AE97922126ACEF925D9
:1069A800E0FDE433FC1241A5E0FAEA1241B0EA54F2
:1069B8007FA3F01241A5A3E090C849F0E975F01053
:1069C800A4245BF97480806A90C83C123D28640155
:1069D8007072124037506D7AE9792E126ACE25E02E
:1069E800FBE433FA1241BBE0FCEC1241B0EC547FFB
:1069F800FFA3F0FD1241BBA3E090C849F07BFF7AEA
:106A0800E9793A90CB6EEDF0124F5E7AE9795790BA
:106A1800C84912407C124F5E7AE9797690806312F9
:106A28004043124F5E90C83FE075F010A42453F91C
:106A3800748035F0FA7B01784C7CC87D017E007F3C
:106A48001012223D90C83FE0FD25E0FFE433FE74BC
:106A5800452FF58274803EF583A3E0F490C842F098
:106A680090C8407410F0A374DEF090C8457410F01C
:106A7800A374EDF090C8437420F0A3741DF090C87F
:106A88004A7420F0A314F07C007F1C7E2012CA2ACE
:106A980090C840124014FD12B1C490C8431240146B
:106AA800FCA3E0FDA3E0FBA3E090C862F090C84916
:106AB800E090C863F012B22A90C84A12400C7AC813
:106AC800794C12B8B0227BFF124F5E90C83FE0228B
:106AD80090C94AEEF0A3EFF090C9431225C990007F
:106AE8000202227C90C9431225C990000412227C1C
:106AF800FE90000512227C7C002400FFEC3EFE2262
:106B08007D017BFF7E0012223D90C942E0FF7E009E
:106B180064042290C83A1225C990C842E090C8413E
:106B28002403FFE034008F82F58302227C4FFF901C
:106B380000001225C9900000E475F0011223908529
:106B4800F082F583EF0222BB90C9461225C990C98D
:106B580049E0FFF58275830012227CFE90C943123A
:106B680025C98F82758300EE1222BB90C949E004C3
:106B7800F0229000002403FFE433FEE0C39FEE649C
:106B880080F874809822A201920A90C840E0FF9091
:106B9800C83A1225C990C841E022E475F0010223E1
:106BA8007AE4FDFC1225747F007EC07D890C1224D6
:106BB8009EAC06AD07EC22FD7C00F5828C83A3A376
:106BC80012227CFE8D828C83A302227C90C9431200
:106BD80025C990000612227CFD90CB79ECF0A3ED3C
:106BE800F0227B0190C83D1225E990C8402212226C
:106BF800BBE92403F9E43AFA229000001225C9906F
:106C08000000E0227401F0C3EF94FFEE9407222401
:106C1800FEFDE434FFFC22E4F0A3F0A3F0A3F0228D
:106C28007D017BFFFE02223DF583E0FD12BEE1906F
:106C3800C946E004F022F582758300A322FF900084
:106C4800001225C9900002EF22FEEC34FF90CB79A8
:106C5800F0A3CEF02290C83C1225E9E490C83FF09A
:106C6800A3F07F05FE1200037AC8793F123E7D1219
:106C7800420012C12390C83FE0FEA3E0FF64044E27
:106C88006033EF64064E602DEF64084E6027EF64B2
:106C98000A4E6021EF640C4E601BEF640E4E6015C7
:106CA800EF64104E600FEF64144E6009EF64244ED9
:106CB8006003026DAAE4126DCC123D9012420012DC
:106CC800A8E7123FA27F147E0012BD117B017AACA7
:106CD8007933123E7F04F07F007E2012C1237F02A9
:106CE8007E00120003123FA290AC33A3E0FD12CF46
:106CF80074EF60177F1F12AEE97BFF7AE8797D1287
:106D08004F5E7BFF7AE87995024F5E12414890AC5E
:106D18001DA3E090C845123FE212A9E590C83C12B5
:106D28003F48FD90AE9EE090C845F0123FA212CBBE
:106D38001790AE9EE075F08CA4FFAEF0E4FCFD90D9
:106D4800C83C1225C990C85512413112BF2690AED1
:106D58009E1240AD3431FE90C83C123EFA123D906E
:106D68007408F012A8E712414812890C7BFF7AE8F0
:106D780079B8124F5E90AE9EE0FF12403B400EEF96
