:10000000021D12120056D2B3D2B27F0F1223ADC21C
:10001000B37F0F1223ADC2B27F0F1223AD2253BEA6
:02002000F722C5
:10002300021F31200A05D20A12158E909B4CE0FE66
:10003300A3E0C394F4EE9401400A1216BFE4909B2C
:0E0043004CF0A3F0121C5F225396FEC2043252
:0700530002004B43BE08222E
:03005B00021FF68B
:030063000224CDA7
:10006B00022051120056D2B3D2B2122465C2B3127F
:10007B002465C2B212246522021EC4909A35EEF09A
:10008B00A3EFF0E4A3F0A3F0F5F1909A35E0FEA313
:10009B00E0FFEEC313FEEF13EEF5F2909A35E0FEA0
:1000AB00A3E0FFEEC313EF13F5F375F8AFD2FE9099
:1000BB009A35E0A3E030E014AFFCEFFEADFD7C0021
:1000CB00E42DFFEC3EA3F0A3EFF08014AFFAEFFEAC
:1000DB00ADFB7C00E42DFFEC3E909A37F0A3EFF0E4
:0C00EB00E4F5F8909A37E0FEA3E0FF2255
:1000F800FFFF4457494E5435E709F608DFFA8046B2
:10010800E709F208DFFA803E88828C83E709F0A3CA
:10011800DFFA8032E309F608DFFA8078E309F208AB
:10012800DFFA807088828C83E309F0A3DFFA8064A9
:1001380089828A83E0A3F608DFFA805889828A8355
:10014800E0A3F208DFFA804C80D280FA80C680D41F
:10015800806980F28033801080A680EA809A80A827
:1001680080DA80E280CA803389828A83ECFAE49359
:10017800A3C8C582C8CCC583CCF0A3C8C582C8CCE7
:10018800C583CCDFE9DEE7800D89828A83E493A307
:10019800F608DFF9ECFAA9F0EDFB2289828A83ECF4
:1001A800FAE0A3C8C582C8CCC583CCF0A3C8C58271
:1001B800C8CCC583CCDFEADEE880DB89828A83E4A9
:1001C80093A3F208DFF980CC88F0EF60010E4E604F
:1001D800C388F0ED2402B4040050B9F582EB240280
:1001E800B4040050AF232345822390015073BB0110
:1001F8000689828A83E0225002E722BBFE02E322BC
:1002080089828A83E49322BB010CE58229F582E581
:10021800833AF583E0225006E92582F8E622BBFE00
:1002280006E92582F8E222E58229F582E5833AF596
:1002380083E49322BB010689828A83F0225002F765
:1002480022BBFE01F322F8BB010DE58229F582E508
:10025800833AF583E8F0225006E92582C8F622BBE6
:10026800FE05E92582C8F222EF8DF0A4A8F0CF8C14
:10027800F0A428CE8DF0A42EFE22BC000BBE0029CF
:10028800EF8DF084FFADF022E4CCF875F008EF2F85
:10029800FFEE33FEEC33FCEE9DEC984005FCEE9D42
:1002A800FE0FD5F0E9E4CEFD22EDF8F5F0EE84205E
:1002B800D21CFEADF075F008EF2FFFED33FD4007BF
:1002C800985006D5F0F222C398FD0FD5F0EA22C265
:1002D800D5EC30E709B2D5E4C39DFDE49CFCEE30D3
:1002E800E715B2D5E4C39FFFE49EFE120282C3E481
:1002F8009DFDE49CFC800312028230D507C3E49F75
:10030800FFE49EFE22C5F0F8A3E028F0C5F0F8E56A
:1003180082158270021583E038F022A3F8E0C5F058
:1003280025F0F0E582158270021583E0C838F0E800
:1003380022BB010A89828A83E0F5F0A3E0225006F5
:1003480087F009E71922BBFE07E3F5F009E3192254
:1003580089828A83E493F5F07401932275F0087515
:100368008200EF2FFFEE33FECD33CDCC33CCC582E8
:1003780033C5829BED9AEC99E58298400CF582EEA4
:100388009BFEED9AFDEC99FC0FD5F0D6E4CEFBE48C
:10039800CDFAE4CCF9A88222B800C1B90059BA0054
:1003A8002DEC8BF084CFCECDFCE5F0CBF97818EFAF
:1003B8002FFFEE33FEED33FDEC33FCEB33FB10D7B0
:1003C80003994004EB99FB0FD8E5E4F9FA22781871
:1003D800EF2FFFEE33FEED33FDEC33FCC933C910CC
:1003E800D7059BE99A4007EC9BFCE99AF90FD8E0FE
:1003F800E4C9FAE4CCFB2275F010EF2FFFEE33FED0
:10040800ED33FDCC33CCC833C810D7079BEC9AE842
:1004180099400AED9BFDEC9AFCE899F80FD5F0DAC3
:10042800E4CDFBE4CCFAE4C8F922E86010ECA2E7DA
:1004380013FCED13FDEE13FEEF13FFD8F022E0FCE2
:10044800A3E0FDA3E0FEA3E0FF22E0F8A3E0F9A308
:10045800E0FAA3E0FB22ECF0A3EDF0A3EEF0A3EFAB
:10046800F022A8828583F0D083D0821204811204FE
:1004780081120481120481E473E493A3C583C5F057
:10048800C583C8C582C8F0A3C583C5F0C583C8C5E0
:1004980082C822E0FBA3E0FAA3E0F922F8E0FBA37C
:1004A800A3E0F925F0F0E582158270021583E0FAE1
:1004B80038F022EBF0A3EAF0A3E9F022D083D0824F
:1004C800F8E4937012740193700DA3A393F8740168
:1004D80093F5828883E4737402936860EFA3A3A3FF
:1004E80080DF909B30EFF0A31204BBE4909B37F0C1
:1004F800300103020626F0909B37E0C3940774800E
:100508009480502E909B3412049B909B37E0F58288
:1005180075830012020FFF909B3112049B909B374A
:10052800E0F582758300EF12024E909B37E004F0ED
:1005380080C5909B3112049B90000412020FFE901C
:100548009B3112049B90000512020F7C002400FFCF
:10055800EC3EFE909B3112049BE92407F9E43AFA39
:10056800C003C002C001909B3112049B9000061288
:10057800020FFD909B41ECF0A3EDF0D001D002D02A
:100588000312191B909B3112049B90000612020F54
:1005980025E02404FF909B3112049B900002EF1287
:1005A800024E909B30E064047004D280800A909BD5
:1005B80030E064057002D281E4909B37F0909B3163
:1005C80012049B90000212020F2403FFE433FE90F2
:1005D8009B37E0C39FEE6480F87480985021909B0D
:1005E80030E0FFA312049B909B37E0F582758300EF
:1005F80012020FFD121F97909B37E004F080BE9007
:100608009B30E0640470062004FDC28022909B3079
:10061800E06405600302087C2005FDC28122E490A5
:100628009B38F0A3F0A3F0A3F0909B37F0909B3792
:10063800E0C3940974809480502E909B3412049BDC
:10064800909B37E0F58275830012020FFF909B3173
:1006580012049B909B37E0F582758300EF12024EDF
:10066800909B37E004F080C5909B3112049BE924ED
:1006780003F9E43AFAC003C002C001909B311204A6
:100688009B90000212020F24FEFDE434FFFCD0010F
:10069800D002D003121E4F909B38EEF0A3EFF090DB
:1006A8009B3112049B90000212020F2402FFE433D4
:1006B800FE909B3112049B8F828E8312020FFE9054
:1006C8009B3112049B90000212020F2401FDE433B7
:1006D800FC909B3112049B8D828C8312020F7C004C
:1006E8002400FFEC3E909B3AF0A3EFF0909B3AE099
:1006F800FEA3E0FF909B38E0FCA3E06F7002EC6E75
:10070800600302087C909B3112049B900004120243
:100718000FFE909B3112049B90000512020F7C0083
:100728002400FFEC3EFE909B3112049BE92407F95C
:10073800E43AFAC003C002C001909B3112049B90B6
:10074800000612020FFD909B41ECF0A3EDF0D001E2
:10075800D002D00312191B909B3112049B90000603
:1007680012020F25E02406FF909B3112049B900093
:1007780002EF12024E909B3112049BE92403F9E424
:100788003AFAC003C002C001909B3112049B90004A
:100798000212020F24FEFDE434FFFCD001D002D087
:1007A80003121E4F909B38EEF0A3EFF0909B38E0B9
:1007B800A3E0FF909B3112049B90000212020F24C9
:1007C80001FDE433FC909B3112049B8D828C83EFF6
:1007D80012024E909B38E0FEA3E0EEFF909B311290
:1007E800049B90000212020F2402FDE433FC909B4C
:1007F8003112049B8D828C83EF12024E909B30E065
:1008080064047004D280800A909B30E06405700212
:10081800D281E4909B37F0909B3112049B900002A8
:1008280012020F2403FFE433FE909B37E0C39FEED0
:100838006480F87480985021909B30E0FFA31204E4
:100848009B909B37E0F58275830012020FFD121F03
:1008580097909B37E004F080BE909B30E064047072
:10086800062004FDC28022909B30E06405700520BC
:1008780005FDC28122429B4E0000429B540000426B
:100888009B4A0000449B500001D4C0429B4C00008E
:10089800C10A6100982800C1814001C0804101C09F
:1008A800804100C1814001C0804100C1814000C138
:1008B800814001C0804101C0804100C1814000C128
:1008C800814001C0804100C1814001C0804101C018
:1008D800804100C1814001C0804100C1814000C108
:1008E800814001C0804100C1814001C0804101C0F8
:1008F800804100C1814000C1814001C0804101C0E8
:10090800804100C1814001C0804100C1814000C1D7
:10091800814001C0804101C0804100C1814000C1C7
:10092800814001C0804100C1814001C0804101C0B7
:10093800804100C1814000C1814001C0804101C0A7
:10094800804100C1814001C0804100C1814000C197
:10095800814001C0804100C1814001C0804101C087
:10096800804100C1814001C0804100C1814000C177
:10097800814001C0804101C0804100C1814000C167
:10098800814001C0804100C1814001C0804101C057
:10099800804100C181406100992800C0C101C303A2
:1009A80002C2C60607C705C5C404CC0C0DCD0FCFBF
:1009B800CE0E0ACACB0BC90908C8D81819D91BDB2F
:1009C800DA1A1EDEDF1FDD1D1CDC14D4D515D7177F
:1009D80016D6D21213D311D1D010F03031F133F32F
:1009E800F23236F6F737F53534F43CFCFD3DFF3F7F
:1009F8003EFEFA3A3BFB39F9F83828E8E929EB2BAF
:100A08002AEAEE2E2FEF2DEDEC2CE42425E527E73E
:100A1800E62622E2E323E12120E0A06061A163A3AE
:100A2800A26266A6A767A56564A46CACAD6DAF6F3E
:100A38006EAEAA6A6BAB69A9A86878B8B979BB7BAE
:100A48007ABABE7E7FBF7DBDBC7CB47475B577B7FE
:100A5800B67672B2B373B17170B05090915193532E
:100A6800529296565797559594549C5C5D9D5F9FFE
:100A78009E5E5A9A9B5B99595898884849894B8B2E
:100A88008A4A4E8E8F4F8D4D4C8C448485458747BE
:100A980046868242438341818040419B5A02419865
:100AA800220042981C000041800400C102419825A0
:100AB8000042981E000041800500C10341982600AD
:100AC800429820000041800600C104419827004256
:100AD8009823000041800700C105C106C100C1017B
:100AE800438001FF24D300909B30EFF0A31204BB96
:100AF800E4909B34F0300103020BD8909B31120430
:100B08009B90000412020FFE909B3112049B9000F0
:100B18000512020F7C002400FFEC3EFE909B311270
:100B2800049BE92406F9E43AFAC003C002C0019024
:100B38009B3112049B90000212020F24FDFDEC343D
:100B4800FF909B46F0A3EDF0D001D002D003120F26
:100B580026200603020D4E7BFF7A25798C78357C9A
:100B68009B7D017E007F061201D0909B30E06404DB
:100B78007004D280800A909B30E064057002D281B4
:100B8800E4909B34F0909B34E0C394067480948086
:100B9800501F909B30E0FF909B34E02435F582E4B1
:100BA800349BF583E0FD121F97909B34E004F0809E
:100BB800D4909B30E0640470062004FDC28022902B
:100BC8009B30E064056003020D4E2005FDC28122C2
:100BD800E4909B35F0A3F0A3F0A3F0909B311204AE
:100BE8009BE92403F9E43AFAC003C002C001909BD0
:100BF8003112049B90000212020F24FEFDE434FF20
:100C0800FCD001D002D003121E4F909B35EEF0A30A
:100C1800EFF0909B3112049B90000212020F240205
:100C2800FFE433FE909B3112049B8F828E83120265
:100C38000FFE909B3112049B90000212020F2401B8
:100C4800FDE433FC909B3112049B8D828C8312024D
:100C58000F7C002400FFEC3E909B37F0A3EFF09050
:100C68009B37E0FEA3E0FF909B35E0FCA3E06F70AC
:100C780002EC6E6003020D4E909B3112049B9000B3
:100C88000412020FFE909B3112049B900005120281
:100C98000F7C002400FFEC3EFE909B3112049BE980
:100CA8002406F9E43AFAC003C002C001909B31124D
:100CB800049B90000212020F24FBFDEC34FF909B72
:100CC80046F0A3EDF0D001D002D003120F26300673
:100CD800757BFF7A25799278397C9B7D017E007F30
:100CE800081201D0909B30E064047004D280800A1E
:100CF800909B30E064057002D281E4909B34F090C0
:100D08009B34E0C3940874809480501F909B30E01B
:100D1800FF909B34E02439F582E4349BF583E0FDB1
:100D2800121F97909B34E004F080D4909B30E064CD
:100D38000470062004FDC28022909B30E064057098
:100D4800052005FDC281227F9C7E00120086909AB4
:100D580028EEF0A3EFF0909A28E0FEA3E064A570D7
:100D680003EE645A6003020F25A3F0A3F0D2087BB8
:100D7800FF7A2679A1782C7C9A7D01FE7F071201E3
:100D8800D07F9D7E00120086909A33EEF0A3EFF09C
:100D9800909A33E0FEA3E0EE909A2AF0E075F00A0C
:100DA80084C454F0FFE075F00A84EF25F0909A2C83
:100DB800F0909A33E0A3E0909A2AF0E075F00A8464
:100DC800C454F0FFE075F00A84EF25F0909A2DF0F6
:100DD8007F9E7E00120086909A33EEF0A3EFF0908B
:100DE8009A33E0FEA3E0EE909A2AF0E075F00A84C8
:100DF800C454F0FFE075F00A84EF25F0909A2EF0C5
:100E0800909A33E0A3E0909A2AF0E075F00A84C43F
:100E180054F0FFE075F00A84EF25F0909A30F07FE7
:100E28009F7E00120086909A33EEF0A3EFF0909A1E
:100E380033E0FEA3E0EE909A2AF0E075F00A84C44D
:100E480054F0FFE075F00A84EF25F0909A31F090A5
:100E58009A33E0A3E0909A2AF0E075F00A84C4542B
:100E6800F0FFE075F00A84EF25F0909A32F0E4FD87
:100E7800FC7F9CFE121DB4200803020F2512006E91
:100E88007F6412227A7F3012227AE4FF12227A12C9
:100E9800249412006E7F6412227A7F1C12227A7FB9
:100EA8004812227AE4FF12227A7F4012227A7F10B7
:100EB80012227A12249412006E7F6412227A7F1012
:100EC80012227A909A32E0FF12227A909A31E0FF49
:100ED80012227A909A30E0FF12227A909A2FE0FF3D
:100EE80012227A909A2EE0FF12227A909A2DE0FF31
:100EF80012227A909A2CE0FF12227A12249412007D
:100F08006E7F6412227A7F1E12227AE4FF12227AFE
:100F18007F1012227A122494C208020E7F22909B1C
:100F280041EEF0A3EFF0A31204BB909B41E0A3E0D5
:100F38005401909B48F0909B41E0FEA3E0FFEEC374
:100F480013FEEF13FF909B41EEF0A3EFF0E4F5F1F1
:100F5800909B41E0FEA3E0EEF5F2909B41E0A3E018
:100F6800F5F375F40175F88F30FCFD909B48E0604F
:100F78006D909B46E0FEA3E0D39400EE9400405EA3
:100F8800909B46E0A3E064014E702275F882909B26
:100F98004375F0011204A41201F6F5FCD2FE20FEFE
:100FA800FD909B4674FFF5F012030D803175F883B0
:100FB800909B43E475F0011204A41201F6F5FC902D
:100FC8009B43E475F0011204A41201F6F5FDD2FE6C
:100FD80020FEFD909B4674FF75F0FE12030D75F818
:100FE8008F909B46E0FEA3E0C39404EE9400404E2D
:100FF800909B43E475F0011204A41201F6F5FA90EF
:101008009B43E475F0011204A41201F6F5FB909BD2
:1010180043E475F0011204A41201F6F5FC909B4319
:10102800E475F0011204A41201F6F5FDD2FE20FECB
:10103800FD909B4674FF75F0FC12030D80A3909BF6
:1010480046E0FEA3E064034E703875F88E909B432B
:1010580075F0011204A41201F6F5FA909B43E475A9
:10106800F0011204A41201F6F5FB909B43E475F01D
:10107800011204A41201F6F5FCD2FE30FE5B80FBDF
:101088008057909B46E0FEA3E064024E702975F8F5
:101098008C909B4375F0011204A41201F6F5FA90A6
:1010A8009B43E475F0011204A41201F6F5FBD2FE8D
:1010B80030FE2680FB8022909B46E0FEA3E0640180
:1010C8004E701675F888909B4375F0011204A412AF
:1010D80001F6F5FAD2FE20FEFDE4F5F822909A28F2
:1010E8001204BBE4909A2FF0A3F0D209200903025E
:1010F800127C909A2812049B909A2FE0FEA3E0F5A8
:10110800828E8312020F645A600302124C909A284E
:1011180012049B909A2FE0A3E02401FFE43E8F8203
:10112800F58312020F64A5600302124C909A2812EC
:10113800049B909A2FE0A3E02403FFE43E8F82F5FE
:101148008312020F64827058A2079206A2089201C5
:10115800909A2EE0FF909A2812049B909A2FE0FC18
:10116800A3E029F9EA3CFA120AEF909A2812049BA4
:10117800909A2FE0FEA3E02402FFE43E8F82F583DD
:1011880012020FFF909A2FE0FCA3E02FFFE43CFE31
:10119800EF2402FFE43E909A2FF0A3EFF002124CE6
:1011A800909A2812049B909A2FE0FEA3E02403FF54
:1011B800E43E8F82F58312020F6483707D7BFF7A91
:1011C80025799A78317C9A7D01FE7FFF1201D0A2A1
:1011D800089201909A2EE0FF7B017A9A7931C00338
:1011E800C002C001909A2812049B909A2FE0FCA399
:1011F800E029F9EA3CFA909B341204BBD001D002F2
:10120800D0031204EA909A2812049B909A2FE0FEC9
:10121800A3E02402FFE43E8F82F58312020FFF90C1
:101228009A2FE0FCA3E02FFFE43CFEEF2402FFE44A
:101238003E909A2FF0A3EFF0800A909A2FE475F071
:101248000112030D909A2B12049B12033924FCFF00
:10125800E5F034FFFE909A2FE0FCA3E0C39FEC9EDC
:10126800500D909A2FE475F00112030D0210F4C28C
:10127800090210F4227BFF7A267999782B7C9A7DD3
:10128800017E007F081201D012006E7F6412227A5C
:101298007F1012227A12249412006E7F6512227A2D
:1012A800909A287406F0909A28E0D3940074809459
:1012B80080401D1221A4909A28E0242BF582E43462
:1012C8009AF583EFF01224A7909A28E014F080D6BC
:1012D8001221A4909A2BEFF01224BA122494E490CD
:1012E8009A28F0909A28E0C3940374809480504B15
:1012F800E0242BF582E4349AF583E0FFC4540F9080
:101308009A29F0909A28E0242BF582E4349AF58300
:10131800E0540F909A2AF0909A29E075F00AA4FFF9
:10132800A3E02FFF909A28E0242BF582E4349AF565
:1013380083EFF0909A28E004F080A8909A2874042B
:10134800F0909A28E0C3940774809480504BE0246E
:101358002BF582E4349AF583E0FFC4540F909A2960
:10136800F0909A28E0242BF582E4349AF583E0542F
:101378000F909A2AF0909A29E075F00AA4FFA3E04A
:101388002FFF909A28E0242BF582E4349AF583EF16
:10139800F0909A28E004F080A8909A2BE0FFA3E050
:1013A800FDA3E0FB12140D909A2EEFF0909A2BE01B
:1013B800FEA3E07C002400FDEC3EFC7F107E0012C2
:1013C8001DB4909A2DE0FEA3E07C002400FDEC3EC5
:1013D800FC7F117E00121DB4909A2FE0FEA3E07CE2
:1013E800002400FDEC3EFC7F127E00121DB4909A92
:1013F80031E0FEA3E07C002400FDEC3EFC7F137E80
:1014080000121DB422909A33EFF0A3EDF0A3EBF095
:10141800909A33E024D0FFE43407909A37F0A3EF92
:10142800F0909A34E064016005E064027011909ACB
:1014380034E0240CF0909A3774FFF5F012030D9005
:101448009A37E0FEA3E0C394D8EE9406403D909A04
:1014580037E0A3E0B4D811EEB4060D909A34E0C397
:101468009409748094804023909A37E0FEA3E06446
:10147800D87003EE6406707A909A34E0640970724A
:10148800A3E0C39403748094805067909A34E02456
:1014980001FFE433FE7C007D031202707D05120219
:1014A800D7AC06AD07E075F002A4FFA3E07A002FE1
:1014B800FFEA35F0FEED2FFFEC3EFE909A37E0FC98
:1014C800A3E02FFDEE3CFC909A37E0FEA3E0780203
:1014D800CEC313CE13D8F92DFFEC3EFEEF2406FF42
:1014E800E43EFE7C007D07120282909A36EDF002FF
:1014F8001588909A34E02401FFE433FE7C007D03D4
:101508001202707D051202D7AC06AD07A3E02401D4
:10151800FBE433FA909A34E075F002A42BFFE5F06F
:101528003AFEED2FFFEC3EFE909A37E0FCA3E02F49
:10153800FDEE3CFC909A37E0FEA3E07802CEC313A0
:10154800CE13D8F92DFBEC3EFA909A37E0FEA3E0D3
:10155800FF7C007D64120282C3EB9FFBEA9EFA9037
:101568009A37E0FEA3E0FF7C017D90120282EF2B08
:10157800FFEE3AFE7C007D07120282909A36EDF06B
:10158800909A36E0FF221200037F641221017F0F38
:101598001221011200037F651221011220AC909ADA
:1015A80029EFF012241A1220AC909A28EFF0122496
:1015B8003312247D909A29E020E0030216BE548459
:1015C800601CE0547BF01200037F641221017F0F3E
:1015D800122101909A29E0FF12210112247D909A8C
:1015E80029E054FEF0909A28E030E71B547FF0126F
:1015F80000037F641221017F10122101909A28E0D4
:10160800FF12210112247D909A28E04480F01200F4
:10161800037F641221017F10122101909A28E0FFB4
:1016280012210112247D909A29E04484F0120003CB
:101638007F641221017F0F122101909A29E0FF1285
:10164800210112247D1200037F64122101E4FF129C
:101658002101E4FF122101E4FF1221017F80122100
:10166800017F051221017F011221017F0112210151
:101678007F2112210112247D909A29E0547BF09059
:101688009A28E0547FF01200037F641221017F1032
:10169800122101909A28E0FF12210112247D1200E4
:1016A800037F641221017F0F122101909A29E0FF24
:1016B80012210112247D221200037F64122101E409
:1016C800FF1221011200037F65122101909A3074E4
:1016D80006F0909A30E0D3940074809480401D12F4
:1016E80020AC909A30E02428F582E4349AF583EF10
:1016F800F012241A909A30E014F080D61220AC90A0
:101708009A28EFF012243312247D909A2CE0547F0B
:10171800F0E4909A30F0909A30E0C3940374809487
:1017280080504BE02428F582E4349AF583E0FFC426
:10173800540F909A31F0909A30E02428F582E434DE
:101748009AF583E0540F909A32F0909A31E075F050
:101758000AA4FFA3E02FFF909A30E02428F582E442
:10176800349AF583EFF0909A30E004F080A8909ACC
:10177800307404F0909A30E0C394077480948050D9
:101788004BE02428F582E4349AF583E0FFC4540F33
:10179800909A31F0909A30E02428F582E4349AF552
:1017A80083E0540F909A32F0909A31E075F00AA4D1
:1017B800FFA3E02FFF909A30E02428F582E4349AC2
:1017C800F583EFF0909A30E004F080A8E4909A2F27
:1017D800F07B017A9A7928909B46F0A37408F07FF1
:1017E800107E00120F2622909A381204BB120003B2
:1017F8007F641221017F0F1221011200037F6512FD
:1018080021011220AC909A3BEFF012241A1220AC5E
:10181800909A3CEFF012243312247D909A3CE044D5
:1018280080F01200037F641221017F1012210190C1
:101838009A3CE0FF12210112247D909A3BE04484F7
:10184800F01200037F641221017F0F122101909A88
:101858003BE0FF12210112247D1200037F64122154
:1018680001E4FF122101909A3812049B900006129D
:10187800020FFF122101909A3812049B9000051262
:10188800020FFF122101909A3812049B9000041253
:10189800020FFF122101909A3812049B9000031244
:1018A800020FFF122101909A3812049B9000021235
:1018B800020FFF122101909A3812049B9000011226
:1018C800020FFF122101909A3812049B1201F6FFB1
:1018D80012210112247D909A3BE0547BF0A3E0543E
:1018E8007FF01200037F641221017F101221019002
:1018F8009A3CE0FF12210112247D1200037F64123A
:1019080021017F0F122101909A3BE0FF1221011261
:10191800247D22909B3CEEF0A3EFF0A31204BB9031
:101928009B3CE0A3E05401909B43F0909B3CE0FE7D
:10193800A3E0FFEEC313FEEF13FF909B3CEEF0A372
:10194800EFF0E4F5F1909B3CE0FEA3E0EEF5F290B9
:101958009B3CE0A3E0F5F375F40175F8AF30FCFDAE
:10196800909B41E0FEA3E0D39400EE940050030264
:101978001A09D2FE20FEFD909B43E0703D909B41EA
:10198800E0FEA3E0D39400EE9400402E909B3EE44A
:1019980075F0011204A4E5FA12023C909B3EE4752E
:1019A800F0011204A4E5FB12023C909B437401F081
:1019B800909B4174FFF5F012030D909B43E0640186
:1019C800709E909B41E0FEA3E0D39400EE9400400B
:1019D8008F909B3EE475F0011204A4E5FC12023CD2
:1019E800909B3EE475F0011204A4E5FD12023CE46C
:1019F800909B43F0909B4174FFF5F012030D021980
:101A080068E4F5F822909822E0640170369080042A
:101A1800E070307B017A807908C002C0017A987939
:101A28001C909A2B1204BB909A2E7402F0D207C213
:101A380008D001D0021210E5E4909822F090981C8A
:101A4800F0A3F0909825E064017036908005E0706E
:101A5800307B017A887908C002C0017A98791E9093
:101A68009A2B1204BB909A2E7403F0C207C208D0B6
:101A780001D0021210E5E4909825F090981EF0A38A
:101A8800F0909826E064017010908006E0700A904B
:101A98009826F0909820F0A3F0909827E0640170C1
:101AA80036908007E070307B017A90791CC002C0C4
:101AB800017A987923909A2B1204BB909A2E740578
:101AC800F0C207C208D001D0021210E5E4909827AE
:101AD800F0909823F0A3F02212006E7F6412227A0D
:101AE8007F1D12227A12249412006E7F6512227AC8
:101AF8001221A4909A28EFF01224A71221A41224EC
:101B0800BA122494909A28E0540264026003021BDB
:101B18009F12006E7F6412227A7F3012227AE4FFCD
:101B280012227A12249412006E7F6412227A7F1C89
:101B380012227A7F4812227AE4FF12227A7F401218
:101B4800227A7F1012227A12249412006E7F641275
:101B5800227A7F1012227AE4FF12227AE4FF1222FC
:101B68007AE4FF12227A7F0112227A7F0112227A06
:101B78007F0112227A7F1712227A12249412006EA1
:101B88007F6412227A7F1E12227AE4FF12227A7F61
:101B98001012227A12249422909A38EFF0A3EDF0D2
:101BA800A3EBF0909A39E064016005E064027023C9
:101BB800909A39E0240CFFE433909A3DF0A3EFF0BB
:101BC800909A38E024FFFFE434FF909A3FF0A3EFA7
:101BD800F0801A909A39E0FF909A3DE4F0A3EFF074
:101BE800909A38E0FF909A3FE4F0A3EFF0909A3D86
:101BF800E0FEA3E02401FFE43EFE7C007D1A120211
:101C0800707D0A120282AC06AD07A3E0FEA3E0785D
:101C180002CEC313CE13D8F9FF909A3FE0FAA3E09F
:101C28002FFFEE3AFEED2FFFEC3EFE909A3AE07C55
:101C3800002FFFEC3EFEEF24DCFFEE34FFA3F0A301
:101C4800EFF0909A3BE0FEA3E0FF7D07120282903E
:101C58009A41EDF0E0FF227B017A9A7928909B4126
:101C6800E4F0A37404F07F9C7E0012191B909A285C
:101C7800E0645A6003021D11A3E064A56003021D1D
:101C880011A3E0FF12244C909A30EFF0909A2BE0C9
:101C9800FF12244C909A31EFF0909A2CE0FF122416
:101CA8004C909A32EFF0909A2AE0FFA3E0FDA3E06F
:101CB800FB121BA0909A33EFF0909A2DE0FF1224AC
:101CC8004C909A34EFF0E04480F0909A2EE0FF12A6
:101CD800244C909A35EFF0909A2FE0FF12244C9004
:101CE8009A36EFF07B017A9A79301217EFE4909ADE
:101CF80028F0A3F07B017A9A7928909B46F0A37488
:101D080002F07F9C7E00120F262278FFE4F6D8FDB1
:101D18007401F5947402F5959080007F007E80E44C
:101D2800F0A3DFFCDEFA758121021D6F022401E4B5
:101D380093A3F8E493A34003F68001F208DFF4804C
:101D480029E493A3F85407240CC8C333C4540F449C
:101D580020C8834004F456800146F6DFE4800B0176
:101D68000204081020408090087DE47E019360BC46
:101D7800A3FF543F30E509541FFEE493A360010E0E
:101D8800CF54C025E060A840B8E493A3FAE493A335
:101D9800F8E493A3C8C582C8CAC583CAF0A3C8C556
:101DA80082C8CAC583CADFE9DEE780BE909A35EEED
:101DB800F0A3EFF0A3ECF0A3EDF0E4F5F1909A3581
:101DC800E0FEA3E0FFEEC313FEEF13EEF5F2909AE8
:101DD80035E0FEA3E0FFEEC313EF13F5F375F8AF9C
:101DE80030FCFDD2FE20FEFDE4F5F8909A35E0FEC9
:101DF800A3E0FFEEC313FEEF13EEF5F2909A35E081
:101E0800FEA3E0FFEEC313EF13F5F375F88F30FC74
:101E1800FD909A35E0A3E030E012A3E0FEA3E0EEE7
:101E2800F5FC909A37E0A3E0F5FD8012909A37E030
:101E3800FEA3E0EEF5FA909A37E0A3E0F5FBD2FEB8
:101E480020FEFDE4F5F822909B411204BB909B44D0
:101E5800ECF0A3EDF0A374FFF0A3F0909B4474FFA3
:101E6800F5F012032345F06047909B41E475F001BB
:101E78001204A41201F6FF909B47E06FFFA3E4F061
:101E8800A3EFF0909B48E0FEA3E02428F582749825
:101E98003EF583E0FF909B46E06FA3F0A3E0A3E04C
:101EA8002428F58274993EF583E0909B46F080AB38
:101EB800909B46E0FEA3E0FDEEEDFF22C0E0C0F0FF
:101EC800C083C082C0D075D000C000C006E59B307A
:101ED800E03B90981EE0FEA3E02408F58274883E5B
:101EE800F583E59CF0539BFE9098257401F090983B
:101EF8001EE0FEA3E0C394FFEE9407500A90981EDC
:101F0800E475F00112030D9080057405F0E59B302F
:101F1800E108539BFD539BFDC203D006D000D0D0EF
:101F2800D082D083D0F0D0E032C0E0C0F0C083C00F
:101F380082C0D075D000C000C00630983B90981C75
:101F4800E0FEA3E02408F58274803EF583E599F06D
:101F58005398FE9098227401F090981CE0FEA3E03C
:101F6800C394FFEE9407500A90981CE475F0011290
:101F7800030D9080047405F03099055398FDC20252
:101F8800D006D000D0D0D082D083D0F0D0E032902C
:101F98009B41EFF0A3EDF0909B41E06402700C20B0
:101FA80002FDD202909B42E0F59922909B41E064A9
:101FB80003700C2003FDD203909B42E0F59C229015
:101FC8009B41E064047013D2802004FDD204909BEE
:101FD80042E0F59E2004FDC28022909B41E064050A
:101FE800700B2005FDD205909B42E0F5AC22C0E0C5
:101FF800C0F0C083C082C0D075D000C000C00690B9
:102008009820E0FEA3E0241CF58274883EF583E561
:102018009FF05397FE9098267401F0909820E0FE68
:10202800A3E0C394FFEE9407500A909820E475F05B
:102038000112030D9080067405F0D006D000D0D0B0
:10204800D082D083D0F0D0E032C0E0C0F0C083C0EE
:1020580082C0D075D000C000C006909823E0FEA3CF
:10206800E0241CF58274903EF583E5ADF053ABFE99
:102078009098277401F0909823E0FEA3E0C394FFA2
:10208800EE9407500A909823E475F00112030D901E
:1020980080077405F0D006D000D0D0D082D083D08D
:1020A800F0D0E03212001EE4909A3DF0909A3DE0A4
:1020B800FF3395E0FEC3EF9408EE648094805033BC
:1020C8007F051223ADD2B27F051223AD909A3EE070
:1020D800FF25E0F030B306E04401F08007909A3E17
:1020E800E054FEF0C2B27F051223AD909A3DE004A1
:1020F800F080B9909A3EE0FF22909A3DEFF01200EE
:1021080056E4A3F0909A3EE0FF3395E0FEC3EF94C7
:1021180008EE648094805030909A3DE030E704D215
:10212800B38002C2B3909A3DE0FF25E0F07F05122C
:1021380023ADD2B27F051223ADC2B27F051223AD03
:10214800909A3EE004F080BC1222C022909A281295
:10215800045EE4909A2CF0A3F0909A281204527F1F
:10216800007E387D317C001203A0C3E49FFF740415
:102178009E909A2CF0A3EFF0909A2CE0FEA3E0EE4C
:10218800F5BA909A2CE0A3E0F5AA43C94075D88027
:1021980075985053877F43A810D2AF2212001EE4CF
:1021A800909A33F0909A33E0C394087480948050E6
:1021B8002D122465D2B2122465909A34E0FF25E0EE
:1021C800F030B306E04401F08007909A34E054FE02
:1021D800F0C2B2122465909A33E004F080C6909A57
:1021E80034E0FF22909A2812045EE4909A2CF0A31F
:1021F800F0909A281204527F007EC07D897C0112DB
:1022080003A0909A2CEEF0A3EFF0909A2CE0FEA396
:10221800E0EEF5D9909A2CE0A3E0F5E77596807585
:102228009780D2BBD2BAC280D2AF22909A28120429
:102238005EE4909A2CF0A3F0909A281204527F0042
:102248007EC07D897C011203A0909A2CEEF0A3EF4A
:10225800F0909A2CE0FEA3E0EEF5AE909A2CE0A365
:10226800E0F5AF75A78075AB80D2BDD2BCC281D274
:10227800AF22909A35EFF0120056E4A3F0909A3608
:10228800E0C3940874809480502A909A35E030E72F
:1022980004D2B38002C2B3909A35E0FF25E0F01271
:1022A8002465D2B2122465C2B2122465909A36E02F
:1022B80004F080C91223772212001ED2B37F0512C0
:1022C80023ADD2B27F051223ADE4909A3FF0909AE5
:1022D8003FE0C3943274809480501030B30D7F0572
:1022E8001223AD909A3FE004F080E3C2B27F05125A
:1022F80023AD12005622C207D207909B5AE0640110
:102308007025200A05D20A121AE0909B4CE0FEA321
:10231800E0C394F4EE9401400A12127DE4909B4CC1
:10232800F0A3F0120D4F22909B5AE0640270031242
:10233800002622E4F5A8F5B8F59AF593F58EF5A9E7
:10234800F5B9F5F875B75375BDC075BE0C75F901CB
:1023580075A0C0F5B053C9FDF5CDF5CC75C870753D
:10236800CBBC75CACD43A820D2C8D2ADD2AF2212F9
:10237800001ED2B3122465D2B2122465E4909A37B3
:10238800F0909A37E0C3943274809480500E30B342
:102398000B122465909A37E004F080E5C2B212244B
:1023A8006512005622909A40EFF0909A40E060261D
:1023B800E4A3F0909A41E0FF3395E0FEC3EF943236
:1023C800EE648094805007E0F0E004F080E5909A95
:1023D80040E014F080D4227F007EC27D017C001290
:1023E80021547F007E4B7D007C001221EC7F007E13
:1023F800C27D017C001222332212233B1223DF907C
:102408009B5612046A000000001222FE121A0D8068
:10241800F822120056C2B37F051223ADD2B27F054F
:102428001223ADC2B27F051223AD22120056D2B3D9
:102438007F051223ADD2B27F051223ADC2B27F054C
:102448001223AD22909A38EFF0E075F00A84FFC4A9
:1024580054F0FFE075F00A84E5F04FFF22E4909A0B
:1024680038F0909A38E0C39450748094805005E016
:1024780004F080EE22120056C2B3D2B27F0F1223AC
:10248800ADD2B37F0F1223AD12001E22120056C226
:10249800B3D2B2122465D2B312246512001E2212DE
:1024A8000056C2B3122465D2B2122465C2B21224F5
:1024B8006522120056D2B3122465D2B2122465C224
:1024C800B21224652253A7FEC20532414243444555
:1024D800464748494A4B4C4D4E4F5051525354551C
:1024E800565758595A6162636465666768696A6BCA
:1024F8006C6D6E6F707172737475767778797A30E7
:102508003132333435363738392B2F0068656C6CE7
:102518006F20776F72642100000000000000000047
:1025280000000000000000000000000000000000A3
:102538000000000000000000000000000000000093
:102548000000000000000000000000000000000083
:102558000000000000000000000000000000000073
:102568000000000000000000000000000000000063
:102578000000000000000000000000000000000053
:10258800000000005AA503824F4B5AA505824F4B05
:10259800A5EF00000000000000000000000000009F
:1025A8000000000000000000000000000000000023
:1025B8000000000000000000000000000000000013
:1025C8000000000000000000000000000000000003
:1025D80000000000000000000000000000000000F3
:1025E80000000000000000000000000000000000E3
:1025F80000000000000000000000000000000000D3
:1026080000000000000000000000000000000000C2
:1026180000000000000000000000000000000000B2
:1026280000000000000000000000000000000000A2
:102638000000000000000000000000000000000092
:102648000000000000000000000000000000000082
:102658000000000000000000000000000000000072
:102668000000000000000000000000000000000062
:102678000000000000000000000000000000000052
:102688000000000000000000000000000000000042
:102698000000000000000000000000000000000032
:00000001FF
